{
  "_format": "hh-sol-artifact-1",
  "contractName": "Pixel",
  "sourceName": "contracts/NFT.sol",
  "abi": [
    {
      "inputs": [],
      "stateMutability": "nonpayable",
      "type": "constructor"
    },
    {
      "inputs": [
        {
          "internalType": "address",
          "name": "sender",
          "type": "address"
        },
        {
          "internalType": "uint256",
          "name": "tokenId",
          "type": "uint256"
        },
        {
          "internalType": "address",
          "name": "owner",
          "type": "address"
        }
      ],
      "name": "ERC721IncorrectOwner",
      "type": "error"
    },
    {
      "inputs": [
        {
          "internalType": "address",
          "name": "operator",
          "type": "address"
        },
        {
          "internalType": "uint256",
          "name": "tokenId",
          "type": "uint256"
        }
      ],
      "name": "ERC721InsufficientApproval",
      "type": "error"
    },
    {
      "inputs": [
        {
          "internalType": "address",
          "name": "approver",
          "type": "address"
        }
      ],
      "name": "ERC721InvalidApprover",
      "type": "error"
    },
    {
      "inputs": [
        {
          "internalType": "address",
          "name": "operator",
          "type": "address"
        }
      ],
      "name": "ERC721InvalidOperator",
      "type": "error"
    },
    {
      "inputs": [
        {
          "internalType": "address",
          "name": "owner",
          "type": "address"
        }
      ],
      "name": "ERC721InvalidOwner",
      "type": "error"
    },
    {
      "inputs": [
        {
          "internalType": "address",
          "name": "receiver",
          "type": "address"
        }
      ],
      "name": "ERC721InvalidReceiver",
      "type": "error"
    },
    {
      "inputs": [
        {
          "internalType": "address",
          "name": "sender",
          "type": "address"
        }
      ],
      "name": "ERC721InvalidSender",
      "type": "error"
    },
    {
      "inputs": [
        {
          "internalType": "uint256",
          "name": "tokenId",
          "type": "uint256"
        }
      ],
      "name": "ERC721NonexistentToken",
      "type": "error"
    },
    {
      "inputs": [
        {
          "internalType": "address",
          "name": "owner",
          "type": "address"
        }
      ],
      "name": "OwnableInvalidOwner",
      "type": "error"
    },
    {
      "inputs": [
        {
          "internalType": "address",
          "name": "account",
          "type": "address"
        }
      ],
      "name": "OwnableUnauthorizedAccount",
      "type": "error"
    },
    {
      "anonymous": false,
      "inputs": [
        {
          "indexed": true,
          "internalType": "address",
          "name": "owner",
          "type": "address"
        },
        {
          "indexed": true,
          "internalType": "address",
          "name": "approved",
          "type": "address"
        },
        {
          "indexed": true,
          "internalType": "uint256",
          "name": "tokenId",
          "type": "uint256"
        }
      ],
      "name": "Approval",
      "type": "event"
    },
    {
      "anonymous": false,
      "inputs": [
        {
          "indexed": true,
          "internalType": "address",
          "name": "owner",
          "type": "address"
        },
        {
          "indexed": true,
          "internalType": "address",
          "name": "operator",
          "type": "address"
        },
        {
          "indexed": false,
          "internalType": "bool",
          "name": "approved",
          "type": "bool"
        }
      ],
      "name": "ApprovalForAll",
      "type": "event"
    },
    {
      "anonymous": false,
      "inputs": [
        {
          "indexed": true,
          "internalType": "address",
          "name": "previousOwner",
          "type": "address"
        },
        {
          "indexed": true,
          "internalType": "address",
          "name": "newOwner",
          "type": "address"
        }
      ],
      "name": "OwnershipTransferred",
      "type": "event"
    },
    {
      "anonymous": false,
      "inputs": [
        {
          "indexed": true,
          "internalType": "address",
          "name": "from",
          "type": "address"
        },
        {
          "indexed": true,
          "internalType": "address",
          "name": "to",
          "type": "address"
        },
        {
          "indexed": true,
          "internalType": "uint256",
          "name": "tokenId",
          "type": "uint256"
        }
      ],
      "name": "Transfer",
      "type": "event"
    },
    {
      "inputs": [
        {
          "internalType": "address",
          "name": "to",
          "type": "address"
        },
        {
          "internalType": "uint256",
          "name": "tokenId",
          "type": "uint256"
        }
      ],
      "name": "approve",
      "outputs": [],
      "stateMutability": "nonpayable",
      "type": "function"
    },
    {
      "inputs": [
        {
          "internalType": "address",
          "name": "owner",
          "type": "address"
        }
      ],
      "name": "balanceOf",
      "outputs": [
        {
          "internalType": "uint256",
          "name": "",
          "type": "uint256"
        }
      ],
      "stateMutability": "view",
      "type": "function"
    },
    {
      "inputs": [
        {
          "internalType": "uint256",
          "name": "tokenId",
          "type": "uint256"
        }
      ],
      "name": "getApproved",
      "outputs": [
        {
          "internalType": "address",
          "name": "",
          "type": "address"
        }
      ],
      "stateMutability": "view",
      "type": "function"
    },
    {
      "inputs": [
        {
          "internalType": "address",
          "name": "owner",
          "type": "address"
        },
        {
          "internalType": "address",
          "name": "operator",
          "type": "address"
        }
      ],
      "name": "isApprovedForAll",
      "outputs": [
        {
          "internalType": "bool",
          "name": "",
          "type": "bool"
        }
      ],
      "stateMutability": "view",
      "type": "function"
    },
    {
      "inputs": [
        {
          "internalType": "address",
          "name": "recipient",
          "type": "address"
        },
        {
          "internalType": "string",
          "name": "_tokenURI",
          "type": "string"
        }
      ],
      "name": "mintNFT",
      "outputs": [
        {
          "internalType": "uint256",
          "name": "",
          "type": "uint256"
        }
      ],
      "stateMutability": "nonpayable",
      "type": "function"
    },
    {
      "inputs": [],
      "name": "name",
      "outputs": [
        {
          "internalType": "string",
          "name": "",
          "type": "string"
        }
      ],
      "stateMutability": "view",
      "type": "function"
    },
    {
      "inputs": [],
      "name": "owner",
      "outputs": [
        {
          "internalType": "address",
          "name": "",
          "type": "address"
        }
      ],
      "stateMutability": "view",
      "type": "function"
    },
    {
      "inputs": [
        {
          "internalType": "uint256",
          "name": "tokenId",
          "type": "uint256"
        }
      ],
      "name": "ownerOf",
      "outputs": [
        {
          "internalType": "address",
          "name": "",
          "type": "address"
        }
      ],
      "stateMutability": "view",
      "type": "function"
    },
    {
      "inputs": [],
      "name": "renounceOwnership",
      "outputs": [],
      "stateMutability": "nonpayable",
      "type": "function"
    },
    {
      "inputs": [
        {
          "internalType": "address",
          "name": "from",
          "type": "address"
        },
        {
          "internalType": "address",
          "name": "to",
          "type": "address"
        },
        {
          "internalType": "uint256",
          "name": "tokenId",
          "type": "uint256"
        }
      ],
      "name": "safeTransferFrom",
      "outputs": [],
      "stateMutability": "nonpayable",
      "type": "function"
    },
    {
      "inputs": [
        {
          "internalType": "address",
          "name": "from",
          "type": "address"
        },
        {
          "internalType": "address",
          "name": "to",
          "type": "address"
        },
        {
          "internalType": "uint256",
          "name": "tokenId",
          "type": "uint256"
        },
        {
          "internalType": "bytes",
          "name": "data",
          "type": "bytes"
        }
      ],
      "name": "safeTransferFrom",
      "outputs": [],
      "stateMutability": "nonpayable",
      "type": "function"
    },
    {
      "inputs": [
        {
          "internalType": "address",
          "name": "operator",
          "type": "address"
        },
        {
          "internalType": "bool",
          "name": "approved",
          "type": "bool"
        }
      ],
      "name": "setApprovalForAll",
      "outputs": [],
      "stateMutability": "nonpayable",
      "type": "function"
    },
    {
      "inputs": [
        {
          "internalType": "string",
          "name": "baseUri",
          "type": "string"
        }
      ],
      "name": "setBaseUri",
      "outputs": [],
      "stateMutability": "nonpayable",
      "type": "function"
    },
    {
      "inputs": [
        {
          "internalType": "bytes4",
          "name": "interfaceId",
          "type": "bytes4"
        }
      ],
      "name": "supportsInterface",
      "outputs": [
        {
          "internalType": "bool",
          "name": "",
          "type": "bool"
        }
      ],
      "stateMutability": "view",
      "type": "function"
    },
    {
      "inputs": [],
      "name": "symbol",
      "outputs": [
        {
          "internalType": "string",
          "name": "",
          "type": "string"
        }
      ],
      "stateMutability": "view",
      "type": "function"
    },
    {
      "inputs": [
        {
          "internalType": "uint256",
          "name": "tokenId",
          "type": "uint256"
        }
      ],
      "name": "tokenURI",
      "outputs": [
        {
          "internalType": "string",
          "name": "",
          "type": "string"
        }
      ],
      "stateMutability": "view",
      "type": "function"
    },
    {
      "inputs": [
        {
          "internalType": "address",
          "name": "from",
          "type": "address"
        },
        {
          "internalType": "address",
          "name": "to",
          "type": "address"
        },
        {
          "internalType": "uint256",
          "name": "tokenId",
          "type": "uint256"
        }
      ],
      "name": "transferFrom",
      "outputs": [],
      "stateMutability": "nonpayable",
      "type": "function"
    },
    {
      "inputs": [
        {
          "internalType": "address",
          "name": "newOwner",
          "type": "address"
        }
      ],
      "name": "transferOwnership",
      "outputs": [],
      "stateMutability": "nonpayable",
      "type": "function"
    }
  ],
  "bytecode": "0x608060405234801561001057600080fd5b50336040518060400160405280600581526020017f506978656c0000000000000000000000000000000000000000000000000000008152506040518060400160405280600581526020017f506978656c000000000000000000000000000000000000000000000000000000815250816000908161008d919061043d565b50806001908161009d919061043d565b505050600073ffffffffffffffffffffffffffffffffffffffff168173ffffffffffffffffffffffffffffffffffffffff16036101125760006040517f1e4fbdf70000000000000000000000000000000000000000000000000000000081526004016101099190610550565b60405180910390fd5b6101218161012760201b60201c565b5061056b565b6000600660009054906101000a900473ffffffffffffffffffffffffffffffffffffffff16905081600660006101000a81548173ffffffffffffffffffffffffffffffffffffffff021916908373ffffffffffffffffffffffffffffffffffffffff1602179055508173ffffffffffffffffffffffffffffffffffffffff168173ffffffffffffffffffffffffffffffffffffffff167f8be0079c531659141344cd1fd0a4f28419497f9722a3daafe3b4186f6b6457e060405160405180910390a35050565b600081519050919050565b7f4e487b7100000000000000000000000000000000000000000000000000000000600052604160045260246000fd5b7f4e487b7100000000000000000000000000000000000000000000000000000000600052602260045260246000fd5b6000600282049050600182168061026e57607f821691505b60208210810361028157610280610227565b5b50919050565b60008190508160005260206000209050919050565b60006020601f8301049050919050565b600082821b905092915050565b6000600883026102e97fffffffffffffffffffffffffffffffffffffffffffffffffffffffffffffffff826102ac565b6102f386836102ac565b95508019841693508086168417925050509392505050565b6000819050919050565b6000819050919050565b600061033a6103356103308461030b565b610315565b61030b565b9050919050565b6000819050919050565b6103548361031f565b61036861036082610341565b8484546102b9565b825550505050565b600090565b61037d610370565b61038881848461034b565b505050565b5b818110156103ac576103a1600082610375565b60018101905061038e565b5050565b601f8211156103f1576103c281610287565b6103cb8461029c565b810160208510156103da578190505b6103ee6103e68561029c565b83018261038d565b50505b505050565b600082821c905092915050565b6000610414600019846008026103f6565b1980831691505092915050565b600061042d8383610403565b9150826002028217905092915050565b610446826101ed565b67ffffffffffffffff81111561045f5761045e6101f8565b5b6104698254610256565b6104748282856103b0565b600060209050601f8311600181146104a75760008415610495578287015190505b61049f8582610421565b865550610507565b601f1984166104b586610287565b60005b828110156104dd578489015182556001820191506020850194506020810190506104b8565b868310156104fa57848901516104f6601f891682610403565b8355505b6001600288020188555050505b505050505050565b600073ffffffffffffffffffffffffffffffffffffffff82169050919050565b600061053a8261050f565b9050919050565b61054a8161052f565b82525050565b60006020820190506105656000830184610541565b92915050565b61262c8061057a6000396000f3fe608060405234801561001057600080fd5b50600436106101165760003560e01c80638da5cb5b116100a2578063b88d4fde11610071578063b88d4fde146102cb578063c87b56dd146102e7578063e985e9c514610317578063eacabe1414610347578063f2fde38b1461037757610116565b80638da5cb5b1461025757806395d89b4114610275578063a0bcfc7f14610293578063a22cb465146102af57610116565b806323b872dd116100e957806323b872dd146101b557806342842e0e146101d15780636352211e146101ed57806370a082311461021d578063715018a61461024d57610116565b806301ffc9a71461011b57806306fdde031461014b578063081812fc14610169578063095ea7b314610199575b600080fd5b61013560048036038101906101309190611a4f565b610393565b6040516101429190611a97565b60405180910390f35b610153610475565b6040516101609190611b42565b60405180910390f35b610183600480360381019061017e9190611b9a565b610507565b6040516101909190611c08565b60405180910390f35b6101b360048036038101906101ae9190611c4f565b610523565b005b6101cf60048036038101906101ca9190611c8f565b610539565b005b6101eb60048036038101906101e69190611c8f565b61063b565b005b61020760048036038101906102029190611b9a565b61065b565b6040516102149190611c08565b60405180910390f35b61023760048036038101906102329190611ce2565b61066d565b6040516102449190611d1e565b60405180910390f35b610255610727565b005b61025f61073b565b60405161026c9190611c08565b60405180910390f35b61027d610765565b60405161028a9190611b42565b60405180910390f35b6102ad60048036038101906102a89190611e6e565b6107f7565b005b6102c960048036038101906102c49190611ee3565b610812565b005b6102e560048036038101906102e09190611fc4565b610828565b005b61030160048036038101906102fc9190611b9a565b61084d565b60405161030e9190611b42565b60405180910390f35b610331600480360381019061032c9190612047565b610977565b60405161033e9190611a97565b60405180910390f35b610361600480360381019061035c9190612087565b610a0b565b60405161036e9190611d1e565b60405180910390f35b610391600480360381019061038c9190611ce2565b610ab0565b005b60007f80ac58cd000000000000000000000000000000000000000000000000000000007bffffffffffffffffffffffffffffffffffffffffffffffffffffffff1916827bffffffffffffffffffffffffffffffffffffffffffffffffffffffff1916148061045e57507f5b5e139f000000000000000000000000000000000000000000000000000000007bffffffffffffffffffffffffffffffffffffffffffffffffffffffff1916827bffffffffffffffffffffffffffffffffffffffffffffffffffffffff1916145b8061046e575061046d82610b36565b5b9050919050565b60606000805461048490612112565b80601f01602080910402602001604051908101604052809291908181526020018280546104b090612112565b80156104fd5780601f106104d2576101008083540402835291602001916104fd565b820191906000526020600020905b8154815290600101906020018083116104e057829003601f168201915b5050505050905090565b600061051282610ba0565b5061051c82610c28565b9050919050565b6105358282610530610c65565b610c6d565b5050565b600073ffffffffffffffffffffffffffffffffffffffff168273ffffffffffffffffffffffffffffffffffffffff16036105ab5760006040517f64a0ae920000000000000000000000000000000000000000000000000000000081526004016105a29190611c08565b60405180910390fd5b60006105bf83836105ba610c65565b610c7f565b90508373ffffffffffffffffffffffffffffffffffffffff168173ffffffffffffffffffffffffffffffffffffffff1614610635578382826040517f64283d7b00000000000000000000000000000000000000000000000000000000815260040161062c93929190612143565b60405180910390fd5b50505050565b61065683838360405180602001604052806000815250610828565b505050565b600061066682610ba0565b9050919050565b60008073ffffffffffffffffffffffffffffffffffffffff168273ffffffffffffffffffffffffffffffffffffffff16036106e05760006040517f89c62b640000000000000000000000000000000000000000000000000000000081526004016106d79190611c08565b60405180910390fd5b600360008373ffffffffffffffffffffffffffffffffffffffff1673ffffffffffffffffffffffffffffffffffffffff168152602001908152602001600020549050919050565b61072f610e99565b6107396000610f20565b565b6000600660009054906101000a900473ffffffffffffffffffffffffffffffffffffffff16905090565b60606001805461077490612112565b80601f01602080910402602001604051908101604052809291908181526020018280546107a090612112565b80156107ed5780601f106107c2576101008083540402835291602001916107ed565b820191906000526020600020905b8154815290600101906020018083116107d057829003601f168201915b5050505050905090565b6107ff610e99565b806009908161080e9190612326565b5050565b61082461081d610c65565b8383610fe6565b5050565b610833848484610539565b61084761083e610c65565b85858585611155565b50505050565b6060600060086000848152602001908152602001600020805461086f90612112565b80601f016020809104026020016040519081016040528092919081815260200182805461089b90612112565b80156108e85780601f106108bd576101008083540402835291602001916108e8565b820191906000526020600020905b8154815290600101906020018083116108cb57829003601f168201915b5050505050905060006108f9611306565b9050600081510361090e578192505050610972565b60008251111561094357808260405160200161092b929190612434565b60405160208183030381529060405292505050610972565b8061094d8561131d565b60405160200161095e929190612434565b604051602081830303815290604052925050505b919050565b6000600560008473ffffffffffffffffffffffffffffffffffffffff1673ffffffffffffffffffffffffffffffffffffffff16815260200190815260200160002060008373ffffffffffffffffffffffffffffffffffffffff1673ffffffffffffffffffffffffffffffffffffffff16815260200190815260200160002060009054906101000a900460ff16905092915050565b6000610a15610e99565b600160076000828254610a289190612487565b9250508190555060006007549050610a4084826113eb565b610a4a81846114e4565b808473ffffffffffffffffffffffffffffffffffffffff16600073ffffffffffffffffffffffffffffffffffffffff167fddf252ad1be2c89b69c2b068fc378daa952ba7f163c4a11628f55a4df523b3ef60405160405180910390a48091505092915050565b610ab8610e99565b600073ffffffffffffffffffffffffffffffffffffffff168173ffffffffffffffffffffffffffffffffffffffff1603610b2a5760006040517f1e4fbdf7000000000000000000000000000000000000000000000000000000008152600401610b219190611c08565b60405180910390fd5b610b3381610f20565b50565b60007f01ffc9a7000000000000000000000000000000000000000000000000000000007bffffffffffffffffffffffffffffffffffffffffffffffffffffffff1916827bffffffffffffffffffffffffffffffffffffffffffffffffffffffff1916149050919050565b600080610bac83611509565b9050600073ffffffffffffffffffffffffffffffffffffffff168173ffffffffffffffffffffffffffffffffffffffff1603610c1f57826040517f7e273289000000000000000000000000000000000000000000000000000000008152600401610c169190611d1e565b60405180910390fd5b80915050919050565b60006004600083815260200190815260200160002060009054906101000a900473ffffffffffffffffffffffffffffffffffffffff169050919050565b600033905090565b610c7a8383836001611546565b505050565b600080610c8b84611509565b9050600073ffffffffffffffffffffffffffffffffffffffff168373ffffffffffffffffffffffffffffffffffffffff1614610ccd57610ccc81848661170b565b5b600073ffffffffffffffffffffffffffffffffffffffff168173ffffffffffffffffffffffffffffffffffffffff1614610d5e57610d0f600085600080611546565b6001600360008373ffffffffffffffffffffffffffffffffffffffff1673ffffffffffffffffffffffffffffffffffffffff168152602001908152602001600020600082825403925050819055505b600073ffffffffffffffffffffffffffffffffffffffff168573ffffffffffffffffffffffffffffffffffffffff1614610de1576001600360008773ffffffffffffffffffffffffffffffffffffffff1673ffffffffffffffffffffffffffffffffffffffff168152602001908152602001600020600082825401925050819055505b846002600086815260200190815260200160002060006101000a81548173ffffffffffffffffffffffffffffffffffffffff021916908373ffffffffffffffffffffffffffffffffffffffff160217905550838573ffffffffffffffffffffffffffffffffffffffff168273ffffffffffffffffffffffffffffffffffffffff167fddf252ad1be2c89b69c2b068fc378daa952ba7f163c4a11628f55a4df523b3ef60405160405180910390a4809150509392505050565b610ea1610c65565b73ffffffffffffffffffffffffffffffffffffffff16610ebf61073b565b73ffffffffffffffffffffffffffffffffffffffff1614610f1e57610ee2610c65565b6040517f118cdaa7000000000000000000000000000000000000000000000000000000008152600401610f159190611c08565b60405180910390fd5b565b6000600660009054906101000a900473ffffffffffffffffffffffffffffffffffffffff16905081600660006101000a81548173ffffffffffffffffffffffffffffffffffffffff021916908373ffffffffffffffffffffffffffffffffffffffff1602179055508173ffffffffffffffffffffffffffffffffffffffff168173ffffffffffffffffffffffffffffffffffffffff167f8be0079c531659141344cd1fd0a4f28419497f9722a3daafe3b4186f6b6457e060405160405180910390a35050565b600073ffffffffffffffffffffffffffffffffffffffff168273ffffffffffffffffffffffffffffffffffffffff160361105757816040517f5b08ba1800000000000000000000000000000000000000000000000000000000815260040161104e9190611c08565b60405180910390fd5b80600560008573ffffffffffffffffffffffffffffffffffffffff1673ffffffffffffffffffffffffffffffffffffffff16815260200190815260200160002060008473ffffffffffffffffffffffffffffffffffffffff1673ffffffffffffffffffffffffffffffffffffffff16815260200190815260200160002060006101000a81548160ff0219169083151502179055508173ffffffffffffffffffffffffffffffffffffffff168373ffffffffffffffffffffffffffffffffffffffff167f17307eab39ab6107e8899845ad3d59bd9653f200f220920489ca2b5937696c31836040516111489190611a97565b60405180910390a3505050565b60008373ffffffffffffffffffffffffffffffffffffffff163b11156112ff578273ffffffffffffffffffffffffffffffffffffffff1663150b7a02868685856040518563ffffffff1660e01b81526004016111b49493929190612510565b6020604051808303816000875af19250505080156111f057506040513d601f19601f820116820180604052508101906111ed9190612571565b60015b611274573d8060008114611220576040519150601f19603f3d011682016040523d82523d6000602084013e611225565b606091505b50600081510361126c57836040517f64a0ae920000000000000000000000000000000000000000000000000000000081526004016112639190611c08565b60405180910390fd5b805181602001fd5b63150b7a0260e01b7bffffffffffffffffffffffffffffffffffffffffffffffffffffffff1916817bffffffffffffffffffffffffffffffffffffffffffffffffffffffff1916146112fd57836040517f64a0ae920000000000000000000000000000000000000000000000000000000081526004016112f49190611c08565b60405180910390fd5b505b5050505050565b606060405180602001604052806000815250905090565b60606000600161132c846117cf565b01905060008167ffffffffffffffff81111561134b5761134a611d43565b5b6040519080825280601f01601f19166020018201604052801561137d5781602001600182028036833780820191505090505b509050600082602001820190505b6001156113e0578080600190039150507f3031323334353637383961626364656600000000000000000000000000000000600a86061a8153600a85816113d4576113d361259e565b5b0494506000850361138b575b819350505050919050565b600073ffffffffffffffffffffffffffffffffffffffff168273ffffffffffffffffffffffffffffffffffffffff160361145d5760006040517f64a0ae920000000000000000000000000000000000000000000000000000000081526004016114549190611c08565b60405180910390fd5b600061146b83836000610c7f565b9050600073ffffffffffffffffffffffffffffffffffffffff168173ffffffffffffffffffffffffffffffffffffffff16146114df5760006040517f73c6ac6e0000000000000000000000000000000000000000000000000000000081526004016114d69190611c08565b60405180910390fd5b505050565b806008600084815260200190815260200160002090816115049190612326565b505050565b60006002600083815260200190815260200160002060009054906101000a900473ffffffffffffffffffffffffffffffffffffffff169050919050565b808061157f5750600073ffffffffffffffffffffffffffffffffffffffff168273ffffffffffffffffffffffffffffffffffffffff1614155b156116b357600061158f84610ba0565b9050600073ffffffffffffffffffffffffffffffffffffffff168373ffffffffffffffffffffffffffffffffffffffff16141580156115fa57508273ffffffffffffffffffffffffffffffffffffffff168173ffffffffffffffffffffffffffffffffffffffff1614155b801561160d575061160b8184610977565b155b1561164f57826040517fa9fbf51f0000000000000000000000000000000000000000000000000000000081526004016116469190611c08565b60405180910390fd5b81156116b157838573ffffffffffffffffffffffffffffffffffffffff168273ffffffffffffffffffffffffffffffffffffffff167f8c5be1e5ebec7d5bd14f71427d1e84f3dd0314c0f7b2291e5b200ac8c7c3b92560405160405180910390a45b505b836004600085815260200190815260200160002060006101000a81548173ffffffffffffffffffffffffffffffffffffffff021916908373ffffffffffffffffffffffffffffffffffffffff16021790555050505050565b611716838383611922565b6117ca57600073ffffffffffffffffffffffffffffffffffffffff168373ffffffffffffffffffffffffffffffffffffffff160361178b57806040517f7e2732890000000000000000000000000000000000000000000000000000000081526004016117829190611d1e565b60405180910390fd5b81816040517f177e802f0000000000000000000000000000000000000000000000000000000081526004016117c19291906125cd565b60405180910390fd5b505050565b600080600090507a184f03e93ff9f4daa797ed6e38ed64bf6a1f010000000000000000831061182d577a184f03e93ff9f4daa797ed6e38ed64bf6a1f01000000000000000083816118235761182261259e565b5b0492506040810190505b6d04ee2d6d415b85acef8100000000831061186a576d04ee2d6d415b85acef810000000083816118605761185f61259e565b5b0492506020810190505b662386f26fc10000831061189957662386f26fc10000838161188f5761188e61259e565b5b0492506010810190505b6305f5e10083106118c2576305f5e10083816118b8576118b761259e565b5b0492506008810190505b61271083106118e75761271083816118dd576118dc61259e565b5b0492506004810190505b6064831061190a5760648381611900576118ff61259e565b5b0492506002810190505b600a8310611919576001810190505b80915050919050565b60008073ffffffffffffffffffffffffffffffffffffffff168373ffffffffffffffffffffffffffffffffffffffff16141580156119da57508273ffffffffffffffffffffffffffffffffffffffff168473ffffffffffffffffffffffffffffffffffffffff16148061199b575061199a8484610977565b5b806119d957508273ffffffffffffffffffffffffffffffffffffffff166119c183610c28565b73ffffffffffffffffffffffffffffffffffffffff16145b5b90509392505050565b6000604051905090565b600080fd5b600080fd5b60007fffffffff0000000000000000000000000000000000000000000000000000000082169050919050565b611a2c816119f7565b8114611a3757600080fd5b50565b600081359050611a4981611a23565b92915050565b600060208284031215611a6557611a646119ed565b5b6000611a7384828501611a3a565b91505092915050565b60008115159050919050565b611a9181611a7c565b82525050565b6000602082019050611aac6000830184611a88565b92915050565b600081519050919050565b600082825260208201905092915050565b60005b83811015611aec578082015181840152602081019050611ad1565b60008484015250505050565b6000601f19601f8301169050919050565b6000611b1482611ab2565b611b1e8185611abd565b9350611b2e818560208601611ace565b611b3781611af8565b840191505092915050565b60006020820190508181036000830152611b5c8184611b09565b905092915050565b6000819050919050565b611b7781611b64565b8114611b8257600080fd5b50565b600081359050611b9481611b6e565b92915050565b600060208284031215611bb057611baf6119ed565b5b6000611bbe84828501611b85565b91505092915050565b600073ffffffffffffffffffffffffffffffffffffffff82169050919050565b6000611bf282611bc7565b9050919050565b611c0281611be7565b82525050565b6000602082019050611c1d6000830184611bf9565b92915050565b611c2c81611be7565b8114611c3757600080fd5b50565b600081359050611c4981611c23565b92915050565b60008060408385031215611c6657611c656119ed565b5b6000611c7485828601611c3a565b9250506020611c8585828601611b85565b9150509250929050565b600080600060608486031215611ca857611ca76119ed565b5b6000611cb686828701611c3a565b9350506020611cc786828701611c3a565b9250506040611cd886828701611b85565b9150509250925092565b600060208284031215611cf857611cf76119ed565b5b6000611d0684828501611c3a565b91505092915050565b611d1881611b64565b82525050565b6000602082019050611d336000830184611d0f565b92915050565b600080fd5b600080fd5b7f4e487b7100000000000000000000000000000000000000000000000000000000600052604160045260246000fd5b611d7b82611af8565b810181811067ffffffffffffffff82111715611d9a57611d99611d43565b5b80604052505050565b6000611dad6119e3565b9050611db98282611d72565b919050565b600067ffffffffffffffff821115611dd957611dd8611d43565b5b611de282611af8565b9050602081019050919050565b82818337600083830152505050565b6000611e11611e0c84611dbe565b611da3565b905082815260208101848484011115611e2d57611e2c611d3e565b5b611e38848285611def565b509392505050565b600082601f830112611e5557611e54611d39565b5b8135611e65848260208601611dfe565b91505092915050565b600060208284031215611e8457611e836119ed565b5b600082013567ffffffffffffffff811115611ea257611ea16119f2565b5b611eae84828501611e40565b91505092915050565b611ec081611a7c565b8114611ecb57600080fd5b50565b600081359050611edd81611eb7565b92915050565b60008060408385031215611efa57611ef96119ed565b5b6000611f0885828601611c3a565b9250506020611f1985828601611ece565b9150509250929050565b600067ffffffffffffffff821115611f3e57611f3d611d43565b5b611f4782611af8565b9050602081019050919050565b6000611f67611f6284611f23565b611da3565b905082815260208101848484011115611f8357611f82611d3e565b5b611f8e848285611def565b509392505050565b600082601f830112611fab57611faa611d39565b5b8135611fbb848260208601611f54565b91505092915050565b60008060008060808587031215611fde57611fdd6119ed565b5b6000611fec87828801611c3a565b9450506020611ffd87828801611c3a565b935050604061200e87828801611b85565b925050606085013567ffffffffffffffff81111561202f5761202e6119f2565b5b61203b87828801611f96565b91505092959194509250565b6000806040838503121561205e5761205d6119ed565b5b600061206c85828601611c3a565b925050602061207d85828601611c3a565b9150509250929050565b6000806040838503121561209e5761209d6119ed565b5b60006120ac85828601611c3a565b925050602083013567ffffffffffffffff8111156120cd576120cc6119f2565b5b6120d985828601611e40565b9150509250929050565b7f4e487b7100000000000000000000000000000000000000000000000000000000600052602260045260246000fd5b6000600282049050600182168061212a57607f821691505b60208210810361213d5761213c6120e3565b5b50919050565b60006060820190506121586000830186611bf9565b6121656020830185611d0f565b6121726040830184611bf9565b949350505050565b60008190508160005260206000209050919050565b60006020601f8301049050919050565b600082821b905092915050565b6000600883026121dc7fffffffffffffffffffffffffffffffffffffffffffffffffffffffffffffffff8261219f565b6121e6868361219f565b95508019841693508086168417925050509392505050565b6000819050919050565b600061222361221e61221984611b64565b6121fe565b611b64565b9050919050565b6000819050919050565b61223d83612208565b6122516122498261222a565b8484546121ac565b825550505050565b600090565b612266612259565b612271818484612234565b505050565b5b818110156122955761228a60008261225e565b600181019050612277565b5050565b601f8211156122da576122ab8161217a565b6122b48461218f565b810160208510156122c3578190505b6122d76122cf8561218f565b830182612276565b50505b505050565b600082821c905092915050565b60006122fd600019846008026122df565b1980831691505092915050565b600061231683836122ec565b9150826002028217905092915050565b61232f82611ab2565b67ffffffffffffffff81111561234857612347611d43565b5b6123528254612112565b61235d828285612299565b600060209050601f831160018114612390576000841561237e578287015190505b612388858261230a565b8655506123f0565b601f19841661239e8661217a565b60005b828110156123c6578489015182556001820191506020850194506020810190506123a1565b868310156123e357848901516123df601f8916826122ec565b8355505b6001600288020188555050505b505050505050565b600081905092915050565b600061240e82611ab2565b61241881856123f8565b9350612428818560208601611ace565b80840191505092915050565b60006124408285612403565b915061244c8284612403565b91508190509392505050565b7f4e487b7100000000000000000000000000000000000000000000000000000000600052601160045260246000fd5b600061249282611b64565b915061249d83611b64565b92508282019050808211156124b5576124b4612458565b5b92915050565b600081519050919050565b600082825260208201905092915050565b60006124e2826124bb565b6124ec81856124c6565b93506124fc818560208601611ace565b61250581611af8565b840191505092915050565b60006080820190506125256000830187611bf9565b6125326020830186611bf9565b61253f6040830185611d0f565b818103606083015261255181846124d7565b905095945050505050565b60008151905061256b81611a23565b92915050565b600060208284031215612587576125866119ed565b5b60006125958482850161255c565b91505092915050565b7f4e487b7100000000000000000000000000000000000000000000000000000000600052601260045260246000fd5b60006040820190506125e26000830185611bf9565b6125ef6020830184611d0f565b939250505056fea2646970667358221220a43b809ca63bcac3cb50d2374108d85e569c372af0b1e54380e833e9b8171cc564736f6c634300081b0033",
  "linkReferences": {},
  "deployedLinkReferences": {}
}