{
  "_format": "hh-sol-artifact-1",
  "contractName": "Pixel",
  "sourceName": "contracts/NFT.sol",
  "abi": [
    {
      "inputs": [],
      "stateMutability": "nonpayable",
      "type": "constructor"
    },
    {
      "anonymous": false,
      "inputs": [
        {
          "indexed": true,
          "internalType": "address",
          "name": "owner",
          "type": "address"
        },
        {
          "indexed": true,
          "internalType": "address",
          "name": "approved",
          "type": "address"
        },
        {
          "indexed": true,
          "internalType": "uint256",
          "name": "tokenId",
          "type": "uint256"
        }
      ],
      "name": "Approval",
      "type": "event"
    },
    {
      "anonymous": false,
      "inputs": [
        {
          "indexed": true,
          "internalType": "address",
          "name": "owner",
          "type": "address"
        },
        {
          "indexed": true,
          "internalType": "address",
          "name": "operator",
          "type": "address"
        },
        {
          "indexed": false,
          "internalType": "bool",
          "name": "approved",
          "type": "bool"
        }
      ],
      "name": "ApprovalForAll",
      "type": "event"
    },
    {
      "anonymous": false,
      "inputs": [
        {
          "indexed": true,
          "internalType": "address",
          "name": "previousOwner",
          "type": "address"
        },
        {
          "indexed": true,
          "internalType": "address",
          "name": "newOwner",
          "type": "address"
        }
      ],
      "name": "OwnershipTransferred",
      "type": "event"
    },
    {
      "anonymous": false,
      "inputs": [
        {
          "indexed": true,
          "internalType": "address",
          "name": "from",
          "type": "address"
        },
        {
          "indexed": true,
          "internalType": "address",
          "name": "to",
          "type": "address"
        },
        {
          "indexed": true,
          "internalType": "uint256",
          "name": "tokenId",
          "type": "uint256"
        }
      ],
      "name": "Transfer",
      "type": "event"
    },
    {
      "inputs": [
        {
          "internalType": "address",
          "name": "to",
          "type": "address"
        },
        {
          "internalType": "uint256",
          "name": "tokenId",
          "type": "uint256"
        }
      ],
      "name": "approve",
      "outputs": [],
      "stateMutability": "nonpayable",
      "type": "function"
    },
    {
      "inputs": [
        {
          "internalType": "address",
          "name": "owner",
          "type": "address"
        }
      ],
      "name": "balanceOf",
      "outputs": [
        {
          "internalType": "uint256",
          "name": "",
          "type": "uint256"
        }
      ],
      "stateMutability": "view",
      "type": "function"
    },
    {
      "inputs": [
        {
          "internalType": "uint256",
          "name": "tokenId",
          "type": "uint256"
        }
      ],
      "name": "getApproved",
      "outputs": [
        {
          "internalType": "address",
          "name": "",
          "type": "address"
        }
      ],
      "stateMutability": "view",
      "type": "function"
    },
    {
      "inputs": [
        {
          "internalType": "address",
          "name": "owner",
          "type": "address"
        },
        {
          "internalType": "address",
          "name": "operator",
          "type": "address"
        }
      ],
      "name": "isApprovedForAll",
      "outputs": [
        {
          "internalType": "bool",
          "name": "",
          "type": "bool"
        }
      ],
      "stateMutability": "view",
      "type": "function"
    },
    {
      "inputs": [
        {
          "internalType": "address",
          "name": "recipient",
          "type": "address"
        },
        {
          "internalType": "string",
          "name": "_tokenURI",
          "type": "string"
        }
      ],
      "name": "mintNFT",
      "outputs": [
        {
          "internalType": "uint256",
          "name": "",
          "type": "uint256"
        }
      ],
      "stateMutability": "nonpayable",
      "type": "function"
    },
    {
      "inputs": [],
      "name": "name",
      "outputs": [
        {
          "internalType": "string",
          "name": "",
          "type": "string"
        }
      ],
      "stateMutability": "view",
      "type": "function"
    },
    {
      "inputs": [],
      "name": "owner",
      "outputs": [
        {
          "internalType": "address",
          "name": "",
          "type": "address"
        }
      ],
      "stateMutability": "view",
      "type": "function"
    },
    {
      "inputs": [
        {
          "internalType": "uint256",
          "name": "tokenId",
          "type": "uint256"
        }
      ],
      "name": "ownerOf",
      "outputs": [
        {
          "internalType": "address",
          "name": "",
          "type": "address"
        }
      ],
      "stateMutability": "view",
      "type": "function"
    },
    {
      "inputs": [],
      "name": "renounceOwnership",
      "outputs": [],
      "stateMutability": "nonpayable",
      "type": "function"
    },
    {
      "inputs": [
        {
          "internalType": "address",
          "name": "from",
          "type": "address"
        },
        {
          "internalType": "address",
          "name": "to",
          "type": "address"
        },
        {
          "internalType": "uint256",
          "name": "tokenId",
          "type": "uint256"
        }
      ],
      "name": "safeTransferFrom",
      "outputs": [],
      "stateMutability": "nonpayable",
      "type": "function"
    },
    {
      "inputs": [
        {
          "internalType": "address",
          "name": "from",
          "type": "address"
        },
        {
          "internalType": "address",
          "name": "to",
          "type": "address"
        },
        {
          "internalType": "uint256",
          "name": "tokenId",
          "type": "uint256"
        },
        {
          "internalType": "bytes",
          "name": "_data",
          "type": "bytes"
        }
      ],
      "name": "safeTransferFrom",
      "outputs": [],
      "stateMutability": "nonpayable",
      "type": "function"
    },
    {
      "inputs": [
        {
          "internalType": "address",
          "name": "operator",
          "type": "address"
        },
        {
          "internalType": "bool",
          "name": "approved",
          "type": "bool"
        }
      ],
      "name": "setApprovalForAll",
      "outputs": [],
      "stateMutability": "nonpayable",
      "type": "function"
    },
    {
      "inputs": [
        {
          "internalType": "string",
          "name": "baseUri",
          "type": "string"
        }
      ],
      "name": "setBaseUri",
      "outputs": [],
      "stateMutability": "nonpayable",
      "type": "function"
    },
    {
      "inputs": [
        {
          "internalType": "bytes4",
          "name": "interfaceId",
          "type": "bytes4"
        }
      ],
      "name": "supportsInterface",
      "outputs": [
        {
          "internalType": "bool",
          "name": "",
          "type": "bool"
        }
      ],
      "stateMutability": "view",
      "type": "function"
    },
    {
      "inputs": [],
      "name": "symbol",
      "outputs": [
        {
          "internalType": "string",
          "name": "",
          "type": "string"
        }
      ],
      "stateMutability": "view",
      "type": "function"
    },
    {
      "inputs": [
        {
          "internalType": "uint256",
          "name": "tokenId",
          "type": "uint256"
        }
      ],
      "name": "tokenURI",
      "outputs": [
        {
          "internalType": "string",
          "name": "",
          "type": "string"
        }
      ],
      "stateMutability": "view",
      "type": "function"
    },
    {
      "inputs": [
        {
          "internalType": "address",
          "name": "from",
          "type": "address"
        },
        {
          "internalType": "address",
          "name": "to",
          "type": "address"
        },
        {
          "internalType": "uint256",
          "name": "tokenId",
          "type": "uint256"
        }
      ],
      "name": "transferFrom",
      "outputs": [],
      "stateMutability": "nonpayable",
      "type": "function"
    },
    {
      "inputs": [
        {
          "internalType": "address",
          "name": "newOwner",
          "type": "address"
        }
      ],
      "name": "transferOwnership",
      "outputs": [],
      "stateMutability": "nonpayable",
      "type": "function"
    }
  ],
  "bytecode": "0x608060405234801561001057600080fd5b506040518060400160405280600581526020017f506978656c0000000000000000000000000000000000000000000000000000008152506040518060400160405280600581526020017f506978656c000000000000000000000000000000000000000000000000000000815250816000908161008c91906103ab565b50806001908161009c91906103ab565b50505060006100af61015360201b60201c565b905080600660006101000a81548173ffffffffffffffffffffffffffffffffffffffff021916908373ffffffffffffffffffffffffffffffffffffffff1602179055508073ffffffffffffffffffffffffffffffffffffffff16600073ffffffffffffffffffffffffffffffffffffffff167f8be0079c531659141344cd1fd0a4f28419497f9722a3daafe3b4186f6b6457e060405160405180910390a35061047d565b600033905090565b600081519050919050565b7f4e487b7100000000000000000000000000000000000000000000000000000000600052604160045260246000fd5b7f4e487b7100000000000000000000000000000000000000000000000000000000600052602260045260246000fd5b600060028204905060018216806101dc57607f821691505b6020821081036101ef576101ee610195565b5b50919050565b60008190508160005260206000209050919050565b60006020601f8301049050919050565b600082821b905092915050565b6000600883026102577fffffffffffffffffffffffffffffffffffffffffffffffffffffffffffffffff8261021a565b610261868361021a565b95508019841693508086168417925050509392505050565b6000819050919050565b6000819050919050565b60006102a86102a361029e84610279565b610283565b610279565b9050919050565b6000819050919050565b6102c28361028d565b6102d66102ce826102af565b848454610227565b825550505050565b600090565b6102eb6102de565b6102f68184846102b9565b505050565b5b8181101561031a5761030f6000826102e3565b6001810190506102fc565b5050565b601f82111561035f57610330816101f5565b6103398461020a565b81016020851015610348578190505b61035c6103548561020a565b8301826102fb565b50505b505050565b600082821c905092915050565b600061038260001984600802610364565b1980831691505092915050565b600061039b8383610371565b9150826002028217905092915050565b6103b48261015b565b67ffffffffffffffff8111156103cd576103cc610166565b5b6103d782546101c4565b6103e282828561031e565b600060209050601f8311600181146104155760008415610403578287015190505b61040d858261038f565b865550610475565b601f198416610423866101f5565b60005b8281101561044b57848901518255600182019150602085019450602081019050610426565b868310156104685784890151610464601f891682610371565b8355505b6001600288020188555050505b505050505050565b61320a8061048c6000396000f3fe608060405234801561001057600080fd5b50600436106101165760003560e01c80638da5cb5b116100a2578063b88d4fde11610071578063b88d4fde146102cb578063c87b56dd146102e7578063e985e9c514610317578063eacabe1414610347578063f2fde38b1461037757610116565b80638da5cb5b1461025757806395d89b4114610275578063a0bcfc7f14610293578063a22cb465146102af57610116565b806323b872dd116100e957806323b872dd146101b557806342842e0e146101d15780636352211e146101ed57806370a082311461021d578063715018a61461024d57610116565b806301ffc9a71461011b57806306fdde031461014b578063081812fc14610169578063095ea7b314610199575b600080fd5b61013560048036038101906101309190611c66565b610393565b6040516101429190611cae565b60405180910390f35b610153610475565b6040516101609190611d59565b60405180910390f35b610183600480360381019061017e9190611db1565b610507565b6040516101909190611e1f565b60405180910390f35b6101b360048036038101906101ae9190611e66565b61058c565b005b6101cf60048036038101906101ca9190611ea6565b6106a3565b005b6101eb60048036038101906101e69190611ea6565b610703565b005b61020760048036038101906102029190611db1565b610723565b6040516102149190611e1f565b60405180910390f35b61023760048036038101906102329190611ef9565b6107d4565b6040516102449190611f35565b60405180910390f35b61025561088b565b005b61025f6109c8565b60405161026c9190611e1f565b60405180910390f35b61027d6109f2565b60405161028a9190611d59565b60405180910390f35b6102ad60048036038101906102a89190612085565b610a84565b005b6102c960048036038101906102c491906120fa565b610b13565b005b6102e560048036038101906102e091906121db565b610c93565b005b61030160048036038101906102fc9190611db1565b610cf5565b60405161030e9190611d59565b60405180910390f35b610331600480360381019061032c919061225e565b610e67565b60405161033e9190611cae565b60405180910390f35b610361600480360381019061035c919061229e565b610efb565b60405161036e9190611f35565b60405180910390f35b610391600480360381019061038c9190611ef9565b610faf565b005b60007f80ac58cd000000000000000000000000000000000000000000000000000000007bffffffffffffffffffffffffffffffffffffffffffffffffffffffff1916827bffffffffffffffffffffffffffffffffffffffffffffffffffffffff1916148061045e57507f5b5e139f000000000000000000000000000000000000000000000000000000007bffffffffffffffffffffffffffffffffffffffffffffffffffffffff1916827bffffffffffffffffffffffffffffffffffffffffffffffffffffffff1916145b8061046e575061046d8261115a565b5b9050919050565b60606000805461048490612329565b80601f01602080910402602001604051908101604052809291908181526020018280546104b090612329565b80156104fd5780601f106104d2576101008083540402835291602001916104fd565b820191906000526020600020905b8154815290600101906020018083116104e057829003601f168201915b5050505050905090565b6000610512826111c4565b610551576040517f08c379a0000000000000000000000000000000000000000000000000000000008152600401610548906123cc565b60405180910390fd5b6004600083815260200190815260200160002060009054906101000a900473ffffffffffffffffffffffffffffffffffffffff169050919050565b600061059782610723565b90508073ffffffffffffffffffffffffffffffffffffffff168373ffffffffffffffffffffffffffffffffffffffff1603610607576040517f08c379a00000000000000000000000000000000000000000000000000000000081526004016105fe9061245e565b60405180910390fd5b8073ffffffffffffffffffffffffffffffffffffffff16610626611230565b73ffffffffffffffffffffffffffffffffffffffff16148061065557506106548161064f611230565b610e67565b5b610694576040517f08c379a000000000000000000000000000000000000000000000000000000000815260040161068b906124f0565b60405180910390fd5b61069e8383611238565b505050565b6106b46106ae611230565b826112f1565b6106f3576040517f08c379a00000000000000000000000000000000000000000000000000000000081526004016106ea90612582565b60405180910390fd5b6106fe8383836113cf565b505050565b61071e83838360405180602001604052806000815250610c93565b505050565b6000806002600084815260200190815260200160002060009054906101000a900473ffffffffffffffffffffffffffffffffffffffff169050600073ffffffffffffffffffffffffffffffffffffffff168173ffffffffffffffffffffffffffffffffffffffff16036107cb576040517f08c379a00000000000000000000000000000000000000000000000000000000081526004016107c290612614565b60405180910390fd5b80915050919050565b60008073ffffffffffffffffffffffffffffffffffffffff168273ffffffffffffffffffffffffffffffffffffffff1603610844576040517f08c379a000000000000000000000000000000000000000000000000000000000815260040161083b906126a6565b60405180910390fd5b600360008373ffffffffffffffffffffffffffffffffffffffff1673ffffffffffffffffffffffffffffffffffffffff168152602001908152602001600020549050919050565b610893611230565b73ffffffffffffffffffffffffffffffffffffffff166108b16109c8565b73ffffffffffffffffffffffffffffffffffffffff1614610907576040517f08c379a00000000000000000000000000000000000000000000000000000000081526004016108fe90612712565b60405180910390fd5b600073ffffffffffffffffffffffffffffffffffffffff16600660009054906101000a900473ffffffffffffffffffffffffffffffffffffffff1673ffffffffffffffffffffffffffffffffffffffff167f8be0079c531659141344cd1fd0a4f28419497f9722a3daafe3b4186f6b6457e060405160405180910390a36000600660006101000a81548173ffffffffffffffffffffffffffffffffffffffff021916908373ffffffffffffffffffffffffffffffffffffffff160217905550565b6000600660009054906101000a900473ffffffffffffffffffffffffffffffffffffffff16905090565b606060018054610a0190612329565b80601f0160208091040260200160405190810160405280929190818152602001828054610a2d90612329565b8015610a7a5780601f10610a4f57610100808354040283529160200191610a7a565b820191906000526020600020905b815481529060010190602001808311610a5d57829003601f168201915b5050505050905090565b610a8c611230565b73ffffffffffffffffffffffffffffffffffffffff16610aaa6109c8565b73ffffffffffffffffffffffffffffffffffffffff1614610b00576040517f08c379a0000000000000000000000000000000000000000000000000000000008152600401610af790612712565b60405180910390fd5b8060099081610b0f91906128de565b5050565b610b1b611230565b73ffffffffffffffffffffffffffffffffffffffff168273ffffffffffffffffffffffffffffffffffffffff1603610b88576040517f08c379a0000000000000000000000000000000000000000000000000000000008152600401610b7f906129fc565b60405180910390fd5b8060056000610b95611230565b73ffffffffffffffffffffffffffffffffffffffff1673ffffffffffffffffffffffffffffffffffffffff16815260200190815260200160002060008473ffffffffffffffffffffffffffffffffffffffff1673ffffffffffffffffffffffffffffffffffffffff16815260200190815260200160002060006101000a81548160ff0219169083151502179055508173ffffffffffffffffffffffffffffffffffffffff16610c42611230565b73ffffffffffffffffffffffffffffffffffffffff167f17307eab39ab6107e8899845ad3d59bd9653f200f220920489ca2b5937696c3183604051610c879190611cae565b60405180910390a35050565b610ca4610c9e611230565b836112f1565b610ce3576040517f08c379a0000000000000000000000000000000000000000000000000000000008152600401610cda90612582565b60405180910390fd5b610cef8484848461162a565b50505050565b6060610d00826111c4565b610d3f576040517f08c379a0000000000000000000000000000000000000000000000000000000008152600401610d3690612a8e565b60405180910390fd5b6000600860008481526020019081526020016000208054610d5f90612329565b80601f0160208091040260200160405190810160405280929190818152602001828054610d8b90612329565b8015610dd85780601f10610dad57610100808354040283529160200191610dd8565b820191906000526020600020905b815481529060010190602001808311610dbb57829003601f168201915b505050505090506000610de9611686565b90506000815103610dfe578192505050610e62565b600082511115610e33578082604051602001610e1b929190612aea565b60405160208183030381529060405292505050610e62565b80610e3d8561169d565b604051602001610e4e929190612aea565b604051602081830303815290604052925050505b919050565b6000600560008473ffffffffffffffffffffffffffffffffffffffff1673ffffffffffffffffffffffffffffffffffffffff16815260200190815260200160002060008373ffffffffffffffffffffffffffffffffffffffff1673ffffffffffffffffffffffffffffffffffffffff16815260200190815260200160002060009054906101000a900460ff16905092915050565b6000610f05611230565b73ffffffffffffffffffffffffffffffffffffffff16610f236109c8565b73ffffffffffffffffffffffffffffffffffffffff1614610f79576040517f08c379a0000000000000000000000000000000000000000000000000000000008152600401610f7090612712565b60405180910390fd5b610f8360076117fd565b6000610f8f6007611813565b9050610f9b8482611821565b610fa581846119ee565b8091505092915050565b610fb7611230565b73ffffffffffffffffffffffffffffffffffffffff16610fd56109c8565b73ffffffffffffffffffffffffffffffffffffffff161461102b576040517f08c379a000000000000000000000000000000000000000000000000000000000815260040161102290612712565b60405180910390fd5b600073ffffffffffffffffffffffffffffffffffffffff168173ffffffffffffffffffffffffffffffffffffffff160361109a576040517f08c379a000000000000000000000000000000000000000000000000000000000815260040161109190612b80565b60405180910390fd5b8073ffffffffffffffffffffffffffffffffffffffff16600660009054906101000a900473ffffffffffffffffffffffffffffffffffffffff1673ffffffffffffffffffffffffffffffffffffffff167f8be0079c531659141344cd1fd0a4f28419497f9722a3daafe3b4186f6b6457e060405160405180910390a380600660006101000a81548173ffffffffffffffffffffffffffffffffffffffff021916908373ffffffffffffffffffffffffffffffffffffffff16021790555050565b60007f01ffc9a7000000000000000000000000000000000000000000000000000000007bffffffffffffffffffffffffffffffffffffffffffffffffffffffff1916827bffffffffffffffffffffffffffffffffffffffffffffffffffffffff1916149050919050565b60008073ffffffffffffffffffffffffffffffffffffffff166002600084815260200190815260200160002060009054906101000a900473ffffffffffffffffffffffffffffffffffffffff1673ffffffffffffffffffffffffffffffffffffffff1614159050919050565b600033905090565b816004600083815260200190815260200160002060006101000a81548173ffffffffffffffffffffffffffffffffffffffff021916908373ffffffffffffffffffffffffffffffffffffffff160217905550808273ffffffffffffffffffffffffffffffffffffffff166112ab83610723565b73ffffffffffffffffffffffffffffffffffffffff167f8c5be1e5ebec7d5bd14f71427d1e84f3dd0314c0f7b2291e5b200ac8c7c3b92560405160405180910390a45050565b60006112fc826111c4565b61133b576040517f08c379a000000000000000000000000000000000000000000000000000000000815260040161133290612c12565b60405180910390fd5b600061134683610723565b90508073ffffffffffffffffffffffffffffffffffffffff168473ffffffffffffffffffffffffffffffffffffffff1614806113b557508373ffffffffffffffffffffffffffffffffffffffff1661139d84610507565b73ffffffffffffffffffffffffffffffffffffffff16145b806113c657506113c58185610e67565b5b91505092915050565b8273ffffffffffffffffffffffffffffffffffffffff166113ef82610723565b73ffffffffffffffffffffffffffffffffffffffff1614611445576040517f08c379a000000000000000000000000000000000000000000000000000000000815260040161143c90612ca4565b60405180910390fd5b600073ffffffffffffffffffffffffffffffffffffffff168273ffffffffffffffffffffffffffffffffffffffff16036114b4576040517f08c379a00000000000000000000000000000000000000000000000000000000081526004016114ab90612d36565b60405180910390fd5b6114bf838383611a5b565b6114ca600082611238565b6001600360008573ffffffffffffffffffffffffffffffffffffffff1673ffffffffffffffffffffffffffffffffffffffff168152602001908152602001600020600082825461151a9190612d85565b925050819055506001600360008473ffffffffffffffffffffffffffffffffffffffff1673ffffffffffffffffffffffffffffffffffffffff16815260200190815260200160002060008282546115719190612db9565b92505081905550816002600083815260200190815260200160002060006101000a81548173ffffffffffffffffffffffffffffffffffffffff021916908373ffffffffffffffffffffffffffffffffffffffff160217905550808273ffffffffffffffffffffffffffffffffffffffff168473ffffffffffffffffffffffffffffffffffffffff167fddf252ad1be2c89b69c2b068fc378daa952ba7f163c4a11628f55a4df523b3ef60405160405180910390a4505050565b6116358484846113cf565b61164184848484611a60565b611680576040517f08c379a000000000000000000000000000000000000000000000000000000000815260040161167790612e5f565b60405180910390fd5b50505050565b606060405180602001604052806000815250905090565b6060600082036116e4576040518060400160405280600181526020017f300000000000000000000000000000000000000000000000000000000000000081525090506117f8565b600082905060005b600082146117165780806116ff90612e7f565b915050600a8261170f9190612ef6565b91506116ec565b60008167ffffffffffffffff81111561173257611731611f5a565b5b6040519080825280601f01601f1916602001820160405280156117645781602001600182028036833780820191505090505b5090505b600085146117f15760018261177d9190612d85565b9150600a8561178c9190612f27565b60306117989190612db9565b60f81b8183815181106117ae576117ad612f58565b5b60200101907effffffffffffffffffffffffffffffffffffffffffffffffffffffffffffff1916908160001a905350600a856117ea9190612ef6565b9450611768565b8093505050505b919050565b6001816000016000828254019250508190555050565b600081600001549050919050565b600073ffffffffffffffffffffffffffffffffffffffff168273ffffffffffffffffffffffffffffffffffffffff1603611890576040517f08c379a000000000000000000000000000000000000000000000000000000000815260040161188790612fd3565b60405180910390fd5b611899816111c4565b156118d9576040517f08c379a00000000000000000000000000000000000000000000000000000000081526004016118d09061303f565b60405180910390fd5b6118e560008383611a5b565b6001600360008473ffffffffffffffffffffffffffffffffffffffff1673ffffffffffffffffffffffffffffffffffffffff16815260200190815260200160002060008282546119359190612db9565b92505081905550816002600083815260200190815260200160002060006101000a81548173ffffffffffffffffffffffffffffffffffffffff021916908373ffffffffffffffffffffffffffffffffffffffff160217905550808273ffffffffffffffffffffffffffffffffffffffff16600073ffffffffffffffffffffffffffffffffffffffff167fddf252ad1be2c89b69c2b068fc378daa952ba7f163c4a11628f55a4df523b3ef60405160405180910390a45050565b6119f7826111c4565b611a36576040517f08c379a0000000000000000000000000000000000000000000000000000000008152600401611a2d906130d1565b60405180910390fd5b80600860008481526020019081526020016000209081611a5691906128de565b505050565b505050565b6000611a818473ffffffffffffffffffffffffffffffffffffffff16611be7565b15611bda578373ffffffffffffffffffffffffffffffffffffffff1663150b7a02611aaa611230565b8786866040518563ffffffff1660e01b8152600401611acc9493929190613146565b6020604051808303816000875af1925050508015611b0857506040513d601f19601f82011682018060405250810190611b0591906131a7565b60015b611b8a573d8060008114611b38576040519150601f19603f3d011682016040523d82523d6000602084013e611b3d565b606091505b506000815103611b82576040517f08c379a0000000000000000000000000000000000000000000000000000000008152600401611b7990612e5f565b60405180910390fd5b805181602001fd5b63150b7a0260e01b7bffffffffffffffffffffffffffffffffffffffffffffffffffffffff1916817bffffffffffffffffffffffffffffffffffffffffffffffffffffffff191614915050611bdf565b600190505b949350505050565b600080823b905060008111915050919050565b6000604051905090565b600080fd5b600080fd5b60007fffffffff0000000000000000000000000000000000000000000000000000000082169050919050565b611c4381611c0e565b8114611c4e57600080fd5b50565b600081359050611c6081611c3a565b92915050565b600060208284031215611c7c57611c7b611c04565b5b6000611c8a84828501611c51565b91505092915050565b60008115159050919050565b611ca881611c93565b82525050565b6000602082019050611cc36000830184611c9f565b92915050565b600081519050919050565b600082825260208201905092915050565b60005b83811015611d03578082015181840152602081019050611ce8565b60008484015250505050565b6000601f19601f8301169050919050565b6000611d2b82611cc9565b611d358185611cd4565b9350611d45818560208601611ce5565b611d4e81611d0f565b840191505092915050565b60006020820190508181036000830152611d738184611d20565b905092915050565b6000819050919050565b611d8e81611d7b565b8114611d9957600080fd5b50565b600081359050611dab81611d85565b92915050565b600060208284031215611dc757611dc6611c04565b5b6000611dd584828501611d9c565b91505092915050565b600073ffffffffffffffffffffffffffffffffffffffff82169050919050565b6000611e0982611dde565b9050919050565b611e1981611dfe565b82525050565b6000602082019050611e346000830184611e10565b92915050565b611e4381611dfe565b8114611e4e57600080fd5b50565b600081359050611e6081611e3a565b92915050565b60008060408385031215611e7d57611e7c611c04565b5b6000611e8b85828601611e51565b9250506020611e9c85828601611d9c565b9150509250929050565b600080600060608486031215611ebf57611ebe611c04565b5b6000611ecd86828701611e51565b9350506020611ede86828701611e51565b9250506040611eef86828701611d9c565b9150509250925092565b600060208284031215611f0f57611f0e611c04565b5b6000611f1d84828501611e51565b91505092915050565b611f2f81611d7b565b82525050565b6000602082019050611f4a6000830184611f26565b92915050565b600080fd5b600080fd5b7f4e487b7100000000000000000000000000000000000000000000000000000000600052604160045260246000fd5b611f9282611d0f565b810181811067ffffffffffffffff82111715611fb157611fb0611f5a565b5b80604052505050565b6000611fc4611bfa565b9050611fd08282611f89565b919050565b600067ffffffffffffffff821115611ff057611fef611f5a565b5b611ff982611d0f565b9050602081019050919050565b82818337600083830152505050565b600061202861202384611fd5565b611fba565b90508281526020810184848401111561204457612043611f55565b5b61204f848285612006565b509392505050565b600082601f83011261206c5761206b611f50565b5b813561207c848260208601612015565b91505092915050565b60006020828403121561209b5761209a611c04565b5b600082013567ffffffffffffffff8111156120b9576120b8611c09565b5b6120c584828501612057565b91505092915050565b6120d781611c93565b81146120e257600080fd5b50565b6000813590506120f4816120ce565b92915050565b6000806040838503121561211157612110611c04565b5b600061211f85828601611e51565b9250506020612130858286016120e5565b9150509250929050565b600067ffffffffffffffff82111561215557612154611f5a565b5b61215e82611d0f565b9050602081019050919050565b600061217e6121798461213a565b611fba565b90508281526020810184848401111561219a57612199611f55565b5b6121a5848285612006565b509392505050565b600082601f8301126121c2576121c1611f50565b5b81356121d284826020860161216b565b91505092915050565b600080600080608085870312156121f5576121f4611c04565b5b600061220387828801611e51565b945050602061221487828801611e51565b935050604061222587828801611d9c565b925050606085013567ffffffffffffffff81111561224657612245611c09565b5b612252878288016121ad565b91505092959194509250565b6000806040838503121561227557612274611c04565b5b600061228385828601611e51565b925050602061229485828601611e51565b9150509250929050565b600080604083850312156122b5576122b4611c04565b5b60006122c385828601611e51565b925050602083013567ffffffffffffffff8111156122e4576122e3611c09565b5b6122f085828601612057565b9150509250929050565b7f4e487b7100000000000000000000000000000000000000000000000000000000600052602260045260246000fd5b6000600282049050600182168061234157607f821691505b602082108103612354576123536122fa565b5b50919050565b7f4552433732313a20617070726f76656420717565727920666f72206e6f6e657860008201527f697374656e7420746f6b656e0000000000000000000000000000000000000000602082015250565b60006123b6602c83611cd4565b91506123c18261235a565b604082019050919050565b600060208201905081810360008301526123e5816123a9565b9050919050565b7f4552433732313a20617070726f76616c20746f2063757272656e74206f776e6560008201527f7200000000000000000000000000000000000000000000000000000000000000602082015250565b6000612448602183611cd4565b9150612453826123ec565b604082019050919050565b600060208201905081810360008301526124778161243b565b9050919050565b7f4552433732313a20617070726f76652063616c6c6572206973206e6f74206f7760008201527f6e6572206e6f7220617070726f76656420666f7220616c6c0000000000000000602082015250565b60006124da603883611cd4565b91506124e58261247e565b604082019050919050565b60006020820190508181036000830152612509816124cd565b9050919050565b7f4552433732313a207472616e736665722063616c6c6572206973206e6f74206f60008201527f776e6572206e6f7220617070726f766564000000000000000000000000000000602082015250565b600061256c603183611cd4565b915061257782612510565b604082019050919050565b6000602082019050818103600083015261259b8161255f565b9050919050565b7f4552433732313a206f776e657220717565727920666f72206e6f6e657869737460008201527f656e7420746f6b656e0000000000000000000000000000000000000000000000602082015250565b60006125fe602983611cd4565b9150612609826125a2565b604082019050919050565b6000602082019050818103600083015261262d816125f1565b9050919050565b7f4552433732313a2062616c616e636520717565727920666f7220746865207a6560008201527f726f206164647265737300000000000000000000000000000000000000000000602082015250565b6000612690602a83611cd4565b915061269b82612634565b604082019050919050565b600060208201905081810360008301526126bf81612683565b9050919050565b7f4f776e61626c653a2063616c6c6572206973206e6f7420746865206f776e6572600082015250565b60006126fc602083611cd4565b9150612707826126c6565b602082019050919050565b6000602082019050818103600083015261272b816126ef565b9050919050565b60008190508160005260206000209050919050565b60006020601f8301049050919050565b600082821b905092915050565b6000600883026127947fffffffffffffffffffffffffffffffffffffffffffffffffffffffffffffffff82612757565b61279e8683612757565b95508019841693508086168417925050509392505050565b6000819050919050565b60006127db6127d66127d184611d7b565b6127b6565b611d7b565b9050919050565b6000819050919050565b6127f5836127c0565b612809612801826127e2565b848454612764565b825550505050565b600090565b61281e612811565b6128298184846127ec565b505050565b5b8181101561284d57612842600082612816565b60018101905061282f565b5050565b601f8211156128925761286381612732565b61286c84612747565b8101602085101561287b578190505b61288f61288785612747565b83018261282e565b50505b505050565b600082821c905092915050565b60006128b560001984600802612897565b1980831691505092915050565b60006128ce83836128a4565b9150826002028217905092915050565b6128e782611cc9565b67ffffffffffffffff811115612900576128ff611f5a565b5b61290a8254612329565b612915828285612851565b600060209050601f8311600181146129485760008415612936578287015190505b61294085826128c2565b8655506129a8565b601f19841661295686612732565b60005b8281101561297e57848901518255600182019150602085019450602081019050612959565b8683101561299b5784890151612997601f8916826128a4565b8355505b6001600288020188555050505b505050505050565b7f4552433732313a20617070726f766520746f2063616c6c657200000000000000600082015250565b60006129e6601983611cd4565b91506129f1826129b0565b602082019050919050565b60006020820190508181036000830152612a15816129d9565b9050919050565b7f4552433732314d657461646174613a2055524920717565727920666f72206e6f60008201527f6e6578697374656e20746f6b656e000000000000000000000000000000000000602082015250565b6000612a78602e83611cd4565b9150612a8382612a1c565b604082019050919050565b60006020820190508181036000830152612aa781612a6b565b9050919050565b600081905092915050565b6000612ac482611cc9565b612ace8185612aae565b9350612ade818560208601611ce5565b80840191505092915050565b6000612af68285612ab9565b9150612b028284612ab9565b91508190509392505050565b7f4f776e61626c653a206e6577206f776e657220697320746865207a65726f206160008201527f6464726573730000000000000000000000000000000000000000000000000000602082015250565b6000612b6a602683611cd4565b9150612b7582612b0e565b604082019050919050565b60006020820190508181036000830152612b9981612b5d565b9050919050565b7f4552433732313a206f70657261746f7220717565727920666f72206e6f6e657860008201527f697374656e7420746f6b656e0000000000000000000000000000000000000000602082015250565b6000612bfc602c83611cd4565b9150612c0782612ba0565b604082019050919050565b60006020820190508181036000830152612c2b81612bef565b9050919050565b7f4552433732313a207472616e73666572206f6620746f6b656e2074686174206960008201527f73206e6f74206f776e0000000000000000000000000000000000000000000000602082015250565b6000612c8e602983611cd4565b9150612c9982612c32565b604082019050919050565b60006020820190508181036000830152612cbd81612c81565b9050919050565b7f4552433732313a207472616e7366657220746f20746865207a65726f2061646460008201527f7265737300000000000000000000000000000000000000000000000000000000602082015250565b6000612d20602483611cd4565b9150612d2b82612cc4565b604082019050919050565b60006020820190508181036000830152612d4f81612d13565b9050919050565b7f4e487b7100000000000000000000000000000000000000000000000000000000600052601160045260246000fd5b6000612d9082611d7b565b9150612d9b83611d7b565b9250828203905081811115612db357612db2612d56565b5b92915050565b6000612dc482611d7b565b9150612dcf83611d7b565b9250828201905080821115612de757612de6612d56565b5b92915050565b7f4552433732313a207472616e7366657220746f206e6f6e20455243373231526560008201527f63656976657220696d706c656d656e7465720000000000000000000000000000602082015250565b6000612e49603283611cd4565b9150612e5482612ded565b604082019050919050565b60006020820190508181036000830152612e7881612e3c565b9050919050565b6000612e8a82611d7b565b91507fffffffffffffffffffffffffffffffffffffffffffffffffffffffffffffffff8203612ebc57612ebb612d56565b5b600182019050919050565b7f4e487b7100000000000000000000000000000000000000000000000000000000600052601260045260246000fd5b6000612f0182611d7b565b9150612f0c83611d7b565b925082612f1c57612f1b612ec7565b5b828204905092915050565b6000612f3282611d7b565b9150612f3d83611d7b565b925082612f4d57612f4c612ec7565b5b828206905092915050565b7f4e487b7100000000000000000000000000000000000000000000000000000000600052603260045260246000fd5b7f4552433732313a206d696e7420746f20746865207a65726f2061646472657373600082015250565b6000612fbd602083611cd4565b9150612fc882612f87565b602082019050919050565b60006020820190508181036000830152612fec81612fb0565b9050919050565b7f4552433732313a20746f6b656e20616c7265616479206d696e74656400000000600082015250565b6000613029601c83611cd4565b915061303482612ff3565b602082019050919050565b600060208201905081810360008301526130588161301c565b9050919050565b7f4552433732314d6574613a2055524920736574206f66206e6f6e65786973746560008201527f6e20746f6b656e00000000000000000000000000000000000000000000000000602082015250565b60006130bb602783611cd4565b91506130c68261305f565b604082019050919050565b600060208201905081810360008301526130ea816130ae565b9050919050565b600081519050919050565b600082825260208201905092915050565b6000613118826130f1565b61312281856130fc565b9350613132818560208601611ce5565b61313b81611d0f565b840191505092915050565b600060808201905061315b6000830187611e10565b6131686020830186611e10565b6131756040830185611f26565b8181036060830152613187818461310d565b905095945050505050565b6000815190506131a181611c3a565b92915050565b6000602082840312156131bd576131bc611c04565b5b60006131cb84828501613192565b9150509291505056fea2646970667358221220fed5233d4e6e0f32cb33eec5db6e0de52aaf8353f67602400ffef8cf4bee174064736f6c634300081b0033",
  "linkReferences": {},
  "deployedLinkReferences": {}
}