{
  "_format": "hh-sol-artifact-1",
  "contractName": "Sales",
  "sourceName": "contracts/Sales.sol",
  "abi": [
    {
      "anonymous": false,
      "inputs": [
        {
          "indexed": true,
          "internalType": "address",
          "name": "previousOwner",
          "type": "address"
        },
        {
          "indexed": true,
          "internalType": "address",
          "name": "newOwner",
          "type": "address"
        }
      ],
      "name": "OwnershipTransferred",
      "type": "event"
    },
    {
      "inputs": [
        {
          "internalType": "uint256",
          "name": "saleId",
          "type": "uint256"
        }
      ],
      "name": "getSaleById",
      "outputs": [
        {
          "components": [
            {
              "internalType": "uint256",
              "name": "saleId",
              "type": "uint256"
            },
            {
              "internalType": "uint256",
              "name": "userId",
              "type": "uint256"
            },
            {
              "internalType": "string[]",
              "name": "items",
              "type": "string[]"
            },
            {
              "internalType": "uint256[]",
              "name": "prices",
              "type": "uint256[]"
            }
          ],
          "internalType": "struct Sales.SaleStruct",
          "name": "",
          "type": "tuple"
        }
      ],
      "stateMutability": "view",
      "type": "function"
    },
    {
      "inputs": [],
      "name": "getSales",
      "outputs": [
        {
          "components": [
            {
              "internalType": "uint256",
              "name": "saleId",
              "type": "uint256"
            },
            {
              "internalType": "uint256",
              "name": "userId",
              "type": "uint256"
            },
            {
              "internalType": "string[]",
              "name": "items",
              "type": "string[]"
            },
            {
              "internalType": "uint256[]",
              "name": "prices",
              "type": "uint256[]"
            }
          ],
          "internalType": "struct Sales.SaleStruct[]",
          "name": "",
          "type": "tuple[]"
        }
      ],
      "stateMutability": "view",
      "type": "function"
    },
    {
      "inputs": [
        {
          "internalType": "uint256",
          "name": "userId",
          "type": "uint256"
        }
      ],
      "name": "getSalesByUserId",
      "outputs": [
        {
          "components": [
            {
              "internalType": "uint256",
              "name": "saleId",
              "type": "uint256"
            },
            {
              "internalType": "uint256",
              "name": "userId",
              "type": "uint256"
            },
            {
              "internalType": "string[]",
              "name": "items",
              "type": "string[]"
            },
            {
              "internalType": "uint256[]",
              "name": "prices",
              "type": "uint256[]"
            }
          ],
          "internalType": "struct Sales.SaleStruct[]",
          "name": "",
          "type": "tuple[]"
        }
      ],
      "stateMutability": "view",
      "type": "function"
    },
    {
      "inputs": [
        {
          "internalType": "uint256",
          "name": "userId",
          "type": "uint256"
        },
        {
          "internalType": "string[]",
          "name": "items",
          "type": "string[]"
        },
        {
          "internalType": "uint256[]",
          "name": "prices",
          "type": "uint256[]"
        }
      ],
      "name": "insertSale",
      "outputs": [
        {
          "internalType": "uint256",
          "name": "",
          "type": "uint256"
        }
      ],
      "stateMutability": "nonpayable",
      "type": "function"
    },
    {
      "inputs": [],
      "name": "owner",
      "outputs": [
        {
          "internalType": "address",
          "name": "",
          "type": "address"
        }
      ],
      "stateMutability": "view",
      "type": "function"
    },
    {
      "inputs": [],
      "name": "renounceOwnership",
      "outputs": [],
      "stateMutability": "nonpayable",
      "type": "function"
    },
    {
      "inputs": [
        {
          "internalType": "uint256",
          "name": "",
          "type": "uint256"
        }
      ],
      "name": "sales",
      "outputs": [
        {
          "internalType": "uint256",
          "name": "saleId",
          "type": "uint256"
        },
        {
          "internalType": "uint256",
          "name": "userId",
          "type": "uint256"
        }
      ],
      "stateMutability": "view",
      "type": "function"
    },
    {
      "inputs": [
        {
          "internalType": "address",
          "name": "newOwner",
          "type": "address"
        }
      ],
      "name": "transferOwnership",
      "outputs": [],
      "stateMutability": "nonpayable",
      "type": "function"
    }
  ],
  "bytecode": "0x6080604052348015600f57600080fd5b506000601e60c060201b60201c565b9050806000806101000a81548173ffffffffffffffffffffffffffffffffffffffff021916908373ffffffffffffffffffffffffffffffffffffffff1602179055508073ffffffffffffffffffffffffffffffffffffffff16600073ffffffffffffffffffffffffffffffffffffffff167f8be0079c531659141344cd1fd0a4f28419497f9722a3daafe3b4186f6b6457e060405160405180910390a35060c8565b600033905090565b611bce806100d76000396000f3fe608060405234801561001057600080fd5b50600436106100885760003560e01c8063b5f522f71161005b578063b5f522f714610103578063bead255b14610134578063f2fde38b14610164578063f8bd2a281461018057610088565b80630d83304c1461008d57806310117f2e146100ab578063715018a6146100db5780638da5cb5b146100e5575b600080fd5b6100956101b0565b6040516100a29190611145565b60405180910390f35b6100c560048036038101906100c091906111a7565b6103cf565b6040516100d29190611145565b60405180910390f35b6100e36106b7565b005b6100ed6107f1565b6040516100fa9190611215565b60405180910390f35b61011d600480360381019061011891906111a7565b61081a565b60405161012b92919061123f565b60405180910390f35b61014e600480360381019061014991906111a7565b61083e565b60405161015b91906112d2565b60405180910390f35b61017e60048036038101906101799190611320565b6109b0565b005b61019a6004803603810190610195919061162b565b610b58565b6040516101a791906116b6565b60405180910390f35b606060006101be6001610c84565b67ffffffffffffffff8111156101d7576101d6611352565b5b60405190808252806020026020018201604052801561021057816020015b6101fd610cb0565b8152602001906001900390816101f55790505b50905060005b6102206001610c84565b8110156103c75760006002600060018461023a9190611700565b8152602001908152602001600020905080604051806080016040529081600082015481526020016001820154815260200160028201805480602002602001604051908101604052809291908181526020016000905b8282101561033b5783829060005260206000200180546102ae90611763565b80601f01602080910402602001604051908101604052809291908181526020018280546102da90611763565b80156103275780601f106102fc57610100808354040283529160200191610327565b820191906000526020600020905b81548152906001019060200180831161030a57829003601f168201915b50505050508152602001906001019061028f565b5050505081526020016003820180548060200260200160405190810160405280929190818152602001828054801561039257602002820191906000526020600020905b81548152602001906001019080831161037e575b5050505050815250508383815181106103ae576103ad611794565b5b6020026020010181905250508080600101915050610216565b508091505090565b606060006103dd6001610c84565b67ffffffffffffffff8111156103f6576103f5611352565b5b60405190808252806020026020018201604052801561042f57816020015b61041c610cb0565b8152602001906001900390816104145790505b5090506000805b6104406001610c84565b8110156106015760006002600060018461045a9190611700565b81526020019081526020016000209050858160010154036105f35780604051806080016040529081600082015481526020016001820154815260200160028201805480602002602001604051908101604052809291908181526020016000905b828210156105665783829060005260206000200180546104d990611763565b80601f016020809104026020016040519081016040528092919081815260200182805461050590611763565b80156105525780601f1061052757610100808354040283529160200191610552565b820191906000526020600020905b81548152906001019060200180831161053557829003601f168201915b5050505050815260200190600101906104ba565b505050508152602001600382018054806020026020016040519081016040528092919081815260200182805480156105bd57602002820191906000526020600020905b8154815260200190600101908083116105a9575b5050505050815250508484815181106105d9576105d8611794565b5b602002602001018190525082806105ef906117c3565b9350505b508080600101915050610436565b5060008167ffffffffffffffff81111561061e5761061d611352565b5b60405190808252806020026020018201604052801561065757816020015b610644610cb0565b81526020019060019003908161063c5790505b50905060005b828110156106ab5783818151811061067857610677611794565b5b602002602001015182828151811061069357610692611794565b5b6020026020010181905250808060010191505061065d565b50809350505050919050565b6106bf610c92565b73ffffffffffffffffffffffffffffffffffffffff166106dd6107f1565b73ffffffffffffffffffffffffffffffffffffffff1614610733576040517f08c379a000000000000000000000000000000000000000000000000000000000815260040161072a90611868565b60405180910390fd5b600073ffffffffffffffffffffffffffffffffffffffff1660008054906101000a900473ffffffffffffffffffffffffffffffffffffffff1673ffffffffffffffffffffffffffffffffffffffff167f8be0079c531659141344cd1fd0a4f28419497f9722a3daafe3b4186f6b6457e060405160405180910390a360008060006101000a81548173ffffffffffffffffffffffffffffffffffffffff021916908373ffffffffffffffffffffffffffffffffffffffff160217905550565b60008060009054906101000a900473ffffffffffffffffffffffffffffffffffffffff16905090565b60026020528060005260406000206000915090508060000154908060010154905082565b610846610cb0565b60026000838152602001908152602001600020604051806080016040529081600082015481526020016001820154815260200160028201805480602002602001604051908101604052809291908181526020016000905b828210156109495783829060005260206000200180546108bc90611763565b80601f01602080910402602001604051908101604052809291908181526020018280546108e890611763565b80156109355780601f1061090a57610100808354040283529160200191610935565b820191906000526020600020905b81548152906001019060200180831161091857829003601f168201915b50505050508152602001906001019061089d565b505050508152602001600382018054806020026020016040519081016040528092919081815260200182805480156109a057602002820191906000526020600020905b81548152602001906001019080831161098c575b5050505050815250509050919050565b6109b8610c92565b73ffffffffffffffffffffffffffffffffffffffff166109d66107f1565b73ffffffffffffffffffffffffffffffffffffffff1614610a2c576040517f08c379a0000000000000000000000000000000000000000000000000000000008152600401610a2390611868565b60405180910390fd5b600073ffffffffffffffffffffffffffffffffffffffff168173ffffffffffffffffffffffffffffffffffffffff1603610a9b576040517f08c379a0000000000000000000000000000000000000000000000000000000008152600401610a92906118fa565b60405180910390fd5b8073ffffffffffffffffffffffffffffffffffffffff1660008054906101000a900473ffffffffffffffffffffffffffffffffffffffff1673ffffffffffffffffffffffffffffffffffffffff167f8be0079c531659141344cd1fd0a4f28419497f9722a3daafe3b4186f6b6457e060405160405180910390a3806000806101000a81548173ffffffffffffffffffffffffffffffffffffffff021916908373ffffffffffffffffffffffffffffffffffffffff16021790555050565b6000610b62610c92565b73ffffffffffffffffffffffffffffffffffffffff16610b806107f1565b73ffffffffffffffffffffffffffffffffffffffff1614610bd6576040517f08c379a0000000000000000000000000000000000000000000000000000000008152600401610bcd90611868565b60405180910390fd5b610be06001610c9a565b6000610bec6001610c84565b905060006040518060800160405280838152602001878152602001868152602001858152509050806002600084815260200190815260200160002060008201518160000155602082015181600101556040820151816002019080519060200190610c57929190610cd8565b506060820151816003019080519060200190610c74929190610d31565b5090505081925050509392505050565b600081600001549050919050565b600033905090565b6001816000016000828254019250508190555050565b6040518060800160405280600081526020016000815260200160608152602001606081525090565b828054828255906000526020600020908101928215610d20579160200282015b82811115610d1f578251829081610d0f9190611ac6565b5091602001919060010190610cf8565b5b509050610d2d9190610d7e565b5090565b828054828255906000526020600020908101928215610d6d579160200282015b82811115610d6c578251825591602001919060010190610d51565b5b509050610d7a9190610da2565b5090565b5b80821115610d9e5760008181610d959190610dbf565b50600101610d7f565b5090565b5b80821115610dbb576000816000905550600101610da3565b5090565b508054610dcb90611763565b6000825580601f10610ddd5750610dfc565b601f016020900490600052602060002090810190610dfb9190610da2565b5b50565b600081519050919050565b600082825260208201905092915050565b6000819050602082019050919050565b6000819050919050565b610e3e81610e2b565b82525050565b600081519050919050565b600082825260208201905092915050565b6000819050602082019050919050565b600081519050919050565b600082825260208201905092915050565b60005b83811015610eaa578082015181840152602081019050610e8f565b60008484015250505050565b6000601f19601f8301169050919050565b6000610ed282610e70565b610edc8185610e7b565b9350610eec818560208601610e8c565b610ef581610eb6565b840191505092915050565b6000610f0c8383610ec7565b905092915050565b6000602082019050919050565b6000610f2c82610e44565b610f368185610e4f565b935083602082028501610f4885610e60565b8060005b85811015610f845784840389528151610f658582610f00565b9450610f7083610f14565b925060208a01995050600181019050610f4c565b50829750879550505050505092915050565b600081519050919050565b600082825260208201905092915050565b6000819050602082019050919050565b6000610fce8383610e35565b60208301905092915050565b6000602082019050919050565b6000610ff282610f96565b610ffc8185610fa1565b935061100783610fb2565b8060005b8381101561103857815161101f8882610fc2565b975061102a83610fda565b92505060018101905061100b565b5085935050505092915050565b600060808301600083015161105d6000860182610e35565b5060208301516110706020860182610e35565b50604083015184820360408601526110888282610f21565b915050606083015184820360608601526110a28282610fe7565b9150508091505092915050565b60006110bb8383611045565b905092915050565b6000602082019050919050565b60006110db82610dff565b6110e58185610e0a565b9350836020820285016110f785610e1b565b8060005b85811015611133578484038952815161111485826110af565b945061111f836110c3565b925060208a019950506001810190506110fb565b50829750879550505050505092915050565b6000602082019050818103600083015261115f81846110d0565b905092915050565b6000604051905090565b600080fd5b600080fd5b61118481610e2b565b811461118f57600080fd5b50565b6000813590506111a18161117b565b92915050565b6000602082840312156111bd576111bc611171565b5b60006111cb84828501611192565b91505092915050565b600073ffffffffffffffffffffffffffffffffffffffff82169050919050565b60006111ff826111d4565b9050919050565b61120f816111f4565b82525050565b600060208201905061122a6000830184611206565b92915050565b61123981610e2b565b82525050565b60006040820190506112546000830185611230565b6112616020830184611230565b9392505050565b60006080830160008301516112806000860182610e35565b5060208301516112936020860182610e35565b50604083015184820360408601526112ab8282610f21565b915050606083015184820360608601526112c58282610fe7565b9150508091505092915050565b600060208201905081810360008301526112ec8184611268565b905092915050565b6112fd816111f4565b811461130857600080fd5b50565b60008135905061131a816112f4565b92915050565b60006020828403121561133657611335611171565b5b60006113448482850161130b565b91505092915050565b600080fd5b7f4e487b7100000000000000000000000000000000000000000000000000000000600052604160045260246000fd5b61138a82610eb6565b810181811067ffffffffffffffff821117156113a9576113a8611352565b5b80604052505050565b60006113bc611167565b90506113c88282611381565b919050565b600067ffffffffffffffff8211156113e8576113e7611352565b5b602082029050602081019050919050565b600080fd5b600080fd5b600067ffffffffffffffff82111561141e5761141d611352565b5b61142782610eb6565b9050602081019050919050565b82818337600083830152505050565b600061145661145184611403565b6113b2565b905082815260208101848484011115611472576114716113fe565b5b61147d848285611434565b509392505050565b600082601f83011261149a5761149961134d565b5b81356114aa848260208601611443565b91505092915050565b60006114c66114c1846113cd565b6113b2565b905080838252602082019050602084028301858111156114e9576114e86113f9565b5b835b8181101561153057803567ffffffffffffffff81111561150e5761150d61134d565b5b80860161151b8982611485565b855260208501945050506020810190506114eb565b5050509392505050565b600082601f83011261154f5761154e61134d565b5b813561155f8482602086016114b3565b91505092915050565b600067ffffffffffffffff82111561158357611582611352565b5b602082029050602081019050919050565b60006115a76115a284611568565b6113b2565b905080838252602082019050602084028301858111156115ca576115c96113f9565b5b835b818110156115f357806115df8882611192565b8452602084019350506020810190506115cc565b5050509392505050565b600082601f8301126116125761161161134d565b5b8135611622848260208601611594565b91505092915050565b60008060006060848603121561164457611643611171565b5b600061165286828701611192565b935050602084013567ffffffffffffffff81111561167357611672611176565b5b61167f8682870161153a565b925050604084013567ffffffffffffffff8111156116a05761169f611176565b5b6116ac868287016115fd565b9150509250925092565b60006020820190506116cb6000830184611230565b92915050565b7f4e487b7100000000000000000000000000000000000000000000000000000000600052601160045260246000fd5b600061170b82610e2b565b915061171683610e2b565b925082820190508082111561172e5761172d6116d1565b5b92915050565b7f4e487b7100000000000000000000000000000000000000000000000000000000600052602260045260246000fd5b6000600282049050600182168061177b57607f821691505b60208210810361178e5761178d611734565b5b50919050565b7f4e487b7100000000000000000000000000000000000000000000000000000000600052603260045260246000fd5b60006117ce82610e2b565b91507fffffffffffffffffffffffffffffffffffffffffffffffffffffffffffffffff8203611800576117ff6116d1565b5b600182019050919050565b600082825260208201905092915050565b7f4f776e61626c653a2063616c6c6572206973206e6f7420746865206f776e6572600082015250565b600061185260208361180b565b915061185d8261181c565b602082019050919050565b6000602082019050818103600083015261188181611845565b9050919050565b7f4f776e61626c653a206e6577206f776e657220697320746865207a65726f206160008201527f6464726573730000000000000000000000000000000000000000000000000000602082015250565b60006118e460268361180b565b91506118ef82611888565b604082019050919050565b60006020820190508181036000830152611913816118d7565b9050919050565b60008190508160005260206000209050919050565b60006020601f8301049050919050565b600082821b905092915050565b60006008830261197c7fffffffffffffffffffffffffffffffffffffffffffffffffffffffffffffffff8261193f565b611986868361193f565b95508019841693508086168417925050509392505050565b6000819050919050565b60006119c36119be6119b984610e2b565b61199e565b610e2b565b9050919050565b6000819050919050565b6119dd836119a8565b6119f16119e9826119ca565b84845461194c565b825550505050565b600090565b611a066119f9565b611a118184846119d4565b505050565b5b81811015611a3557611a2a6000826119fe565b600181019050611a17565b5050565b601f821115611a7a57611a4b8161191a565b611a548461192f565b81016020851015611a63578190505b611a77611a6f8561192f565b830182611a16565b50505b505050565b600082821c905092915050565b6000611a9d60001984600802611a7f565b1980831691505092915050565b6000611ab68383611a8c565b9150826002028217905092915050565b611acf82610e70565b67ffffffffffffffff811115611ae857611ae7611352565b5b611af28254611763565b611afd828285611a39565b600060209050601f831160018114611b305760008415611b1e578287015190505b611b288582611aaa565b865550611b90565b601f198416611b3e8661191a565b60005b82811015611b6657848901518255600182019150602085019450602081019050611b41565b86831015611b835784890151611b7f601f891682611a8c565b8355505b6001600288020188555050505b50505050505056fea2646970667358221220c661c6dec0f3226b9165cb69629abaf3e679dfcd90e1bdee4efbafb21936a80964736f6c634300081b0033",
  "linkReferences": {},
  "deployedLinkReferences": {}
}