{
  "_format": "hh-sol-artifact-1",
  "contractName": "Sales",
  "sourceName": "contracts/Sales.sol",
  "abi": [
    {
      "inputs": [],
      "stateMutability": "nonpayable",
      "type": "constructor"
    },
    {
      "inputs": [
        {
          "internalType": "address",
          "name": "owner",
          "type": "address"
        }
      ],
      "name": "OwnableInvalidOwner",
      "type": "error"
    },
    {
      "inputs": [
        {
          "internalType": "address",
          "name": "account",
          "type": "address"
        }
      ],
      "name": "OwnableUnauthorizedAccount",
      "type": "error"
    },
    {
      "anonymous": false,
      "inputs": [
        {
          "indexed": true,
          "internalType": "address",
          "name": "previousOwner",
          "type": "address"
        },
        {
          "indexed": true,
          "internalType": "address",
          "name": "newOwner",
          "type": "address"
        }
      ],
      "name": "OwnershipTransferred",
      "type": "event"
    },
    {
      "inputs": [
        {
          "internalType": "uint256",
          "name": "saleId",
          "type": "uint256"
        }
      ],
      "name": "getSaleById",
      "outputs": [
        {
          "components": [
            {
              "internalType": "uint256",
              "name": "saleId",
              "type": "uint256"
            },
            {
              "internalType": "uint256",
              "name": "userId",
              "type": "uint256"
            },
            {
              "internalType": "string[]",
              "name": "items",
              "type": "string[]"
            },
            {
              "internalType": "uint256[]",
              "name": "prices",
              "type": "uint256[]"
            }
          ],
          "internalType": "struct Sales.SaleStruct",
          "name": "",
          "type": "tuple"
        }
      ],
      "stateMutability": "view",
      "type": "function"
    },
    {
      "inputs": [],
      "name": "getSales",
      "outputs": [
        {
          "components": [
            {
              "internalType": "uint256",
              "name": "saleId",
              "type": "uint256"
            },
            {
              "internalType": "uint256",
              "name": "userId",
              "type": "uint256"
            },
            {
              "internalType": "string[]",
              "name": "items",
              "type": "string[]"
            },
            {
              "internalType": "uint256[]",
              "name": "prices",
              "type": "uint256[]"
            }
          ],
          "internalType": "struct Sales.SaleStruct[]",
          "name": "",
          "type": "tuple[]"
        }
      ],
      "stateMutability": "view",
      "type": "function"
    },
    {
      "inputs": [
        {
          "internalType": "uint256",
          "name": "userId",
          "type": "uint256"
        }
      ],
      "name": "getSalesByUserId",
      "outputs": [
        {
          "components": [
            {
              "internalType": "uint256",
              "name": "saleId",
              "type": "uint256"
            },
            {
              "internalType": "uint256",
              "name": "userId",
              "type": "uint256"
            },
            {
              "internalType": "string[]",
              "name": "items",
              "type": "string[]"
            },
            {
              "internalType": "uint256[]",
              "name": "prices",
              "type": "uint256[]"
            }
          ],
          "internalType": "struct Sales.SaleStruct[]",
          "name": "",
          "type": "tuple[]"
        }
      ],
      "stateMutability": "view",
      "type": "function"
    },
    {
      "inputs": [
        {
          "internalType": "uint256",
          "name": "userId",
          "type": "uint256"
        },
        {
          "internalType": "string[]",
          "name": "items",
          "type": "string[]"
        },
        {
          "internalType": "uint256[]",
          "name": "prices",
          "type": "uint256[]"
        }
      ],
      "name": "insertSale",
      "outputs": [
        {
          "internalType": "uint256",
          "name": "",
          "type": "uint256"
        }
      ],
      "stateMutability": "nonpayable",
      "type": "function"
    },
    {
      "inputs": [],
      "name": "owner",
      "outputs": [
        {
          "internalType": "address",
          "name": "",
          "type": "address"
        }
      ],
      "stateMutability": "view",
      "type": "function"
    },
    {
      "inputs": [],
      "name": "renounceOwnership",
      "outputs": [],
      "stateMutability": "nonpayable",
      "type": "function"
    },
    {
      "inputs": [
        {
          "internalType": "uint256",
          "name": "",
          "type": "uint256"
        }
      ],
      "name": "sales",
      "outputs": [
        {
          "internalType": "uint256",
          "name": "saleId",
          "type": "uint256"
        },
        {
          "internalType": "uint256",
          "name": "userId",
          "type": "uint256"
        }
      ],
      "stateMutability": "view",
      "type": "function"
    },
    {
      "inputs": [
        {
          "internalType": "address",
          "name": "newOwner",
          "type": "address"
        }
      ],
      "name": "transferOwnership",
      "outputs": [],
      "stateMutability": "nonpayable",
      "type": "function"
    }
  ],
  "bytecode": "0x608060405234801561001057600080fd5b5033600073ffffffffffffffffffffffffffffffffffffffff168173ffffffffffffffffffffffffffffffffffffffff16036100845760006040517f1e4fbdf700000000000000000000000000000000000000000000000000000000815260040161007b919061019e565b60405180910390fd5b6100938161009960201b60201c565b506101b9565b60008060009054906101000a900473ffffffffffffffffffffffffffffffffffffffff169050816000806101000a81548173ffffffffffffffffffffffffffffffffffffffff021916908373ffffffffffffffffffffffffffffffffffffffff1602179055508173ffffffffffffffffffffffffffffffffffffffff168173ffffffffffffffffffffffffffffffffffffffff167f8be0079c531659141344cd1fd0a4f28419497f9722a3daafe3b4186f6b6457e060405160405180910390a35050565b600073ffffffffffffffffffffffffffffffffffffffff82169050919050565b60006101888261015d565b9050919050565b6101988161017d565b82525050565b60006020820190506101b3600083018461018f565b92915050565b6118da806101c86000396000f3fe608060405234801561001057600080fd5b50600436106100885760003560e01c8063b5f522f71161005b578063b5f522f714610103578063bead255b14610134578063f2fde38b14610164578063f8bd2a281461018057610088565b80630d83304c1461008d57806310117f2e146100ab578063715018a6146100db5780638da5cb5b146100e5575b600080fd5b6100956101b0565b6040516100a29190610f60565b60405180910390f35b6100c560048036038101906100c09190610fc2565b6103c1565b6040516100d29190610f60565b60405180910390f35b6100e361065f565b005b6100ed610673565b6040516100fa9190611030565b60405180910390f35b61011d60048036038101906101189190610fc2565b61069c565b60405161012b92919061105a565b60405180910390f35b61014e60048036038101906101499190610fc2565b6106c0565b60405161015b91906110ed565b60405180910390f35b61017e6004803603810190610179919061113b565b610832565b005b61019a60048036038101906101959190611446565b6108b8565b6040516101a791906114d1565b60405180910390f35b6060600060015467ffffffffffffffff8111156101d0576101cf61116d565b5b60405190808252806020026020018201604052801561020957816020015b6101f6610acb565b8152602001906001900390816101ee5790505b50905060005b6001548110156103b95760006002600060018461022c919061151b565b8152602001908152602001600020905080604051806080016040529081600082015481526020016001820154815260200160028201805480602002602001604051908101604052809291908181526020016000905b8282101561032d5783829060005260206000200180546102a09061157e565b80601f01602080910402602001604051908101604052809291908181526020018280546102cc9061157e565b80156103195780601f106102ee57610100808354040283529160200191610319565b820191906000526020600020905b8154815290600101906020018083116102fc57829003601f168201915b505050505081526020019060010190610281565b5050505081526020016003820180548060200260200160405190810160405280929190818152602001828054801561038457602002820191906000526020600020905b815481526020019060010190808311610370575b5050505050815250508383815181106103a05761039f6115af565b5b602002602001018190525050808060010191505061020f565b508091505090565b6060600060015490506000805b8281101561041b5784600260006001846103e8919061151b565b8152602001908152602001600020600101540361040e57818061040a906115de565b9250505b80806001019150506103ce565b5060008167ffffffffffffffff8111156104385761043761116d565b5b60405190808252806020026020018201604052801561047157816020015b61045e610acb565b8152602001906001900390816104565790505b5090506000805b84811015610652578660026000600184610492919061151b565b8152602001908152602001600020600101540361064557600260006001836104ba919061151b565b8152602001908152602001600020604051806080016040529081600082015481526020016001820154815260200160028201805480602002602001604051908101604052809291908181526020016000905b828210156105b857838290600052602060002001805461052b9061157e565b80601f01602080910402602001604051908101604052809291908181526020018280546105579061157e565b80156105a45780601f10610579576101008083540402835291602001916105a4565b820191906000526020600020905b81548152906001019060200180831161058757829003601f168201915b50505050508152602001906001019061050c565b5050505081526020016003820180548060200260200160405190810160405280929190818152602001828054801561060f57602002820191906000526020600020905b8154815260200190600101908083116105fb575b50505050508152505083838151811061062b5761062a6115af565b5b60200260200101819052508180610641906115de565b9250505b8080600101915050610478565b5081945050505050919050565b610667610978565b61067160006109ff565b565b60008060009054906101000a900473ffffffffffffffffffffffffffffffffffffffff16905090565b60026020528060005260406000206000915090508060000154908060010154905082565b6106c8610acb565b60026000838152602001908152602001600020604051806080016040529081600082015481526020016001820154815260200160028201805480602002602001604051908101604052809291908181526020016000905b828210156107cb57838290600052602060002001805461073e9061157e565b80601f016020809104026020016040519081016040528092919081815260200182805461076a9061157e565b80156107b75780601f1061078c576101008083540402835291602001916107b7565b820191906000526020600020905b81548152906001019060200180831161079a57829003601f168201915b50505050508152602001906001019061071f565b5050505081526020016003820180548060200260200160405190810160405280929190818152602001828054801561082257602002820191906000526020600020905b81548152602001906001019080831161080e575b5050505050815250509050919050565b61083a610978565b600073ffffffffffffffffffffffffffffffffffffffff168173ffffffffffffffffffffffffffffffffffffffff16036108ac5760006040517f1e4fbdf70000000000000000000000000000000000000000000000000000000081526004016108a39190611030565b60405180910390fd5b6108b5816109ff565b50565b60006108c2610978565b60018060008282546108d4919061151b565b92505081905550600060015490506000604051806080016040528083815260200187815260200186815260200185815250905080600260008481526020019081526020016000206000820151816000015560208201518160010155604082015181600201908051906020019061094b929190610af3565b506060820151816003019080519060200190610968929190610b4c565b5090505081925050509392505050565b610980610ac3565b73ffffffffffffffffffffffffffffffffffffffff1661099e610673565b73ffffffffffffffffffffffffffffffffffffffff16146109fd576109c1610ac3565b6040517f118cdaa70000000000000000000000000000000000000000000000000000000081526004016109f49190611030565b60405180910390fd5b565b60008060009054906101000a900473ffffffffffffffffffffffffffffffffffffffff169050816000806101000a81548173ffffffffffffffffffffffffffffffffffffffff021916908373ffffffffffffffffffffffffffffffffffffffff1602179055508173ffffffffffffffffffffffffffffffffffffffff168173ffffffffffffffffffffffffffffffffffffffff167f8be0079c531659141344cd1fd0a4f28419497f9722a3daafe3b4186f6b6457e060405160405180910390a35050565b600033905090565b6040518060800160405280600081526020016000815260200160608152602001606081525090565b828054828255906000526020600020908101928215610b3b579160200282015b82811115610b3a578251829081610b2a91906117d2565b5091602001919060010190610b13565b5b509050610b489190610b99565b5090565b828054828255906000526020600020908101928215610b88579160200282015b82811115610b87578251825591602001919060010190610b6c565b5b509050610b959190610bbd565b5090565b5b80821115610bb95760008181610bb09190610bda565b50600101610b9a565b5090565b5b80821115610bd6576000816000905550600101610bbe565b5090565b508054610be69061157e565b6000825580601f10610bf85750610c17565b601f016020900490600052602060002090810190610c169190610bbd565b5b50565b600081519050919050565b600082825260208201905092915050565b6000819050602082019050919050565b6000819050919050565b610c5981610c46565b82525050565b600081519050919050565b600082825260208201905092915050565b6000819050602082019050919050565b600081519050919050565b600082825260208201905092915050565b60005b83811015610cc5578082015181840152602081019050610caa565b60008484015250505050565b6000601f19601f8301169050919050565b6000610ced82610c8b565b610cf78185610c96565b9350610d07818560208601610ca7565b610d1081610cd1565b840191505092915050565b6000610d278383610ce2565b905092915050565b6000602082019050919050565b6000610d4782610c5f565b610d518185610c6a565b935083602082028501610d6385610c7b565b8060005b85811015610d9f5784840389528151610d808582610d1b565b9450610d8b83610d2f565b925060208a01995050600181019050610d67565b50829750879550505050505092915050565b600081519050919050565b600082825260208201905092915050565b6000819050602082019050919050565b6000610de98383610c50565b60208301905092915050565b6000602082019050919050565b6000610e0d82610db1565b610e178185610dbc565b9350610e2283610dcd565b8060005b83811015610e53578151610e3a8882610ddd565b9750610e4583610df5565b925050600181019050610e26565b5085935050505092915050565b6000608083016000830151610e786000860182610c50565b506020830151610e8b6020860182610c50565b5060408301518482036040860152610ea38282610d3c565b91505060608301518482036060860152610ebd8282610e02565b9150508091505092915050565b6000610ed68383610e60565b905092915050565b6000602082019050919050565b6000610ef682610c1a565b610f008185610c25565b935083602082028501610f1285610c36565b8060005b85811015610f4e5784840389528151610f2f8582610eca565b9450610f3a83610ede565b925060208a01995050600181019050610f16565b50829750879550505050505092915050565b60006020820190508181036000830152610f7a8184610eeb565b905092915050565b6000604051905090565b600080fd5b600080fd5b610f9f81610c46565b8114610faa57600080fd5b50565b600081359050610fbc81610f96565b92915050565b600060208284031215610fd857610fd7610f8c565b5b6000610fe684828501610fad565b91505092915050565b600073ffffffffffffffffffffffffffffffffffffffff82169050919050565b600061101a82610fef565b9050919050565b61102a8161100f565b82525050565b60006020820190506110456000830184611021565b92915050565b61105481610c46565b82525050565b600060408201905061106f600083018561104b565b61107c602083018461104b565b9392505050565b600060808301600083015161109b6000860182610c50565b5060208301516110ae6020860182610c50565b50604083015184820360408601526110c68282610d3c565b915050606083015184820360608601526110e08282610e02565b9150508091505092915050565b600060208201905081810360008301526111078184611083565b905092915050565b6111188161100f565b811461112357600080fd5b50565b6000813590506111358161110f565b92915050565b60006020828403121561115157611150610f8c565b5b600061115f84828501611126565b91505092915050565b600080fd5b7f4e487b7100000000000000000000000000000000000000000000000000000000600052604160045260246000fd5b6111a582610cd1565b810181811067ffffffffffffffff821117156111c4576111c361116d565b5b80604052505050565b60006111d7610f82565b90506111e3828261119c565b919050565b600067ffffffffffffffff8211156112035761120261116d565b5b602082029050602081019050919050565b600080fd5b600080fd5b600067ffffffffffffffff8211156112395761123861116d565b5b61124282610cd1565b9050602081019050919050565b82818337600083830152505050565b600061127161126c8461121e565b6111cd565b90508281526020810184848401111561128d5761128c611219565b5b61129884828561124f565b509392505050565b600082601f8301126112b5576112b4611168565b5b81356112c584826020860161125e565b91505092915050565b60006112e16112dc846111e8565b6111cd565b9050808382526020820190506020840283018581111561130457611303611214565b5b835b8181101561134b57803567ffffffffffffffff81111561132957611328611168565b5b80860161133689826112a0565b85526020850194505050602081019050611306565b5050509392505050565b600082601f83011261136a57611369611168565b5b813561137a8482602086016112ce565b91505092915050565b600067ffffffffffffffff82111561139e5761139d61116d565b5b602082029050602081019050919050565b60006113c26113bd84611383565b6111cd565b905080838252602082019050602084028301858111156113e5576113e4611214565b5b835b8181101561140e57806113fa8882610fad565b8452602084019350506020810190506113e7565b5050509392505050565b600082601f83011261142d5761142c611168565b5b813561143d8482602086016113af565b91505092915050565b60008060006060848603121561145f5761145e610f8c565b5b600061146d86828701610fad565b935050602084013567ffffffffffffffff81111561148e5761148d610f91565b5b61149a86828701611355565b925050604084013567ffffffffffffffff8111156114bb576114ba610f91565b5b6114c786828701611418565b9150509250925092565b60006020820190506114e6600083018461104b565b92915050565b7f4e487b7100000000000000000000000000000000000000000000000000000000600052601160045260246000fd5b600061152682610c46565b915061153183610c46565b9250828201905080821115611549576115486114ec565b5b92915050565b7f4e487b7100000000000000000000000000000000000000000000000000000000600052602260045260246000fd5b6000600282049050600182168061159657607f821691505b6020821081036115a9576115a861154f565b5b50919050565b7f4e487b7100000000000000000000000000000000000000000000000000000000600052603260045260246000fd5b60006115e982610c46565b91507fffffffffffffffffffffffffffffffffffffffffffffffffffffffffffffffff820361161b5761161a6114ec565b5b600182019050919050565b60008190508160005260206000209050919050565b60006020601f8301049050919050565b600082821b905092915050565b6000600883026116887fffffffffffffffffffffffffffffffffffffffffffffffffffffffffffffffff8261164b565b611692868361164b565b95508019841693508086168417925050509392505050565b6000819050919050565b60006116cf6116ca6116c584610c46565b6116aa565b610c46565b9050919050565b6000819050919050565b6116e9836116b4565b6116fd6116f5826116d6565b848454611658565b825550505050565b600090565b611712611705565b61171d8184846116e0565b505050565b5b818110156117415761173660008261170a565b600181019050611723565b5050565b601f8211156117865761175781611626565b6117608461163b565b8101602085101561176f578190505b61178361177b8561163b565b830182611722565b50505b505050565b600082821c905092915050565b60006117a96000198460080261178b565b1980831691505092915050565b60006117c28383611798565b9150826002028217905092915050565b6117db82610c8b565b67ffffffffffffffff8111156117f4576117f361116d565b5b6117fe825461157e565b611809828285611745565b600060209050601f83116001811461183c576000841561182a578287015190505b61183485826117b6565b86555061189c565b601f19841661184a86611626565b60005b828110156118725784890151825560018201915060208501945060208101905061184d565b8683101561188f578489015161188b601f891682611798565b8355505b6001600288020188555050505b50505050505056fea26469706673582212206a56069b219db7b7aa9c249e0e260ecd308b598bb2384e0ec321924035eb515d64736f6c634300081b0033",
  "linkReferences": {},
  "deployedLinkReferences": {}
}