{
  "_format": "hh-sol-artifact-1",
  "contractName": "Users",
  "sourceName": "contracts/User.sol",
  "abi": [
    {
      "anonymous": false,
      "inputs": [
        {
          "indexed": true,
          "internalType": "address",
          "name": "previousOwner",
          "type": "address"
        },
        {
          "indexed": true,
          "internalType": "address",
          "name": "newOwner",
          "type": "address"
        }
      ],
      "name": "OwnershipTransferred",
      "type": "event"
    },
    {
      "inputs": [
        {
          "internalType": "uint256",
          "name": "userId",
          "type": "uint256"
        }
      ],
      "name": "getUserId",
      "outputs": [
        {
          "components": [
            {
              "internalType": "string",
              "name": "firstName",
              "type": "string"
            },
            {
              "internalType": "string",
              "name": "lastName",
              "type": "string"
            },
            {
              "internalType": "uint256",
              "name": "amountSpent",
              "type": "uint256"
            },
            {
              "internalType": "uint256",
              "name": "userId",
              "type": "uint256"
            }
          ],
          "internalType": "struct Users.User",
          "name": "",
          "type": "tuple"
        }
      ],
      "stateMutability": "view",
      "type": "function"
    },
    {
      "inputs": [],
      "name": "getUsers",
      "outputs": [
        {
          "components": [
            {
              "internalType": "string",
              "name": "firstName",
              "type": "string"
            },
            {
              "internalType": "string",
              "name": "lastName",
              "type": "string"
            },
            {
              "internalType": "uint256",
              "name": "amountSpent",
              "type": "uint256"
            },
            {
              "internalType": "uint256",
              "name": "userId",
              "type": "uint256"
            }
          ],
          "internalType": "struct Users.User[]",
          "name": "",
          "type": "tuple[]"
        }
      ],
      "stateMutability": "view",
      "type": "function"
    },
    {
      "inputs": [
        {
          "internalType": "string",
          "name": "firstName",
          "type": "string"
        },
        {
          "internalType": "string",
          "name": "lastName",
          "type": "string"
        }
      ],
      "name": "insertUser",
      "outputs": [
        {
          "internalType": "uint256",
          "name": "",
          "type": "uint256"
        }
      ],
      "stateMutability": "nonpayable",
      "type": "function"
    },
    {
      "inputs": [],
      "name": "owner",
      "outputs": [
        {
          "internalType": "address",
          "name": "",
          "type": "address"
        }
      ],
      "stateMutability": "view",
      "type": "function"
    },
    {
      "inputs": [
        {
          "internalType": "uint256",
          "name": "userId",
          "type": "uint256"
        },
        {
          "internalType": "uint256",
          "name": "amount",
          "type": "uint256"
        }
      ],
      "name": "register",
      "outputs": [],
      "stateMutability": "nonpayable",
      "type": "function"
    },
    {
      "inputs": [],
      "name": "renounceOwnership",
      "outputs": [],
      "stateMutability": "nonpayable",
      "type": "function"
    },
    {
      "inputs": [
        {
          "internalType": "address",
          "name": "newOwner",
          "type": "address"
        }
      ],
      "name": "transferOwnership",
      "outputs": [],
      "stateMutability": "nonpayable",
      "type": "function"
    },
    {
      "inputs": [
        {
          "internalType": "uint256",
          "name": "",
          "type": "uint256"
        }
      ],
      "name": "users",
      "outputs": [
        {
          "internalType": "string",
          "name": "firstName",
          "type": "string"
        },
        {
          "internalType": "string",
          "name": "lastName",
          "type": "string"
        },
        {
          "internalType": "uint256",
          "name": "amountSpent",
          "type": "uint256"
        },
        {
          "internalType": "uint256",
          "name": "userId",
          "type": "uint256"
        }
      ],
      "stateMutability": "view",
      "type": "function"
    }
  ],
  "bytecode": "0x6080604052348015600f57600080fd5b506000601e60c060201b60201c565b9050806000806101000a81548173ffffffffffffffffffffffffffffffffffffffff021916908373ffffffffffffffffffffffffffffffffffffffff1602179055508073ffffffffffffffffffffffffffffffffffffffff16600073ffffffffffffffffffffffffffffffffffffffff167f8be0079c531659141344cd1fd0a4f28419497f9722a3daafe3b4186f6b6457e060405160405180910390a35060c8565b600033905090565b61167b806100d76000396000f3fe608060405234801561001057600080fd5b50600436106100875760003560e01c80638da5cb5b1161005b5780638da5cb5b14610117578063d66d6c1014610135578063ebc9811714610151578063f2fde38b1461018157610087565b8062ce8e3e1461008c57806334979627146100aa578063365b98b2146100da578063715018a61461010d575b600080fd5b61009461019d565b6040516100a19190610d53565b60405180910390f35b6100c460048036038101906100bf9190610ebe565b6103af565b6040516100d19190610f45565b60405180910390f35b6100f460048036038101906100ef9190610f8c565b6104cd565b6040516101049493929190611003565b60405180910390f35b61011561060d565b005b61011f610747565b60405161012c9190611097565b60405180910390f35b61014f600480360381019061014a91906110b2565b610770565b005b61016b60048036038101906101669190610f8c565b61081d565b604051610178919061115c565b60405180910390f35b61019b600480360381019061019691906111aa565b610982565b005b606060006101ab6001610b2a565b67ffffffffffffffff8111156101c4576101c3610d93565b5b6040519080825280602002602001820160405280156101fd57816020015b6101ea610b56565b8152602001906001900390816101e25790505b50905060005b61020d6001610b2a565b8110156103a7576000600260006001846102279190611206565b815260200190815260200160002090508060405180608001604052908160008201805461025390611269565b80601f016020809104026020016040519081016040528092919081815260200182805461027f90611269565b80156102cc5780601f106102a1576101008083540402835291602001916102cc565b820191906000526020600020905b8154815290600101906020018083116102af57829003601f168201915b505050505081526020016001820180546102e590611269565b80601f016020809104026020016040519081016040528092919081815260200182805461031190611269565b801561035e5780601f106103335761010080835404028352916020019161035e565b820191906000526020600020905b81548152906001019060200180831161034157829003601f168201915b505050505081526020016002820154815260200160038201548152505083838151811061038e5761038d61129a565b5b6020026020010181905250508080600101915050610203565b508091505090565b60006103b9610b38565b73ffffffffffffffffffffffffffffffffffffffff166103d7610747565b73ffffffffffffffffffffffffffffffffffffffff161461042d576040517f08c379a000000000000000000000000000000000000000000000000000000000815260040161042490611315565b60405180910390fd5b6104376001610b40565b60006104436001610b2a565b905060006040518060800160405280868152602001858152602001600081526020018381525090508060026000848152602001908152602001600020600082015181600001908161049491906114e1565b5060208201518160010190816104aa91906114e1565b506040820151816002015560608201518160030155905050819250505092915050565b60026020528060005260406000206000915090508060000180546104f090611269565b80601f016020809104026020016040519081016040528092919081815260200182805461051c90611269565b80156105695780601f1061053e57610100808354040283529160200191610569565b820191906000526020600020905b81548152906001019060200180831161054c57829003601f168201915b50505050509080600101805461057e90611269565b80601f01602080910402602001604051908101604052809291908181526020018280546105aa90611269565b80156105f75780601f106105cc576101008083540402835291602001916105f7565b820191906000526020600020905b8154815290600101906020018083116105da57829003601f168201915b5050505050908060020154908060030154905084565b610615610b38565b73ffffffffffffffffffffffffffffffffffffffff16610633610747565b73ffffffffffffffffffffffffffffffffffffffff1614610689576040517f08c379a000000000000000000000000000000000000000000000000000000000815260040161068090611315565b60405180910390fd5b600073ffffffffffffffffffffffffffffffffffffffff1660008054906101000a900473ffffffffffffffffffffffffffffffffffffffff1673ffffffffffffffffffffffffffffffffffffffff167f8be0079c531659141344cd1fd0a4f28419497f9722a3daafe3b4186f6b6457e060405160405180910390a360008060006101000a81548173ffffffffffffffffffffffffffffffffffffffff021916908373ffffffffffffffffffffffffffffffffffffffff160217905550565b60008060009054906101000a900473ffffffffffffffffffffffffffffffffffffffff16905090565b610778610b38565b73ffffffffffffffffffffffffffffffffffffffff16610796610747565b73ffffffffffffffffffffffffffffffffffffffff16146107ec576040517f08c379a00000000000000000000000000000000000000000000000000000000081526004016107e390611315565b60405180910390fd5b806002600084815260200190815260200160002060020160008282546108129190611206565b925050819055505050565b610825610b56565b6002600083815260200190815260200160002060405180608001604052908160008201805461085390611269565b80601f016020809104026020016040519081016040528092919081815260200182805461087f90611269565b80156108cc5780601f106108a1576101008083540402835291602001916108cc565b820191906000526020600020905b8154815290600101906020018083116108af57829003601f168201915b505050505081526020016001820180546108e590611269565b80601f016020809104026020016040519081016040528092919081815260200182805461091190611269565b801561095e5780601f106109335761010080835404028352916020019161095e565b820191906000526020600020905b81548152906001019060200180831161094157829003601f168201915b50505050508152602001600282015481526020016003820154815250509050919050565b61098a610b38565b73ffffffffffffffffffffffffffffffffffffffff166109a8610747565b73ffffffffffffffffffffffffffffffffffffffff16146109fe576040517f08c379a00000000000000000000000000000000000000000000000000000000081526004016109f590611315565b60405180910390fd5b600073ffffffffffffffffffffffffffffffffffffffff168173ffffffffffffffffffffffffffffffffffffffff1603610a6d576040517f08c379a0000000000000000000000000000000000000000000000000000000008152600401610a6490611625565b60405180910390fd5b8073ffffffffffffffffffffffffffffffffffffffff1660008054906101000a900473ffffffffffffffffffffffffffffffffffffffff1673ffffffffffffffffffffffffffffffffffffffff167f8be0079c531659141344cd1fd0a4f28419497f9722a3daafe3b4186f6b6457e060405160405180910390a3806000806101000a81548173ffffffffffffffffffffffffffffffffffffffff021916908373ffffffffffffffffffffffffffffffffffffffff16021790555050565b600081600001549050919050565b600033905090565b6001816000016000828254019250508190555050565b6040518060800160405280606081526020016060815260200160008152602001600081525090565b600081519050919050565b600082825260208201905092915050565b6000819050602082019050919050565b600081519050919050565b600082825260208201905092915050565b60005b83811015610be4578082015181840152602081019050610bc9565b60008484015250505050565b6000601f19601f8301169050919050565b6000610c0c82610baa565b610c168185610bb5565b9350610c26818560208601610bc6565b610c2f81610bf0565b840191505092915050565b6000819050919050565b610c4d81610c3a565b82525050565b60006080830160008301518482036000860152610c708282610c01565b91505060208301518482036020860152610c8a8282610c01565b9150506040830151610c9f6040860182610c44565b506060830151610cb26060860182610c44565b508091505092915050565b6000610cc98383610c53565b905092915050565b6000602082019050919050565b6000610ce982610b7e565b610cf38185610b89565b935083602082028501610d0585610b9a565b8060005b85811015610d415784840389528151610d228582610cbd565b9450610d2d83610cd1565b925060208a01995050600181019050610d09565b50829750879550505050505092915050565b60006020820190508181036000830152610d6d8184610cde565b905092915050565b6000604051905090565b600080fd5b600080fd5b600080fd5b600080fd5b7f4e487b7100000000000000000000000000000000000000000000000000000000600052604160045260246000fd5b610dcb82610bf0565b810181811067ffffffffffffffff82111715610dea57610de9610d93565b5b80604052505050565b6000610dfd610d75565b9050610e098282610dc2565b919050565b600067ffffffffffffffff821115610e2957610e28610d93565b5b610e3282610bf0565b9050602081019050919050565b82818337600083830152505050565b6000610e61610e5c84610e0e565b610df3565b905082815260208101848484011115610e7d57610e7c610d8e565b5b610e88848285610e3f565b509392505050565b600082601f830112610ea557610ea4610d89565b5b8135610eb5848260208601610e4e565b91505092915050565b60008060408385031215610ed557610ed4610d7f565b5b600083013567ffffffffffffffff811115610ef357610ef2610d84565b5b610eff85828601610e90565b925050602083013567ffffffffffffffff811115610f2057610f1f610d84565b5b610f2c85828601610e90565b9150509250929050565b610f3f81610c3a565b82525050565b6000602082019050610f5a6000830184610f36565b92915050565b610f6981610c3a565b8114610f7457600080fd5b50565b600081359050610f8681610f60565b92915050565b600060208284031215610fa257610fa1610d7f565b5b6000610fb084828501610f77565b91505092915050565b600082825260208201905092915050565b6000610fd582610baa565b610fdf8185610fb9565b9350610fef818560208601610bc6565b610ff881610bf0565b840191505092915050565b6000608082019050818103600083015261101d8187610fca565b905081810360208301526110318186610fca565b90506110406040830185610f36565b61104d6060830184610f36565b95945050505050565b600073ffffffffffffffffffffffffffffffffffffffff82169050919050565b600061108182611056565b9050919050565b61109181611076565b82525050565b60006020820190506110ac6000830184611088565b92915050565b600080604083850312156110c9576110c8610d7f565b5b60006110d785828601610f77565b92505060206110e885828601610f77565b9150509250929050565b6000608083016000830151848203600086015261110f8282610c01565b915050602083015184820360208601526111298282610c01565b915050604083015161113e6040860182610c44565b5060608301516111516060860182610c44565b508091505092915050565b6000602082019050818103600083015261117681846110f2565b905092915050565b61118781611076565b811461119257600080fd5b50565b6000813590506111a48161117e565b92915050565b6000602082840312156111c0576111bf610d7f565b5b60006111ce84828501611195565b91505092915050565b7f4e487b7100000000000000000000000000000000000000000000000000000000600052601160045260246000fd5b600061121182610c3a565b915061121c83610c3a565b9250828201905080821115611234576112336111d7565b5b92915050565b7f4e487b7100000000000000000000000000000000000000000000000000000000600052602260045260246000fd5b6000600282049050600182168061128157607f821691505b6020821081036112945761129361123a565b5b50919050565b7f4e487b7100000000000000000000000000000000000000000000000000000000600052603260045260246000fd5b7f4f776e61626c653a2063616c6c6572206973206e6f7420746865206f776e6572600082015250565b60006112ff602083610fb9565b915061130a826112c9565b602082019050919050565b6000602082019050818103600083015261132e816112f2565b9050919050565b60008190508160005260206000209050919050565b60006020601f8301049050919050565b600082821b905092915050565b6000600883026113977fffffffffffffffffffffffffffffffffffffffffffffffffffffffffffffffff8261135a565b6113a1868361135a565b95508019841693508086168417925050509392505050565b6000819050919050565b60006113de6113d96113d484610c3a565b6113b9565b610c3a565b9050919050565b6000819050919050565b6113f8836113c3565b61140c611404826113e5565b848454611367565b825550505050565b600090565b611421611414565b61142c8184846113ef565b505050565b5b8181101561145057611445600082611419565b600181019050611432565b5050565b601f8211156114955761146681611335565b61146f8461134a565b8101602085101561147e578190505b61149261148a8561134a565b830182611431565b50505b505050565b600082821c905092915050565b60006114b86000198460080261149a565b1980831691505092915050565b60006114d183836114a7565b9150826002028217905092915050565b6114ea82610baa565b67ffffffffffffffff81111561150357611502610d93565b5b61150d8254611269565b611518828285611454565b600060209050601f83116001811461154b5760008415611539578287015190505b61154385826114c5565b8655506115ab565b601f19841661155986611335565b60005b828110156115815784890151825560018201915060208501945060208101905061155c565b8683101561159e578489015161159a601f8916826114a7565b8355505b6001600288020188555050505b505050505050565b7f4f776e61626c653a206e6577206f776e657220697320746865207a65726f206160008201527f6464726573730000000000000000000000000000000000000000000000000000602082015250565b600061160f602683610fb9565b915061161a826115b3565b604082019050919050565b6000602082019050818103600083015261163e81611602565b905091905056fea264697066735822122093f1bd87dbe5b38f2ab514e79c3dc6965763a578fae2420be9fc29bd8d8b636764736f6c634300081b0033",
  "linkReferences": {},
  "deployedLinkReferences": {}
}