{
  "_format": "hh-sol-artifact-1",
  "contractName": "Users",
  "sourceName": "contracts/User.sol",
  "abi": [
    {
      "inputs": [],
      "stateMutability": "nonpayable",
      "type": "constructor"
    },
    {
      "inputs": [
        {
          "internalType": "address",
          "name": "owner",
          "type": "address"
        }
      ],
      "name": "OwnableInvalidOwner",
      "type": "error"
    },
    {
      "inputs": [
        {
          "internalType": "address",
          "name": "account",
          "type": "address"
        }
      ],
      "name": "OwnableUnauthorizedAccount",
      "type": "error"
    },
    {
      "anonymous": false,
      "inputs": [
        {
          "indexed": true,
          "internalType": "address",
          "name": "previousOwner",
          "type": "address"
        },
        {
          "indexed": true,
          "internalType": "address",
          "name": "newOwner",
          "type": "address"
        }
      ],
      "name": "OwnershipTransferred",
      "type": "event"
    },
    {
      "inputs": [
        {
          "internalType": "uint256",
          "name": "_userId",
          "type": "uint256"
        },
        {
          "internalType": "uint256",
          "name": "_nftId",
          "type": "uint256"
        }
      ],
      "name": "addNftUploadId",
      "outputs": [],
      "stateMutability": "nonpayable",
      "type": "function"
    },
    {
      "inputs": [
        {
          "internalType": "uint256",
          "name": "userId",
          "type": "uint256"
        }
      ],
      "name": "getUserId",
      "outputs": [
        {
          "components": [
            {
              "internalType": "string",
              "name": "firstName",
              "type": "string"
            },
            {
              "internalType": "string",
              "name": "lastName",
              "type": "string"
            },
            {
              "internalType": "uint256",
              "name": "amountSpent",
              "type": "uint256"
            },
            {
              "internalType": "uint256",
              "name": "userId",
              "type": "uint256"
            },
            {
              "internalType": "uint256[]",
              "name": "nftUploadIds",
              "type": "uint256[]"
            }
          ],
          "internalType": "struct Users.User",
          "name": "",
          "type": "tuple"
        }
      ],
      "stateMutability": "view",
      "type": "function"
    },
    {
      "inputs": [],
      "name": "getUsers",
      "outputs": [
        {
          "components": [
            {
              "internalType": "string",
              "name": "firstName",
              "type": "string"
            },
            {
              "internalType": "string",
              "name": "lastName",
              "type": "string"
            },
            {
              "internalType": "uint256",
              "name": "amountSpent",
              "type": "uint256"
            },
            {
              "internalType": "uint256",
              "name": "userId",
              "type": "uint256"
            },
            {
              "internalType": "uint256[]",
              "name": "nftUploadIds",
              "type": "uint256[]"
            }
          ],
          "internalType": "struct Users.User[]",
          "name": "",
          "type": "tuple[]"
        }
      ],
      "stateMutability": "view",
      "type": "function"
    },
    {
      "inputs": [
        {
          "internalType": "string",
          "name": "firstName",
          "type": "string"
        },
        {
          "internalType": "string",
          "name": "lastName",
          "type": "string"
        }
      ],
      "name": "insertUser",
      "outputs": [
        {
          "internalType": "uint256",
          "name": "",
          "type": "uint256"
        }
      ],
      "stateMutability": "nonpayable",
      "type": "function"
    },
    {
      "inputs": [],
      "name": "owner",
      "outputs": [
        {
          "internalType": "address",
          "name": "",
          "type": "address"
        }
      ],
      "stateMutability": "view",
      "type": "function"
    },
    {
      "inputs": [
        {
          "internalType": "uint256",
          "name": "userId",
          "type": "uint256"
        },
        {
          "internalType": "uint256",
          "name": "amount",
          "type": "uint256"
        }
      ],
      "name": "register",
      "outputs": [],
      "stateMutability": "nonpayable",
      "type": "function"
    },
    {
      "inputs": [],
      "name": "renounceOwnership",
      "outputs": [],
      "stateMutability": "nonpayable",
      "type": "function"
    },
    {
      "inputs": [
        {
          "internalType": "address",
          "name": "newOwner",
          "type": "address"
        }
      ],
      "name": "transferOwnership",
      "outputs": [],
      "stateMutability": "nonpayable",
      "type": "function"
    },
    {
      "inputs": [
        {
          "internalType": "uint256",
          "name": "",
          "type": "uint256"
        }
      ],
      "name": "users",
      "outputs": [
        {
          "internalType": "string",
          "name": "firstName",
          "type": "string"
        },
        {
          "internalType": "string",
          "name": "lastName",
          "type": "string"
        },
        {
          "internalType": "uint256",
          "name": "amountSpent",
          "type": "uint256"
        },
        {
          "internalType": "uint256",
          "name": "userId",
          "type": "uint256"
        }
      ],
      "stateMutability": "view",
      "type": "function"
    }
  ],
  "bytecode": "0x608060405234801561001057600080fd5b5033600073ffffffffffffffffffffffffffffffffffffffff168173ffffffffffffffffffffffffffffffffffffffff16036100845760006040517f1e4fbdf700000000000000000000000000000000000000000000000000000000815260040161007b919061019e565b60405180910390fd5b6100938161009960201b60201c565b506101b9565b60008060009054906101000a900473ffffffffffffffffffffffffffffffffffffffff169050816000806101000a81548173ffffffffffffffffffffffffffffffffffffffff021916908373ffffffffffffffffffffffffffffffffffffffff1602179055508173ffffffffffffffffffffffffffffffffffffffff168173ffffffffffffffffffffffffffffffffffffffff167f8be0079c531659141344cd1fd0a4f28419497f9722a3daafe3b4186f6b6457e060405160405180910390a35050565b600073ffffffffffffffffffffffffffffffffffffffff82169050919050565b60006101888261015d565b9050919050565b6101988161017d565b82525050565b60006020820190506101b3600083018461018f565b92915050565b611751806101c86000396000f3fe608060405234801561001057600080fd5b50600436106100925760003560e01c8063715018a611610066578063715018a6146101345780638da5cb5b1461013e578063d66d6c101461015c578063ebc9811714610178578063f2fde38b146101a857610092565b8062ce8e3e1461009757806334979627146100b5578063365b98b2146100e55780636603e3aa14610118575b600080fd5b61009f6101c4565b6040516100ac9190610e59565b60405180910390f35b6100cf60048036038101906100ca9190610fc4565b610420565b6040516100dc919061104b565b60405180910390f35b6100ff60048036038101906100fa9190611092565b61053d565b60405161010f9493929190611109565b60405180910390f35b610132600480360381019061012d919061115c565b61067d565b005b61013c610716565b005b61014661072a565b60405161015391906111dd565b60405180910390f35b6101766004803603810190610171919061115c565b610753565b005b610192600480360381019061018d9190611092565b61078c565b60405161019f919061127c565b60405180910390f35b6101c260048036038101906101bd91906112ca565b610949565b005b6060600060015467ffffffffffffffff8111156101e4576101e3610e99565b5b60405190808252806020026020018201604052801561021d57816020015b61020a610b22565b8152602001906001900390816102025790505b50905060005b600154811015610418576000600260006001846102409190611326565b81526020019081526020016000209050806040518060a001604052908160008201805461026c90611389565b80601f016020809104026020016040519081016040528092919081815260200182805461029890611389565b80156102e55780601f106102ba576101008083540402835291602001916102e5565b820191906000526020600020905b8154815290600101906020018083116102c857829003601f168201915b505050505081526020016001820180546102fe90611389565b80601f016020809104026020016040519081016040528092919081815260200182805461032a90611389565b80156103775780601f1061034c57610100808354040283529160200191610377565b820191906000526020600020905b81548152906001019060200180831161035a57829003601f168201915b505050505081526020016002820154815260200160038201548152602001600482018054806020026020016040519081016040528092919081815260200182805480156103e357602002820191906000526020600020905b8154815260200190600101908083116103cf575b5050505050815250508383815181106103ff576103fe6113ba565b5b6020026020010181905250508080600101915050610223565b508091505090565b600061042a6109cf565b6001600081548092919061043d906113e9565b91905055506000600154905060006040518060a0016040528086815260200185815260200160008152602001838152602001600067ffffffffffffffff81111561048a57610489610e99565b5b6040519080825280602002602001820160405280156104b85781602001602082028036833780820191505090505b508152509050806002600084815260200190815260200160002060008201518160000190816104e791906115dd565b5060208201518160010190816104fd91906115dd565b506040820151816002015560608201518160030155608082015181600401908051906020019061052e929190610b51565b50905050819250505092915050565b600260205280600052604060002060009150905080600001805461056090611389565b80601f016020809104026020016040519081016040528092919081815260200182805461058c90611389565b80156105d95780601f106105ae576101008083540402835291602001916105d9565b820191906000526020600020905b8154815290600101906020018083116105bc57829003601f168201915b5050505050908060010180546105ee90611389565b80601f016020809104026020016040519081016040528092919081815260200182805461061a90611389565b80156106675780601f1061063c57610100808354040283529160200191610667565b820191906000526020600020905b81548152906001019060200180831161064a57829003601f168201915b5050505050908060020154908060030154905084565b816002600084815260200190815260200160002060030154146106d5576040517f08c379a00000000000000000000000000000000000000000000000000000000081526004016106cc906116fb565b60405180910390fd5b600260008381526020019081526020016000206004018190806001815401808255809150506001900390600052602060002001600090919091909150555050565b61071e6109cf565b6107286000610a56565b565b60008060009054906101000a900473ffffffffffffffffffffffffffffffffffffffff16905090565b61075b6109cf565b806002600084815260200190815260200160002060020160008282546107819190611326565b925050819055505050565b610794610b22565b600260008381526020019081526020016000206040518060a00160405290816000820180546107c290611389565b80601f01602080910402602001604051908101604052809291908181526020018280546107ee90611389565b801561083b5780601f106108105761010080835404028352916020019161083b565b820191906000526020600020905b81548152906001019060200180831161081e57829003601f168201915b5050505050815260200160018201805461085490611389565b80601f016020809104026020016040519081016040528092919081815260200182805461088090611389565b80156108cd5780601f106108a2576101008083540402835291602001916108cd565b820191906000526020600020905b8154815290600101906020018083116108b057829003601f168201915b5050505050815260200160028201548152602001600382015481526020016004820180548060200260200160405190810160405280929190818152602001828054801561093957602002820191906000526020600020905b815481526020019060010190808311610925575b5050505050815250509050919050565b6109516109cf565b600073ffffffffffffffffffffffffffffffffffffffff168173ffffffffffffffffffffffffffffffffffffffff16036109c35760006040517f1e4fbdf70000000000000000000000000000000000000000000000000000000081526004016109ba91906111dd565b60405180910390fd5b6109cc81610a56565b50565b6109d7610b1a565b73ffffffffffffffffffffffffffffffffffffffff166109f561072a565b73ffffffffffffffffffffffffffffffffffffffff1614610a5457610a18610b1a565b6040517f118cdaa7000000000000000000000000000000000000000000000000000000008152600401610a4b91906111dd565b60405180910390fd5b565b60008060009054906101000a900473ffffffffffffffffffffffffffffffffffffffff169050816000806101000a81548173ffffffffffffffffffffffffffffffffffffffff021916908373ffffffffffffffffffffffffffffffffffffffff1602179055508173ffffffffffffffffffffffffffffffffffffffff168173ffffffffffffffffffffffffffffffffffffffff167f8be0079c531659141344cd1fd0a4f28419497f9722a3daafe3b4186f6b6457e060405160405180910390a35050565b600033905090565b6040518060a0016040528060608152602001606081526020016000815260200160008152602001606081525090565b828054828255906000526020600020908101928215610b8d579160200282015b82811115610b8c578251825591602001919060010190610b71565b5b509050610b9a9190610b9e565b5090565b5b80821115610bb7576000816000905550600101610b9f565b5090565b600081519050919050565b600082825260208201905092915050565b6000819050602082019050919050565b600081519050919050565b600082825260208201905092915050565b60005b83811015610c21578082015181840152602081019050610c06565b60008484015250505050565b6000601f19601f8301169050919050565b6000610c4982610be7565b610c538185610bf2565b9350610c63818560208601610c03565b610c6c81610c2d565b840191505092915050565b6000819050919050565b610c8a81610c77565b82525050565b600081519050919050565b600082825260208201905092915050565b6000819050602082019050919050565b6000610cc88383610c81565b60208301905092915050565b6000602082019050919050565b6000610cec82610c90565b610cf68185610c9b565b9350610d0183610cac565b8060005b83811015610d32578151610d198882610cbc565b9750610d2483610cd4565b925050600181019050610d05565b5085935050505092915050565b600060a0830160008301518482036000860152610d5c8282610c3e565b91505060208301518482036020860152610d768282610c3e565b9150506040830151610d8b6040860182610c81565b506060830151610d9e6060860182610c81565b5060808301518482036080860152610db68282610ce1565b9150508091505092915050565b6000610dcf8383610d3f565b905092915050565b6000602082019050919050565b6000610def82610bbb565b610df98185610bc6565b935083602082028501610e0b85610bd7565b8060005b85811015610e475784840389528151610e288582610dc3565b9450610e3383610dd7565b925060208a01995050600181019050610e0f565b50829750879550505050505092915050565b60006020820190508181036000830152610e738184610de4565b905092915050565b6000604051905090565b600080fd5b600080fd5b600080fd5b600080fd5b7f4e487b7100000000000000000000000000000000000000000000000000000000600052604160045260246000fd5b610ed182610c2d565b810181811067ffffffffffffffff82111715610ef057610eef610e99565b5b80604052505050565b6000610f03610e7b565b9050610f0f8282610ec8565b919050565b600067ffffffffffffffff821115610f2f57610f2e610e99565b5b610f3882610c2d565b9050602081019050919050565b82818337600083830152505050565b6000610f67610f6284610f14565b610ef9565b905082815260208101848484011115610f8357610f82610e94565b5b610f8e848285610f45565b509392505050565b600082601f830112610fab57610faa610e8f565b5b8135610fbb848260208601610f54565b91505092915050565b60008060408385031215610fdb57610fda610e85565b5b600083013567ffffffffffffffff811115610ff957610ff8610e8a565b5b61100585828601610f96565b925050602083013567ffffffffffffffff81111561102657611025610e8a565b5b61103285828601610f96565b9150509250929050565b61104581610c77565b82525050565b6000602082019050611060600083018461103c565b92915050565b61106f81610c77565b811461107a57600080fd5b50565b60008135905061108c81611066565b92915050565b6000602082840312156110a8576110a7610e85565b5b60006110b68482850161107d565b91505092915050565b600082825260208201905092915050565b60006110db82610be7565b6110e581856110bf565b93506110f5818560208601610c03565b6110fe81610c2d565b840191505092915050565b6000608082019050818103600083015261112381876110d0565b9050818103602083015261113781866110d0565b9050611146604083018561103c565b611153606083018461103c565b95945050505050565b6000806040838503121561117357611172610e85565b5b60006111818582860161107d565b92505060206111928582860161107d565b9150509250929050565b600073ffffffffffffffffffffffffffffffffffffffff82169050919050565b60006111c78261119c565b9050919050565b6111d7816111bc565b82525050565b60006020820190506111f260008301846111ce565b92915050565b600060a08301600083015184820360008601526112158282610c3e565b9150506020830151848203602086015261122f8282610c3e565b91505060408301516112446040860182610c81565b5060608301516112576060860182610c81565b506080830151848203608086015261126f8282610ce1565b9150508091505092915050565b6000602082019050818103600083015261129681846111f8565b905092915050565b6112a7816111bc565b81146112b257600080fd5b50565b6000813590506112c48161129e565b92915050565b6000602082840312156112e0576112df610e85565b5b60006112ee848285016112b5565b91505092915050565b7f4e487b7100000000000000000000000000000000000000000000000000000000600052601160045260246000fd5b600061133182610c77565b915061133c83610c77565b9250828201905080821115611354576113536112f7565b5b92915050565b7f4e487b7100000000000000000000000000000000000000000000000000000000600052602260045260246000fd5b600060028204905060018216806113a157607f821691505b6020821081036113b4576113b361135a565b5b50919050565b7f4e487b7100000000000000000000000000000000000000000000000000000000600052603260045260246000fd5b60006113f482610c77565b91507fffffffffffffffffffffffffffffffffffffffffffffffffffffffffffffffff8203611426576114256112f7565b5b600182019050919050565b60008190508160005260206000209050919050565b60006020601f8301049050919050565b600082821b905092915050565b6000600883026114937fffffffffffffffffffffffffffffffffffffffffffffffffffffffffffffffff82611456565b61149d8683611456565b95508019841693508086168417925050509392505050565b6000819050919050565b60006114da6114d56114d084610c77565b6114b5565b610c77565b9050919050565b6000819050919050565b6114f4836114bf565b611508611500826114e1565b848454611463565b825550505050565b600090565b61151d611510565b6115288184846114eb565b505050565b5b8181101561154c57611541600082611515565b60018101905061152e565b5050565b601f8211156115915761156281611431565b61156b84611446565b8101602085101561157a578190505b61158e61158685611446565b83018261152d565b50505b505050565b600082821c905092915050565b60006115b460001984600802611596565b1980831691505092915050565b60006115cd83836115a3565b9150826002028217905092915050565b6115e682610be7565b67ffffffffffffffff8111156115ff576115fe610e99565b5b6116098254611389565b611614828285611550565b600060209050601f8311600181146116475760008415611635578287015190505b61163f85826115c1565b8655506116a7565b601f19841661165586611431565b60005b8281101561167d57848901518255600182019150602085019450602081019050611658565b8683101561169a5784890151611696601f8916826115a3565b8355505b6001600288020188555050505b505050505050565b7f5573657220646f6573206e6f7420657869737400000000000000000000000000600082015250565b60006116e56013836110bf565b91506116f0826116af565b602082019050919050565b60006020820190508181036000830152611714816116d8565b905091905056fea26469706673582212203f73003ebc4ee45f3a56d5243ee53f242d8fac85633fba1af22908f2c5ce779d64736f6c634300081b0033",
  "linkReferences": {},
  "deployedLinkReferences": {}
}