{
  "_format": "hh-sol-artifact-1",
  "contractName": "Users",
  "sourceName": "contracts/User.sol",
  "abi": [
    {
      "anonymous": false,
      "inputs": [
        {
          "indexed": true,
          "internalType": "address",
          "name": "previousOwner",
          "type": "address"
        },
        {
          "indexed": true,
          "internalType": "address",
          "name": "newOwner",
          "type": "address"
        }
      ],
      "name": "OwnershipTransferred",
      "type": "event"
    },
    {
      "inputs": [
        {
          "internalType": "uint256",
          "name": "_userId",
          "type": "uint256"
        },
        {
          "internalType": "string",
          "name": "_nftPaths",
          "type": "string"
        }
      ],
      "name": "addNftPaths",
      "outputs": [],
      "stateMutability": "nonpayable",
      "type": "function"
    },
    {
      "inputs": [
        {
          "internalType": "uint256",
          "name": "userId",
          "type": "uint256"
        }
      ],
      "name": "getUserId",
      "outputs": [
        {
          "components": [
            {
              "internalType": "string",
              "name": "firstName",
              "type": "string"
            },
            {
              "internalType": "string",
              "name": "lastName",
              "type": "string"
            },
            {
              "internalType": "uint256",
              "name": "amountSpent",
              "type": "uint256"
            },
            {
              "internalType": "uint256",
              "name": "userId",
              "type": "uint256"
            },
            {
              "internalType": "string[]",
              "name": "nftPaths",
              "type": "string[]"
            }
          ],
          "internalType": "struct Users.User",
          "name": "",
          "type": "tuple"
        }
      ],
      "stateMutability": "view",
      "type": "function"
    },
    {
      "inputs": [],
      "name": "getUsers",
      "outputs": [
        {
          "components": [
            {
              "internalType": "string",
              "name": "firstName",
              "type": "string"
            },
            {
              "internalType": "string",
              "name": "lastName",
              "type": "string"
            },
            {
              "internalType": "uint256",
              "name": "amountSpent",
              "type": "uint256"
            },
            {
              "internalType": "uint256",
              "name": "userId",
              "type": "uint256"
            },
            {
              "internalType": "string[]",
              "name": "nftPaths",
              "type": "string[]"
            }
          ],
          "internalType": "struct Users.User[]",
          "name": "",
          "type": "tuple[]"
        }
      ],
      "stateMutability": "view",
      "type": "function"
    },
    {
      "inputs": [
        {
          "internalType": "string",
          "name": "firstName",
          "type": "string"
        },
        {
          "internalType": "string",
          "name": "lastName",
          "type": "string"
        }
      ],
      "name": "insertUser",
      "outputs": [
        {
          "internalType": "uint256",
          "name": "",
          "type": "uint256"
        }
      ],
      "stateMutability": "nonpayable",
      "type": "function"
    },
    {
      "inputs": [],
      "name": "owner",
      "outputs": [
        {
          "internalType": "address",
          "name": "",
          "type": "address"
        }
      ],
      "stateMutability": "view",
      "type": "function"
    },
    {
      "inputs": [
        {
          "internalType": "uint256",
          "name": "userId",
          "type": "uint256"
        },
        {
          "internalType": "uint256",
          "name": "amount",
          "type": "uint256"
        }
      ],
      "name": "register",
      "outputs": [],
      "stateMutability": "nonpayable",
      "type": "function"
    },
    {
      "inputs": [],
      "name": "renounceOwnership",
      "outputs": [],
      "stateMutability": "nonpayable",
      "type": "function"
    },
    {
      "inputs": [
        {
          "internalType": "address",
          "name": "newOwner",
          "type": "address"
        }
      ],
      "name": "transferOwnership",
      "outputs": [],
      "stateMutability": "nonpayable",
      "type": "function"
    },
    {
      "inputs": [
        {
          "internalType": "uint256",
          "name": "",
          "type": "uint256"
        }
      ],
      "name": "users",
      "outputs": [
        {
          "internalType": "string",
          "name": "firstName",
          "type": "string"
        },
        {
          "internalType": "string",
          "name": "lastName",
          "type": "string"
        },
        {
          "internalType": "uint256",
          "name": "amountSpent",
          "type": "uint256"
        },
        {
          "internalType": "uint256",
          "name": "userId",
          "type": "uint256"
        }
      ],
      "stateMutability": "view",
      "type": "function"
    }
  ],
  "bytecode": "0x6080604052348015600f57600080fd5b506000601e60c060201b60201c565b9050806000806101000a81548173ffffffffffffffffffffffffffffffffffffffff021916908373ffffffffffffffffffffffffffffffffffffffff1602179055508073ffffffffffffffffffffffffffffffffffffffff16600073ffffffffffffffffffffffffffffffffffffffff167f8be0079c531659141344cd1fd0a4f28419497f9722a3daafe3b4186f6b6457e060405160405180910390a35060c8565b600033905090565b611c09806100d76000396000f3fe608060405234801561001057600080fd5b50600436106100925760003560e01c80638da5cb5b116100665780638da5cb5b14610122578063d66d6c1014610140578063ebc981171461015c578063f25261411461018c578063f2fde38b146101a857610092565b8062ce8e3e1461009757806334979627146100b5578063365b98b2146100e5578063715018a614610118575b600080fd5b61009f6101c4565b6040516100ac91906111ff565b60405180910390f35b6100cf60048036038101906100ca919061136a565b6104af565b6040516100dc91906113f1565b60405180910390f35b6100ff60048036038101906100fa9190611438565b61063e565b60405161010f94939291906114af565b60405180910390f35b61012061077e565b005b61012a6108b8565b6040516101379190611543565b60405180910390f35b61015a6004803603810190610155919061155e565b6108e1565b005b61017660048036038101906101719190611438565b61098e565b6040516101839190611622565b60405180910390f35b6101a660048036038101906101a19190611644565b610bcc565b005b6101c260048036038101906101bd91906116cc565b610c71565b005b606060006101d26001610e19565b67ffffffffffffffff8111156101eb576101ea61123f565b5b60405190808252806020026020018201604052801561022457816020015b610211610e45565b8152602001906001900390816102095790505b50905060005b6102346001610e19565b8110156104a75760006002600060018461024e9190611728565b81526020019081526020016000209050806040518060a001604052908160008201805461027a9061178b565b80601f01602080910402602001604051908101604052809291908181526020018280546102a69061178b565b80156102f35780601f106102c8576101008083540402835291602001916102f3565b820191906000526020600020905b8154815290600101906020018083116102d657829003601f168201915b5050505050815260200160018201805461030c9061178b565b80601f01602080910402602001604051908101604052809291908181526020018280546103389061178b565b80156103855780601f1061035a57610100808354040283529160200191610385565b820191906000526020600020905b81548152906001019060200180831161036857829003601f168201915b50505050508152602001600282015481526020016003820154815260200160048201805480602002602001604051908101604052809291908181526020016000905b828210156104735783829060005260206000200180546103e69061178b565b80601f01602080910402602001604051908101604052809291908181526020018280546104129061178b565b801561045f5780601f106104345761010080835404028352916020019161045f565b820191906000526020600020905b81548152906001019060200180831161044257829003601f168201915b5050505050815260200190600101906103c7565b505050508152505083838151811061048e5761048d6117bc565b5b602002602001018190525050808060010191505061022a565b508091505090565b60006104b9610e27565b73ffffffffffffffffffffffffffffffffffffffff166104d76108b8565b73ffffffffffffffffffffffffffffffffffffffff161461052d576040517f08c379a000000000000000000000000000000000000000000000000000000000815260040161052490611837565b60405180910390fd5b6105376001610e2f565b60006105436001610e19565b905060006040518060a0016040528086815260200185815260200160008152602001838152602001600067ffffffffffffffff8111156105865761058561123f565b5b6040519080825280602002602001820160405280156105b957816020015b60608152602001906001900390816105a45790505b508152509050806002600084815260200190815260200160002060008201518160000190816105e89190611a03565b5060208201518160010190816105fe9190611a03565b506040820151816002015560608201518160030155608082015181600401908051906020019061062f929190610e74565b50905050819250505092915050565b60026020528060005260406000206000915090508060000180546106619061178b565b80601f016020809104026020016040519081016040528092919081815260200182805461068d9061178b565b80156106da5780601f106106af576101008083540402835291602001916106da565b820191906000526020600020905b8154815290600101906020018083116106bd57829003601f168201915b5050505050908060010180546106ef9061178b565b80601f016020809104026020016040519081016040528092919081815260200182805461071b9061178b565b80156107685780601f1061073d57610100808354040283529160200191610768565b820191906000526020600020905b81548152906001019060200180831161074b57829003601f168201915b5050505050908060020154908060030154905084565b610786610e27565b73ffffffffffffffffffffffffffffffffffffffff166107a46108b8565b73ffffffffffffffffffffffffffffffffffffffff16146107fa576040517f08c379a00000000000000000000000000000000000000000000000000000000081526004016107f190611837565b60405180910390fd5b600073ffffffffffffffffffffffffffffffffffffffff1660008054906101000a900473ffffffffffffffffffffffffffffffffffffffff1673ffffffffffffffffffffffffffffffffffffffff167f8be0079c531659141344cd1fd0a4f28419497f9722a3daafe3b4186f6b6457e060405160405180910390a360008060006101000a81548173ffffffffffffffffffffffffffffffffffffffff021916908373ffffffffffffffffffffffffffffffffffffffff160217905550565b60008060009054906101000a900473ffffffffffffffffffffffffffffffffffffffff16905090565b6108e9610e27565b73ffffffffffffffffffffffffffffffffffffffff166109076108b8565b73ffffffffffffffffffffffffffffffffffffffff161461095d576040517f08c379a000000000000000000000000000000000000000000000000000000000815260040161095490611837565b60405180910390fd5b806002600084815260200190815260200160002060020160008282546109839190611728565b925050819055505050565b610996610e45565b600260008381526020019081526020016000206040518060a00160405290816000820180546109c49061178b565b80601f01602080910402602001604051908101604052809291908181526020018280546109f09061178b565b8015610a3d5780601f10610a1257610100808354040283529160200191610a3d565b820191906000526020600020905b815481529060010190602001808311610a2057829003601f168201915b50505050508152602001600182018054610a569061178b565b80601f0160208091040260200160405190810160405280929190818152602001828054610a829061178b565b8015610acf5780601f10610aa457610100808354040283529160200191610acf565b820191906000526020600020905b815481529060010190602001808311610ab257829003601f168201915b50505050508152602001600282015481526020016003820154815260200160048201805480602002602001604051908101604052809291908181526020016000905b82821015610bbd578382906000526020600020018054610b309061178b565b80601f0160208091040260200160405190810160405280929190818152602001828054610b5c9061178b565b8015610ba95780601f10610b7e57610100808354040283529160200191610ba9565b820191906000526020600020905b815481529060010190602001808311610b8c57829003601f168201915b505050505081526020019060010190610b11565b50505050815250509050919050565b81600260008481526020019081526020016000206003015414610c24576040517f08c379a0000000000000000000000000000000000000000000000000000000008152600401610c1b90611b21565b60405180910390fd5b6002600083815260200190815260200160002060040181908060018154018082558091505060019003906000526020600020016000909190919091509081610c6c9190611a03565b505050565b610c79610e27565b73ffffffffffffffffffffffffffffffffffffffff16610c976108b8565b73ffffffffffffffffffffffffffffffffffffffff1614610ced576040517f08c379a0000000000000000000000000000000000000000000000000000000008152600401610ce490611837565b60405180910390fd5b600073ffffffffffffffffffffffffffffffffffffffff168173ffffffffffffffffffffffffffffffffffffffff1603610d5c576040517f08c379a0000000000000000000000000000000000000000000000000000000008152600401610d5390611bb3565b60405180910390fd5b8073ffffffffffffffffffffffffffffffffffffffff1660008054906101000a900473ffffffffffffffffffffffffffffffffffffffff1673ffffffffffffffffffffffffffffffffffffffff167f8be0079c531659141344cd1fd0a4f28419497f9722a3daafe3b4186f6b6457e060405160405180910390a3806000806101000a81548173ffffffffffffffffffffffffffffffffffffffff021916908373ffffffffffffffffffffffffffffffffffffffff16021790555050565b600081600001549050919050565b600033905090565b6001816000016000828254019250508190555050565b6040518060a0016040528060608152602001606081526020016000815260200160008152602001606081525090565b828054828255906000526020600020908101928215610ebc579160200282015b82811115610ebb578251829081610eab9190611a03565b5091602001919060010190610e94565b5b509050610ec99190610ecd565b5090565b5b80821115610eed5760008181610ee49190610ef1565b50600101610ece565b5090565b508054610efd9061178b565b6000825580601f10610f0f5750610f2e565b601f016020900490600052602060002090810190610f2d9190610f31565b5b50565b5b80821115610f4a576000816000905550600101610f32565b5090565b600081519050919050565b600082825260208201905092915050565b6000819050602082019050919050565b600081519050919050565b600082825260208201905092915050565b60005b83811015610fb4578082015181840152602081019050610f99565b60008484015250505050565b6000601f19601f8301169050919050565b6000610fdc82610f7a565b610fe68185610f85565b9350610ff6818560208601610f96565b610fff81610fc0565b840191505092915050565b6000819050919050565b61101d8161100a565b82525050565b600081519050919050565b600082825260208201905092915050565b6000819050602082019050919050565b600061105b8383610fd1565b905092915050565b6000602082019050919050565b600061107b82611023565b611085818561102e565b9350836020820285016110978561103f565b8060005b858110156110d357848403895281516110b4858261104f565b94506110bf83611063565b925060208a0199505060018101905061109b565b50829750879550505050505092915050565b600060a08301600083015184820360008601526111028282610fd1565b9150506020830151848203602086015261111c8282610fd1565b91505060408301516111316040860182611014565b5060608301516111446060860182611014565b506080830151848203608086015261115c8282611070565b9150508091505092915050565b600061117583836110e5565b905092915050565b6000602082019050919050565b600061119582610f4e565b61119f8185610f59565b9350836020820285016111b185610f6a565b8060005b858110156111ed57848403895281516111ce8582611169565b94506111d98361117d565b925060208a019950506001810190506111b5565b50829750879550505050505092915050565b60006020820190508181036000830152611219818461118a565b905092915050565b6000604051905090565b600080fd5b600080fd5b600080fd5b600080fd5b7f4e487b7100000000000000000000000000000000000000000000000000000000600052604160045260246000fd5b61127782610fc0565b810181811067ffffffffffffffff821117156112965761129561123f565b5b80604052505050565b60006112a9611221565b90506112b5828261126e565b919050565b600067ffffffffffffffff8211156112d5576112d461123f565b5b6112de82610fc0565b9050602081019050919050565b82818337600083830152505050565b600061130d611308846112ba565b61129f565b9050828152602081018484840111156113295761132861123a565b5b6113348482856112eb565b509392505050565b600082601f83011261135157611350611235565b5b81356113618482602086016112fa565b91505092915050565b600080604083850312156113815761138061122b565b5b600083013567ffffffffffffffff81111561139f5761139e611230565b5b6113ab8582860161133c565b925050602083013567ffffffffffffffff8111156113cc576113cb611230565b5b6113d88582860161133c565b9150509250929050565b6113eb8161100a565b82525050565b600060208201905061140660008301846113e2565b92915050565b6114158161100a565b811461142057600080fd5b50565b6000813590506114328161140c565b92915050565b60006020828403121561144e5761144d61122b565b5b600061145c84828501611423565b91505092915050565b600082825260208201905092915050565b600061148182610f7a565b61148b8185611465565b935061149b818560208601610f96565b6114a481610fc0565b840191505092915050565b600060808201905081810360008301526114c98187611476565b905081810360208301526114dd8186611476565b90506114ec60408301856113e2565b6114f960608301846113e2565b95945050505050565b600073ffffffffffffffffffffffffffffffffffffffff82169050919050565b600061152d82611502565b9050919050565b61153d81611522565b82525050565b60006020820190506115586000830184611534565b92915050565b600080604083850312156115755761157461122b565b5b600061158385828601611423565b925050602061159485828601611423565b9150509250929050565b600060a08301600083015184820360008601526115bb8282610fd1565b915050602083015184820360208601526115d58282610fd1565b91505060408301516115ea6040860182611014565b5060608301516115fd6060860182611014565b50608083015184820360808601526116158282611070565b9150508091505092915050565b6000602082019050818103600083015261163c818461159e565b905092915050565b6000806040838503121561165b5761165a61122b565b5b600061166985828601611423565b925050602083013567ffffffffffffffff81111561168a57611689611230565b5b6116968582860161133c565b9150509250929050565b6116a981611522565b81146116b457600080fd5b50565b6000813590506116c6816116a0565b92915050565b6000602082840312156116e2576116e161122b565b5b60006116f0848285016116b7565b91505092915050565b7f4e487b7100000000000000000000000000000000000000000000000000000000600052601160045260246000fd5b60006117338261100a565b915061173e8361100a565b9250828201905080821115611756576117556116f9565b5b92915050565b7f4e487b7100000000000000000000000000000000000000000000000000000000600052602260045260246000fd5b600060028204905060018216806117a357607f821691505b6020821081036117b6576117b561175c565b5b50919050565b7f4e487b7100000000000000000000000000000000000000000000000000000000600052603260045260246000fd5b7f4f776e61626c653a2063616c6c6572206973206e6f7420746865206f776e6572600082015250565b6000611821602083611465565b915061182c826117eb565b602082019050919050565b6000602082019050818103600083015261185081611814565b9050919050565b60008190508160005260206000209050919050565b60006020601f8301049050919050565b600082821b905092915050565b6000600883026118b97fffffffffffffffffffffffffffffffffffffffffffffffffffffffffffffffff8261187c565b6118c3868361187c565b95508019841693508086168417925050509392505050565b6000819050919050565b60006119006118fb6118f68461100a565b6118db565b61100a565b9050919050565b6000819050919050565b61191a836118e5565b61192e61192682611907565b848454611889565b825550505050565b600090565b611943611936565b61194e818484611911565b505050565b5b818110156119725761196760008261193b565b600181019050611954565b5050565b601f8211156119b75761198881611857565b6119918461186c565b810160208510156119a0578190505b6119b46119ac8561186c565b830182611953565b50505b505050565b600082821c905092915050565b60006119da600019846008026119bc565b1980831691505092915050565b60006119f383836119c9565b9150826002028217905092915050565b611a0c82610f7a565b67ffffffffffffffff811115611a2557611a2461123f565b5b611a2f825461178b565b611a3a828285611976565b600060209050601f831160018114611a6d5760008415611a5b578287015190505b611a6585826119e7565b865550611acd565b601f198416611a7b86611857565b60005b82811015611aa357848901518255600182019150602085019450602081019050611a7e565b86831015611ac05784890151611abc601f8916826119c9565b8355505b6001600288020188555050505b505050505050565b7f5573657220646f6573206e6f7420657869737400000000000000000000000000600082015250565b6000611b0b601383611465565b9150611b1682611ad5565b602082019050919050565b60006020820190508181036000830152611b3a81611afe565b9050919050565b7f4f776e61626c653a206e6577206f776e657220697320746865207a65726f206160008201527f6464726573730000000000000000000000000000000000000000000000000000602082015250565b6000611b9d602683611465565b9150611ba882611b41565b604082019050919050565b60006020820190508181036000830152611bcc81611b90565b905091905056fea26469706673582212202eed10cc04ac2814ce4a0462dfb55121a5c36b4f9e0825125ec1a150b24def1964736f6c634300081b0033",
  "linkReferences": {},
  "deployedLinkReferences": {}
}