{
  "_format": "hh-sol-artifact-1",
  "contractName": "Users",
  "sourceName": "contracts/User.sol",
  "abi": [
    {
      "anonymous": false,
      "inputs": [
        {
          "indexed": true,
          "internalType": "address",
          "name": "previousOwner",
          "type": "address"
        },
        {
          "indexed": true,
          "internalType": "address",
          "name": "newOwner",
          "type": "address"
        }
      ],
      "name": "OwnershipTransferred",
      "type": "event"
    },
    {
      "inputs": [
        {
          "internalType": "uint256",
          "name": "_userId",
          "type": "uint256"
        },
        {
          "internalType": "string[]",
          "name": "_nftPaths",
          "type": "string[]"
        }
      ],
      "name": "addNftPaths",
      "outputs": [],
      "stateMutability": "nonpayable",
      "type": "function"
    },
    {
      "inputs": [
        {
          "internalType": "uint256",
          "name": "userId",
          "type": "uint256"
        }
      ],
      "name": "getUserId",
      "outputs": [
        {
          "components": [
            {
              "internalType": "string",
              "name": "firstName",
              "type": "string"
            },
            {
              "internalType": "string",
              "name": "lastName",
              "type": "string"
            },
            {
              "internalType": "uint256",
              "name": "amountSpent",
              "type": "uint256"
            },
            {
              "internalType": "uint256",
              "name": "userId",
              "type": "uint256"
            },
            {
              "internalType": "string[]",
              "name": "nftPaths",
              "type": "string[]"
            }
          ],
          "internalType": "struct Users.User",
          "name": "",
          "type": "tuple"
        }
      ],
      "stateMutability": "view",
      "type": "function"
    },
    {
      "inputs": [],
      "name": "getUsers",
      "outputs": [
        {
          "components": [
            {
              "internalType": "string",
              "name": "firstName",
              "type": "string"
            },
            {
              "internalType": "string",
              "name": "lastName",
              "type": "string"
            },
            {
              "internalType": "uint256",
              "name": "amountSpent",
              "type": "uint256"
            },
            {
              "internalType": "uint256",
              "name": "userId",
              "type": "uint256"
            },
            {
              "internalType": "string[]",
              "name": "nftPaths",
              "type": "string[]"
            }
          ],
          "internalType": "struct Users.User[]",
          "name": "",
          "type": "tuple[]"
        }
      ],
      "stateMutability": "view",
      "type": "function"
    },
    {
      "inputs": [
        {
          "internalType": "string",
          "name": "firstName",
          "type": "string"
        },
        {
          "internalType": "string",
          "name": "lastName",
          "type": "string"
        }
      ],
      "name": "insertUser",
      "outputs": [
        {
          "internalType": "uint256",
          "name": "",
          "type": "uint256"
        }
      ],
      "stateMutability": "nonpayable",
      "type": "function"
    },
    {
      "inputs": [],
      "name": "owner",
      "outputs": [
        {
          "internalType": "address",
          "name": "",
          "type": "address"
        }
      ],
      "stateMutability": "view",
      "type": "function"
    },
    {
      "inputs": [
        {
          "internalType": "uint256",
          "name": "userId",
          "type": "uint256"
        },
        {
          "internalType": "uint256",
          "name": "amount",
          "type": "uint256"
        }
      ],
      "name": "register",
      "outputs": [],
      "stateMutability": "nonpayable",
      "type": "function"
    },
    {
      "inputs": [],
      "name": "renounceOwnership",
      "outputs": [],
      "stateMutability": "nonpayable",
      "type": "function"
    },
    {
      "inputs": [
        {
          "internalType": "address",
          "name": "newOwner",
          "type": "address"
        }
      ],
      "name": "transferOwnership",
      "outputs": [],
      "stateMutability": "nonpayable",
      "type": "function"
    },
    {
      "inputs": [
        {
          "internalType": "uint256",
          "name": "",
          "type": "uint256"
        }
      ],
      "name": "users",
      "outputs": [
        {
          "internalType": "string",
          "name": "firstName",
          "type": "string"
        },
        {
          "internalType": "string",
          "name": "lastName",
          "type": "string"
        },
        {
          "internalType": "uint256",
          "name": "amountSpent",
          "type": "uint256"
        },
        {
          "internalType": "uint256",
          "name": "userId",
          "type": "uint256"
        }
      ],
      "stateMutability": "view",
      "type": "function"
    }
  ],
  "bytecode": "0x6080604052348015600f57600080fd5b506000601e60c060201b60201c565b9050806000806101000a81548173ffffffffffffffffffffffffffffffffffffffff021916908373ffffffffffffffffffffffffffffffffffffffff1602179055508073ffffffffffffffffffffffffffffffffffffffff16600073ffffffffffffffffffffffffffffffffffffffff167f8be0079c531659141344cd1fd0a4f28419497f9722a3daafe3b4186f6b6457e060405160405180910390a35060c8565b600033905090565b611cd1806100d76000396000f3fe608060405234801561001057600080fd5b50600436106100925760003560e01c8063715018a611610066578063715018a6146101345780638da5cb5b1461013e578063d66d6c101461015c578063ebc9811714610178578063f2fde38b146101a857610092565b8062ce8e3e146100975780632c999d95146100b557806334979627146100d1578063365b98b214610101575b600080fd5b61009f6101c4565b6040516100ac91906111e1565b60405180910390f35b6100cf60048036038101906100ca919061145e565b6104af565b005b6100eb60048036038101906100e691906114ba565b610536565b6040516100f89190611541565b60405180910390f35b61011b6004803603810190610116919061155c565b6106c5565b60405161012b94939291906115d3565b60405180910390f35b61013c610805565b005b61014661093f565b6040516101539190611667565b60405180910390f35b61017660048036038101906101719190611682565b610968565b005b610192600480360381019061018d919061155c565b610a15565b60405161019f9190611746565b60405180910390f35b6101c260048036038101906101bd9190611794565b610c53565b005b606060006101d26001610dfb565b67ffffffffffffffff8111156101eb576101ea611248565b5b60405190808252806020026020018201604052801561022457816020015b610211610e27565b8152602001906001900390816102095790505b50905060005b6102346001610dfb565b8110156104a75760006002600060018461024e91906117f0565b81526020019081526020016000209050806040518060a001604052908160008201805461027a90611853565b80601f01602080910402602001604051908101604052809291908181526020018280546102a690611853565b80156102f35780601f106102c8576101008083540402835291602001916102f3565b820191906000526020600020905b8154815290600101906020018083116102d657829003601f168201915b5050505050815260200160018201805461030c90611853565b80601f016020809104026020016040519081016040528092919081815260200182805461033890611853565b80156103855780601f1061035a57610100808354040283529160200191610385565b820191906000526020600020905b81548152906001019060200180831161036857829003601f168201915b50505050508152602001600282015481526020016003820154815260200160048201805480602002602001604051908101604052809291908181526020016000905b828210156104735783829060005260206000200180546103e690611853565b80601f016020809104026020016040519081016040528092919081815260200182805461041290611853565b801561045f5780601f106104345761010080835404028352916020019161045f565b820191906000526020600020905b81548152906001019060200180831161044257829003601f168201915b5050505050815260200190600101906103c7565b505050508152505083838151811061048e5761048d611884565b5b602002602001018190525050808060010191505061022a565b508091505090565b81600260008481526020019081526020016000206003015414610507576040517f08c379a00000000000000000000000000000000000000000000000000000000081526004016104fe906118ff565b60405180910390fd5b80600260008481526020019081526020016000206004019080519060200190610531929190610e56565b505050565b6000610540610e09565b73ffffffffffffffffffffffffffffffffffffffff1661055e61093f565b73ffffffffffffffffffffffffffffffffffffffff16146105b4576040517f08c379a00000000000000000000000000000000000000000000000000000000081526004016105ab9061196b565b60405180910390fd5b6105be6001610e11565b60006105ca6001610dfb565b905060006040518060a0016040528086815260200185815260200160008152602001838152602001600067ffffffffffffffff81111561060d5761060c611248565b5b60405190808252806020026020018201604052801561064057816020015b606081526020019060019003908161062b5790505b5081525090508060026000848152602001908152602001600020600082015181600001908161066f9190611b37565b5060208201518160010190816106859190611b37565b50604082015181600201556060820151816003015560808201518160040190805190602001906106b6929190610e56565b50905050819250505092915050565b60026020528060005260406000206000915090508060000180546106e890611853565b80601f016020809104026020016040519081016040528092919081815260200182805461071490611853565b80156107615780601f1061073657610100808354040283529160200191610761565b820191906000526020600020905b81548152906001019060200180831161074457829003601f168201915b50505050509080600101805461077690611853565b80601f01602080910402602001604051908101604052809291908181526020018280546107a290611853565b80156107ef5780601f106107c4576101008083540402835291602001916107ef565b820191906000526020600020905b8154815290600101906020018083116107d257829003601f168201915b5050505050908060020154908060030154905084565b61080d610e09565b73ffffffffffffffffffffffffffffffffffffffff1661082b61093f565b73ffffffffffffffffffffffffffffffffffffffff1614610881576040517f08c379a00000000000000000000000000000000000000000000000000000000081526004016108789061196b565b60405180910390fd5b600073ffffffffffffffffffffffffffffffffffffffff1660008054906101000a900473ffffffffffffffffffffffffffffffffffffffff1673ffffffffffffffffffffffffffffffffffffffff167f8be0079c531659141344cd1fd0a4f28419497f9722a3daafe3b4186f6b6457e060405160405180910390a360008060006101000a81548173ffffffffffffffffffffffffffffffffffffffff021916908373ffffffffffffffffffffffffffffffffffffffff160217905550565b60008060009054906101000a900473ffffffffffffffffffffffffffffffffffffffff16905090565b610970610e09565b73ffffffffffffffffffffffffffffffffffffffff1661098e61093f565b73ffffffffffffffffffffffffffffffffffffffff16146109e4576040517f08c379a00000000000000000000000000000000000000000000000000000000081526004016109db9061196b565b60405180910390fd5b80600260008481526020019081526020016000206002016000828254610a0a91906117f0565b925050819055505050565b610a1d610e27565b600260008381526020019081526020016000206040518060a0016040529081600082018054610a4b90611853565b80601f0160208091040260200160405190810160405280929190818152602001828054610a7790611853565b8015610ac45780601f10610a9957610100808354040283529160200191610ac4565b820191906000526020600020905b815481529060010190602001808311610aa757829003601f168201915b50505050508152602001600182018054610add90611853565b80601f0160208091040260200160405190810160405280929190818152602001828054610b0990611853565b8015610b565780601f10610b2b57610100808354040283529160200191610b56565b820191906000526020600020905b815481529060010190602001808311610b3957829003601f168201915b50505050508152602001600282015481526020016003820154815260200160048201805480602002602001604051908101604052809291908181526020016000905b82821015610c44578382906000526020600020018054610bb790611853565b80601f0160208091040260200160405190810160405280929190818152602001828054610be390611853565b8015610c305780601f10610c0557610100808354040283529160200191610c30565b820191906000526020600020905b815481529060010190602001808311610c1357829003601f168201915b505050505081526020019060010190610b98565b50505050815250509050919050565b610c5b610e09565b73ffffffffffffffffffffffffffffffffffffffff16610c7961093f565b73ffffffffffffffffffffffffffffffffffffffff1614610ccf576040517f08c379a0000000000000000000000000000000000000000000000000000000008152600401610cc69061196b565b60405180910390fd5b600073ffffffffffffffffffffffffffffffffffffffff168173ffffffffffffffffffffffffffffffffffffffff1603610d3e576040517f08c379a0000000000000000000000000000000000000000000000000000000008152600401610d3590611c7b565b60405180910390fd5b8073ffffffffffffffffffffffffffffffffffffffff1660008054906101000a900473ffffffffffffffffffffffffffffffffffffffff1673ffffffffffffffffffffffffffffffffffffffff167f8be0079c531659141344cd1fd0a4f28419497f9722a3daafe3b4186f6b6457e060405160405180910390a3806000806101000a81548173ffffffffffffffffffffffffffffffffffffffff021916908373ffffffffffffffffffffffffffffffffffffffff16021790555050565b600081600001549050919050565b600033905090565b6001816000016000828254019250508190555050565b6040518060a0016040528060608152602001606081526020016000815260200160008152602001606081525090565b828054828255906000526020600020908101928215610e9e579160200282015b82811115610e9d578251829081610e8d9190611b37565b5091602001919060010190610e76565b5b509050610eab9190610eaf565b5090565b5b80821115610ecf5760008181610ec69190610ed3565b50600101610eb0565b5090565b508054610edf90611853565b6000825580601f10610ef15750610f10565b601f016020900490600052602060002090810190610f0f9190610f13565b5b50565b5b80821115610f2c576000816000905550600101610f14565b5090565b600081519050919050565b600082825260208201905092915050565b6000819050602082019050919050565b600081519050919050565b600082825260208201905092915050565b60005b83811015610f96578082015181840152602081019050610f7b565b60008484015250505050565b6000601f19601f8301169050919050565b6000610fbe82610f5c565b610fc88185610f67565b9350610fd8818560208601610f78565b610fe181610fa2565b840191505092915050565b6000819050919050565b610fff81610fec565b82525050565b600081519050919050565b600082825260208201905092915050565b6000819050602082019050919050565b600061103d8383610fb3565b905092915050565b6000602082019050919050565b600061105d82611005565b6110678185611010565b93508360208202850161107985611021565b8060005b858110156110b557848403895281516110968582611031565b94506110a183611045565b925060208a0199505060018101905061107d565b50829750879550505050505092915050565b600060a08301600083015184820360008601526110e48282610fb3565b915050602083015184820360208601526110fe8282610fb3565b91505060408301516111136040860182610ff6565b5060608301516111266060860182610ff6565b506080830151848203608086015261113e8282611052565b9150508091505092915050565b600061115783836110c7565b905092915050565b6000602082019050919050565b600061117782610f30565b6111818185610f3b565b93508360208202850161119385610f4c565b8060005b858110156111cf57848403895281516111b0858261114b565b94506111bb8361115f565b925060208a01995050600181019050611197565b50829750879550505050505092915050565b600060208201905081810360008301526111fb818461116c565b905092915050565b6000604051905090565b600080fd5b600080fd5b61122081610fec565b811461122b57600080fd5b50565b60008135905061123d81611217565b92915050565b600080fd5b7f4e487b7100000000000000000000000000000000000000000000000000000000600052604160045260246000fd5b61128082610fa2565b810181811067ffffffffffffffff8211171561129f5761129e611248565b5b80604052505050565b60006112b2611203565b90506112be8282611277565b919050565b600067ffffffffffffffff8211156112de576112dd611248565b5b602082029050602081019050919050565b600080fd5b600080fd5b600067ffffffffffffffff82111561131457611313611248565b5b61131d82610fa2565b9050602081019050919050565b82818337600083830152505050565b600061134c611347846112f9565b6112a8565b905082815260208101848484011115611368576113676112f4565b5b61137384828561132a565b509392505050565b600082601f8301126113905761138f611243565b5b81356113a0848260208601611339565b91505092915050565b60006113bc6113b7846112c3565b6112a8565b905080838252602082019050602084028301858111156113df576113de6112ef565b5b835b8181101561142657803567ffffffffffffffff81111561140457611403611243565b5b808601611411898261137b565b855260208501945050506020810190506113e1565b5050509392505050565b600082601f83011261144557611444611243565b5b81356114558482602086016113a9565b91505092915050565b600080604083850312156114755761147461120d565b5b60006114838582860161122e565b925050602083013567ffffffffffffffff8111156114a4576114a3611212565b5b6114b085828601611430565b9150509250929050565b600080604083850312156114d1576114d061120d565b5b600083013567ffffffffffffffff8111156114ef576114ee611212565b5b6114fb8582860161137b565b925050602083013567ffffffffffffffff81111561151c5761151b611212565b5b6115288582860161137b565b9150509250929050565b61153b81610fec565b82525050565b60006020820190506115566000830184611532565b92915050565b6000602082840312156115725761157161120d565b5b60006115808482850161122e565b91505092915050565b600082825260208201905092915050565b60006115a582610f5c565b6115af8185611589565b93506115bf818560208601610f78565b6115c881610fa2565b840191505092915050565b600060808201905081810360008301526115ed818761159a565b90508181036020830152611601818661159a565b90506116106040830185611532565b61161d6060830184611532565b95945050505050565b600073ffffffffffffffffffffffffffffffffffffffff82169050919050565b600061165182611626565b9050919050565b61166181611646565b82525050565b600060208201905061167c6000830184611658565b92915050565b600080604083850312156116995761169861120d565b5b60006116a78582860161122e565b92505060206116b88582860161122e565b9150509250929050565b600060a08301600083015184820360008601526116df8282610fb3565b915050602083015184820360208601526116f98282610fb3565b915050604083015161170e6040860182610ff6565b5060608301516117216060860182610ff6565b50608083015184820360808601526117398282611052565b9150508091505092915050565b6000602082019050818103600083015261176081846116c2565b905092915050565b61177181611646565b811461177c57600080fd5b50565b60008135905061178e81611768565b92915050565b6000602082840312156117aa576117a961120d565b5b60006117b88482850161177f565b91505092915050565b7f4e487b7100000000000000000000000000000000000000000000000000000000600052601160045260246000fd5b60006117fb82610fec565b915061180683610fec565b925082820190508082111561181e5761181d6117c1565b5b92915050565b7f4e487b7100000000000000000000000000000000000000000000000000000000600052602260045260246000fd5b6000600282049050600182168061186b57607f821691505b60208210810361187e5761187d611824565b5b50919050565b7f4e487b7100000000000000000000000000000000000000000000000000000000600052603260045260246000fd5b7f5573657220646f6573206e6f7420657869737400000000000000000000000000600082015250565b60006118e9601383611589565b91506118f4826118b3565b602082019050919050565b60006020820190508181036000830152611918816118dc565b9050919050565b7f4f776e61626c653a2063616c6c6572206973206e6f7420746865206f776e6572600082015250565b6000611955602083611589565b91506119608261191f565b602082019050919050565b6000602082019050818103600083015261198481611948565b9050919050565b60008190508160005260206000209050919050565b60006020601f8301049050919050565b600082821b905092915050565b6000600883026119ed7fffffffffffffffffffffffffffffffffffffffffffffffffffffffffffffffff826119b0565b6119f786836119b0565b95508019841693508086168417925050509392505050565b6000819050919050565b6000611a34611a2f611a2a84610fec565b611a0f565b610fec565b9050919050565b6000819050919050565b611a4e83611a19565b611a62611a5a82611a3b565b8484546119bd565b825550505050565b600090565b611a77611a6a565b611a82818484611a45565b505050565b5b81811015611aa657611a9b600082611a6f565b600181019050611a88565b5050565b601f821115611aeb57611abc8161198b565b611ac5846119a0565b81016020851015611ad4578190505b611ae8611ae0856119a0565b830182611a87565b50505b505050565b600082821c905092915050565b6000611b0e60001984600802611af0565b1980831691505092915050565b6000611b278383611afd565b9150826002028217905092915050565b611b4082610f5c565b67ffffffffffffffff811115611b5957611b58611248565b5b611b638254611853565b611b6e828285611aaa565b600060209050601f831160018114611ba15760008415611b8f578287015190505b611b998582611b1b565b865550611c01565b601f198416611baf8661198b565b60005b82811015611bd757848901518255600182019150602085019450602081019050611bb2565b86831015611bf45784890151611bf0601f891682611afd565b8355505b6001600288020188555050505b505050505050565b7f4f776e61626c653a206e6577206f776e657220697320746865207a65726f206160008201527f6464726573730000000000000000000000000000000000000000000000000000602082015250565b6000611c65602683611589565b9150611c7082611c09565b604082019050919050565b60006020820190508181036000830152611c9481611c58565b905091905056fea264697066735822122045ea17cb3b2bf2cbc07f243b5dcdf5b1ca2f97004012b4caacbed762c15c5d3064736f6c634300081b0033",
  "linkReferences": {},
  "deployedLinkReferences": {}
}