{
  "_format": "hh-sol-artifact-1",
  "contractName": "Uploads",
  "sourceName": "contracts/Upload.sol",
  "abi": [
    {
      "inputs": [],
      "stateMutability": "nonpayable",
      "type": "constructor"
    },
    {
      "inputs": [
        {
          "internalType": "address",
          "name": "owner",
          "type": "address"
        }
      ],
      "name": "OwnableInvalidOwner",
      "type": "error"
    },
    {
      "inputs": [
        {
          "internalType": "address",
          "name": "account",
          "type": "address"
        }
      ],
      "name": "OwnableUnauthorizedAccount",
      "type": "error"
    },
    {
      "anonymous": false,
      "inputs": [
        {
          "indexed": true,
          "internalType": "address",
          "name": "previousOwner",
          "type": "address"
        },
        {
          "indexed": true,
          "internalType": "address",
          "name": "newOwner",
          "type": "address"
        }
      ],
      "name": "OwnershipTransferred",
      "type": "event"
    },
    {
      "anonymous": false,
      "inputs": [
        {
          "indexed": false,
          "internalType": "uint256",
          "name": "uploadId",
          "type": "uint256"
        },
        {
          "indexed": false,
          "internalType": "string",
          "name": "fileName",
          "type": "string"
        },
        {
          "indexed": false,
          "internalType": "string",
          "name": "filePath",
          "type": "string"
        },
        {
          "indexed": false,
          "internalType": "uint256",
          "name": "userId",
          "type": "uint256"
        }
      ],
      "name": "UploadInserted",
      "type": "event"
    },
    {
      "inputs": [
        {
          "internalType": "uint256",
          "name": "uploadId",
          "type": "uint256"
        }
      ],
      "name": "getUploadById",
      "outputs": [
        {
          "components": [
            {
              "internalType": "uint256",
              "name": "uploadId",
              "type": "uint256"
            },
            {
              "internalType": "string",
              "name": "fileName",
              "type": "string"
            },
            {
              "internalType": "string",
              "name": "filePath",
              "type": "string"
            },
            {
              "internalType": "uint256",
              "name": "userId",
              "type": "uint256"
            }
          ],
          "internalType": "struct Uploads.Upload",
          "name": "",
          "type": "tuple"
        }
      ],
      "stateMutability": "view",
      "type": "function"
    },
    {
      "inputs": [],
      "name": "getUploads",
      "outputs": [
        {
          "components": [
            {
              "internalType": "uint256",
              "name": "uploadId",
              "type": "uint256"
            },
            {
              "internalType": "string",
              "name": "fileName",
              "type": "string"
            },
            {
              "internalType": "string",
              "name": "filePath",
              "type": "string"
            },
            {
              "internalType": "uint256",
              "name": "userId",
              "type": "uint256"
            }
          ],
          "internalType": "struct Uploads.Upload[]",
          "name": "",
          "type": "tuple[]"
        }
      ],
      "stateMutability": "view",
      "type": "function"
    },
    {
      "inputs": [
        {
          "internalType": "uint256",
          "name": "userId",
          "type": "uint256"
        }
      ],
      "name": "getUserUploads",
      "outputs": [
        {
          "components": [
            {
              "internalType": "uint256",
              "name": "uploadId",
              "type": "uint256"
            },
            {
              "internalType": "string",
              "name": "fileName",
              "type": "string"
            },
            {
              "internalType": "string",
              "name": "filePath",
              "type": "string"
            },
            {
              "internalType": "uint256",
              "name": "userId",
              "type": "uint256"
            }
          ],
          "internalType": "struct Uploads.Upload[]",
          "name": "",
          "type": "tuple[]"
        }
      ],
      "stateMutability": "view",
      "type": "function"
    },
    {
      "inputs": [
        {
          "internalType": "string",
          "name": "fileName",
          "type": "string"
        },
        {
          "internalType": "string",
          "name": "filePath",
          "type": "string"
        },
        {
          "internalType": "uint256",
          "name": "userId",
          "type": "uint256"
        }
      ],
      "name": "insertUpload",
      "outputs": [
        {
          "internalType": "uint256",
          "name": "",
          "type": "uint256"
        }
      ],
      "stateMutability": "nonpayable",
      "type": "function"
    },
    {
      "inputs": [],
      "name": "owner",
      "outputs": [
        {
          "internalType": "address",
          "name": "",
          "type": "address"
        }
      ],
      "stateMutability": "view",
      "type": "function"
    },
    {
      "inputs": [],
      "name": "renounceOwnership",
      "outputs": [],
      "stateMutability": "nonpayable",
      "type": "function"
    },
    {
      "inputs": [
        {
          "internalType": "address",
          "name": "newOwner",
          "type": "address"
        }
      ],
      "name": "transferOwnership",
      "outputs": [],
      "stateMutability": "nonpayable",
      "type": "function"
    },
    {
      "inputs": [
        {
          "internalType": "uint256",
          "name": "",
          "type": "uint256"
        }
      ],
      "name": "uploads",
      "outputs": [
        {
          "internalType": "uint256",
          "name": "uploadId",
          "type": "uint256"
        },
        {
          "internalType": "string",
          "name": "fileName",
          "type": "string"
        },
        {
          "internalType": "string",
          "name": "filePath",
          "type": "string"
        },
        {
          "internalType": "uint256",
          "name": "userId",
          "type": "uint256"
        }
      ],
      "stateMutability": "view",
      "type": "function"
    }
  ],
  "bytecode": "0x608060405234801561001057600080fd5b5033600073ffffffffffffffffffffffffffffffffffffffff168173ffffffffffffffffffffffffffffffffffffffff16036100845760006040517f1e4fbdf700000000000000000000000000000000000000000000000000000000815260040161007b919061019e565b60405180910390fd5b6100938161009960201b60201c565b506101b9565b60008060009054906101000a900473ffffffffffffffffffffffffffffffffffffffff169050816000806101000a81548173ffffffffffffffffffffffffffffffffffffffff021916908373ffffffffffffffffffffffffffffffffffffffff1602179055508173ffffffffffffffffffffffffffffffffffffffff168173ffffffffffffffffffffffffffffffffffffffff167f8be0079c531659141344cd1fd0a4f28419497f9722a3daafe3b4186f6b6457e060405160405180910390a35050565b600073ffffffffffffffffffffffffffffffffffffffff82169050919050565b60006101888261015d565b9050919050565b6101988161017d565b82525050565b60006020820190506101b3600083018461018f565b92915050565b6116d3806101c86000396000f3fe608060405234801561001057600080fd5b50600436106100885760003560e01c806396f6cc5c1161005b57806396f6cc5c14610115578063f2fde38b14610133578063f31ccff41461014f578063fbfecaa31461017f57610088565b80635f7e9bc71461008d5780636e8e1b42146100bd578063715018a6146100ed5780638da5cb5b146100f7575b600080fd5b6100a760048036038101906100a29190610c97565b6101b2565b6040516100b49190610e8f565b60405180910390f35b6100d760048036038101906100d29190610c97565b61042d565b6040516100e49190610f1b565b60405180910390f35b6100f56105e3565b005b6100ff6105f7565b60405161010c9190610f7e565b60405180910390f35b61011d610620565b60405161012a9190610e8f565b60405180910390f35b61014d60048036038101906101489190610fc5565b610824565b005b61016960048036038101906101649190611127565b6108aa565b60405161017691906111c1565b60405180910390f35b61019960048036038101906101949190610c97565b610992565b6040516101a99493929190611226565b60405180910390f35b6060600080600190505b600154811161020457836002600083815260200190815260200160002060030154036101f15781806101ed906112a8565b9250505b80806101fc906112a8565b9150506101bc565b5060008167ffffffffffffffff81111561022157610220610ffc565b5b60405190808252806020026020018201604052801561025a57816020015b610247610c25565b81526020019060019003908161023f5790505b509050600080600190505b6001548111610421578560026000838152602001908152602001600020600301540361040e5760026000828152602001908152602001600020604051806080016040529081600082015481526020016001820180546102c39061131f565b80601f01602080910402602001604051908101604052809291908181526020018280546102ef9061131f565b801561033c5780601f106103115761010080835404028352916020019161033c565b820191906000526020600020905b81548152906001019060200180831161031f57829003601f168201915b505050505081526020016002820180546103559061131f565b80601f01602080910402602001604051908101604052809291908181526020018280546103819061131f565b80156103ce5780601f106103a3576101008083540402835291602001916103ce565b820191906000526020600020905b8154815290600101906020018083116103b157829003601f168201915b505050505081526020016003820154815250508383815181106103f4576103f3611350565b5b6020026020010181905250818061040a906112a8565b9250505b8080610419906112a8565b915050610265565b50819350505050919050565b610435610c25565b60008211801561044757506001548211155b610486576040517f08c379a000000000000000000000000000000000000000000000000000000000815260040161047d906113cb565b60405180910390fd5b60026000838152602001908152602001600020604051806080016040529081600082015481526020016001820180546104be9061131f565b80601f01602080910402602001604051908101604052809291908181526020018280546104ea9061131f565b80156105375780601f1061050c57610100808354040283529160200191610537565b820191906000526020600020905b81548152906001019060200180831161051a57829003601f168201915b505050505081526020016002820180546105509061131f565b80601f016020809104026020016040519081016040528092919081815260200182805461057c9061131f565b80156105c95780601f1061059e576101008083540402835291602001916105c9565b820191906000526020600020905b8154815290600101906020018083116105ac57829003601f168201915b505050505081526020016003820154815250509050919050565b6105eb610ad2565b6105f56000610b59565b565b60008060009054906101000a900473ffffffffffffffffffffffffffffffffffffffff16905090565b6060600060015467ffffffffffffffff8111156106405761063f610ffc565b5b60405190808252806020026020018201604052801561067957816020015b610666610c25565b81526020019060019003908161065e5790505b50905060005b60015481101561081c5760006002600060018461069c91906113eb565b8152602001908152602001600020905080604051806080016040529081600082015481526020016001820180546106d29061131f565b80601f01602080910402602001604051908101604052809291908181526020018280546106fe9061131f565b801561074b5780601f106107205761010080835404028352916020019161074b565b820191906000526020600020905b81548152906001019060200180831161072e57829003601f168201915b505050505081526020016002820180546107649061131f565b80601f01602080910402602001604051908101604052809291908181526020018280546107909061131f565b80156107dd5780601f106107b2576101008083540402835291602001916107dd565b820191906000526020600020905b8154815290600101906020018083116107c057829003601f168201915b5050505050815260200160038201548152505083838151811061080357610802611350565b5b602002602001018190525050808060010191505061067f565b508091505090565b61082c610ad2565b600073ffffffffffffffffffffffffffffffffffffffff168173ffffffffffffffffffffffffffffffffffffffff160361089e5760006040517f1e4fbdf70000000000000000000000000000000000000000000000000000000081526004016108959190610f7e565b60405180910390fd5b6108a781610b59565b50565b60006108b4610ad2565b600160008154809291906108c7906112a8565b9190505550600060015490506040518060800160405280828152602001868152602001858152602001848152506002600083815260200190815260200160002060008201518160000155602082015181600101908161092691906115cb565b50604082015181600201908161093c91906115cb565b50606082015181600301559050507f479b30016e65d20b4e4a69305de958d5cca4990f00536708cd5d07b1d531bf988186868660405161097f9493929190611226565b60405180910390a1809150509392505050565b60026020528060005260406000206000915090508060000154908060010180546109bb9061131f565b80601f01602080910402602001604051908101604052809291908181526020018280546109e79061131f565b8015610a345780601f10610a0957610100808354040283529160200191610a34565b820191906000526020600020905b815481529060010190602001808311610a1757829003601f168201915b505050505090806002018054610a499061131f565b80601f0160208091040260200160405190810160405280929190818152602001828054610a759061131f565b8015610ac25780601f10610a9757610100808354040283529160200191610ac2565b820191906000526020600020905b815481529060010190602001808311610aa557829003601f168201915b5050505050908060030154905084565b610ada610c1d565b73ffffffffffffffffffffffffffffffffffffffff16610af86105f7565b73ffffffffffffffffffffffffffffffffffffffff1614610b5757610b1b610c1d565b6040517f118cdaa7000000000000000000000000000000000000000000000000000000008152600401610b4e9190610f7e565b60405180910390fd5b565b60008060009054906101000a900473ffffffffffffffffffffffffffffffffffffffff169050816000806101000a81548173ffffffffffffffffffffffffffffffffffffffff021916908373ffffffffffffffffffffffffffffffffffffffff1602179055508173ffffffffffffffffffffffffffffffffffffffff168173ffffffffffffffffffffffffffffffffffffffff167f8be0079c531659141344cd1fd0a4f28419497f9722a3daafe3b4186f6b6457e060405160405180910390a35050565b600033905090565b6040518060800160405280600081526020016060815260200160608152602001600081525090565b6000604051905090565b600080fd5b600080fd5b6000819050919050565b610c7481610c61565b8114610c7f57600080fd5b50565b600081359050610c9181610c6b565b92915050565b600060208284031215610cad57610cac610c57565b5b6000610cbb84828501610c82565b91505092915050565b600081519050919050565b600082825260208201905092915050565b6000819050602082019050919050565b610cf981610c61565b82525050565b600081519050919050565b600082825260208201905092915050565b60005b83811015610d39578082015181840152602081019050610d1e565b60008484015250505050565b6000601f19601f8301169050919050565b6000610d6182610cff565b610d6b8185610d0a565b9350610d7b818560208601610d1b565b610d8481610d45565b840191505092915050565b6000608083016000830151610da76000860182610cf0565b5060208301518482036020860152610dbf8282610d56565b91505060408301518482036040860152610dd98282610d56565b9150506060830151610dee6060860182610cf0565b508091505092915050565b6000610e058383610d8f565b905092915050565b6000602082019050919050565b6000610e2582610cc4565b610e2f8185610ccf565b935083602082028501610e4185610ce0565b8060005b85811015610e7d5784840389528151610e5e8582610df9565b9450610e6983610e0d565b925060208a01995050600181019050610e45565b50829750879550505050505092915050565b60006020820190508181036000830152610ea98184610e1a565b905092915050565b6000608083016000830151610ec96000860182610cf0565b5060208301518482036020860152610ee18282610d56565b91505060408301518482036040860152610efb8282610d56565b9150506060830151610f106060860182610cf0565b508091505092915050565b60006020820190508181036000830152610f358184610eb1565b905092915050565b600073ffffffffffffffffffffffffffffffffffffffff82169050919050565b6000610f6882610f3d565b9050919050565b610f7881610f5d565b82525050565b6000602082019050610f936000830184610f6f565b92915050565b610fa281610f5d565b8114610fad57600080fd5b50565b600081359050610fbf81610f99565b92915050565b600060208284031215610fdb57610fda610c57565b5b6000610fe984828501610fb0565b91505092915050565b600080fd5b600080fd5b7f4e487b7100000000000000000000000000000000000000000000000000000000600052604160045260246000fd5b61103482610d45565b810181811067ffffffffffffffff8211171561105357611052610ffc565b5b80604052505050565b6000611066610c4d565b9050611072828261102b565b919050565b600067ffffffffffffffff82111561109257611091610ffc565b5b61109b82610d45565b9050602081019050919050565b82818337600083830152505050565b60006110ca6110c584611077565b61105c565b9050828152602081018484840111156110e6576110e5610ff7565b5b6110f18482856110a8565b509392505050565b600082601f83011261110e5761110d610ff2565b5b813561111e8482602086016110b7565b91505092915050565b6000806000606084860312156111405761113f610c57565b5b600084013567ffffffffffffffff81111561115e5761115d610c5c565b5b61116a868287016110f9565b935050602084013567ffffffffffffffff81111561118b5761118a610c5c565b5b611197868287016110f9565b92505060406111a886828701610c82565b9150509250925092565b6111bb81610c61565b82525050565b60006020820190506111d660008301846111b2565b92915050565b600082825260208201905092915050565b60006111f882610cff565b61120281856111dc565b9350611212818560208601610d1b565b61121b81610d45565b840191505092915050565b600060808201905061123b60008301876111b2565b818103602083015261124d81866111ed565b9050818103604083015261126181856111ed565b905061127060608301846111b2565b95945050505050565b7f4e487b7100000000000000000000000000000000000000000000000000000000600052601160045260246000fd5b60006112b382610c61565b91507fffffffffffffffffffffffffffffffffffffffffffffffffffffffffffffffff82036112e5576112e4611279565b5b600182019050919050565b7f4e487b7100000000000000000000000000000000000000000000000000000000600052602260045260246000fd5b6000600282049050600182168061133757607f821691505b60208210810361134a576113496112f0565b5b50919050565b7f4e487b7100000000000000000000000000000000000000000000000000000000600052603260045260246000fd5b7f55706c6f616420646f6573206e6f742065786973740000000000000000000000600082015250565b60006113b56015836111dc565b91506113c08261137f565b602082019050919050565b600060208201905081810360008301526113e4816113a8565b9050919050565b60006113f682610c61565b915061140183610c61565b925082820190508082111561141957611418611279565b5b92915050565b60008190508160005260206000209050919050565b60006020601f8301049050919050565b600082821b905092915050565b6000600883026114817fffffffffffffffffffffffffffffffffffffffffffffffffffffffffffffffff82611444565b61148b8683611444565b95508019841693508086168417925050509392505050565b6000819050919050565b60006114c86114c36114be84610c61565b6114a3565b610c61565b9050919050565b6000819050919050565b6114e2836114ad565b6114f66114ee826114cf565b848454611451565b825550505050565b600090565b61150b6114fe565b6115168184846114d9565b505050565b5b8181101561153a5761152f600082611503565b60018101905061151c565b5050565b601f82111561157f576115508161141f565b61155984611434565b81016020851015611568578190505b61157c61157485611434565b83018261151b565b50505b505050565b600082821c905092915050565b60006115a260001984600802611584565b1980831691505092915050565b60006115bb8383611591565b9150826002028217905092915050565b6115d482610cff565b67ffffffffffffffff8111156115ed576115ec610ffc565b5b6115f7825461131f565b61160282828561153e565b600060209050601f8311600181146116355760008415611623578287015190505b61162d85826115af565b865550611695565b601f1984166116438661141f565b60005b8281101561166b57848901518255600182019150602085019450602081019050611646565b868310156116885784890151611684601f891682611591565b8355505b6001600288020188555050505b50505050505056fea2646970667358221220c02d4ded59c0a8705aa5ecac74aa841967a4301985aa61051ed138badab6115164736f6c634300081b0033",
  "linkReferences": {},
  "deployedLinkReferences": {}
}