{
  "_format": "hh-sol-artifact-1",
  "contractName": "Uploads",
  "sourceName": "contracts/Upload.sol",
  "abi": [
    {
      "inputs": [],
      "stateMutability": "nonpayable",
      "type": "constructor"
    },
    {
      "inputs": [
        {
          "internalType": "address",
          "name": "owner",
          "type": "address"
        }
      ],
      "name": "OwnableInvalidOwner",
      "type": "error"
    },
    {
      "inputs": [
        {
          "internalType": "address",
          "name": "account",
          "type": "address"
        }
      ],
      "name": "OwnableUnauthorizedAccount",
      "type": "error"
    },
    {
      "anonymous": false,
      "inputs": [
        {
          "indexed": true,
          "internalType": "address",
          "name": "previousOwner",
          "type": "address"
        },
        {
          "indexed": true,
          "internalType": "address",
          "name": "newOwner",
          "type": "address"
        }
      ],
      "name": "OwnershipTransferred",
      "type": "event"
    },
    {
      "inputs": [
        {
          "internalType": "uint256",
          "name": "uploadId",
          "type": "uint256"
        }
      ],
      "name": "getUploadById",
      "outputs": [
        {
          "components": [
            {
              "internalType": "string",
              "name": "fileName",
              "type": "string"
            },
            {
              "internalType": "string",
              "name": "filePath",
              "type": "string"
            },
            {
              "internalType": "uint256",
              "name": "userId",
              "type": "uint256"
            }
          ],
          "internalType": "struct Uploads.Upload",
          "name": "",
          "type": "tuple"
        }
      ],
      "stateMutability": "view",
      "type": "function"
    },
    {
      "inputs": [],
      "name": "getUploads",
      "outputs": [
        {
          "components": [
            {
              "internalType": "string",
              "name": "fileName",
              "type": "string"
            },
            {
              "internalType": "string",
              "name": "filePath",
              "type": "string"
            },
            {
              "internalType": "uint256",
              "name": "userId",
              "type": "uint256"
            }
          ],
          "internalType": "struct Uploads.Upload[]",
          "name": "",
          "type": "tuple[]"
        }
      ],
      "stateMutability": "view",
      "type": "function"
    },
    {
      "inputs": [
        {
          "internalType": "uint256",
          "name": "userId",
          "type": "uint256"
        }
      ],
      "name": "getUserUploads",
      "outputs": [
        {
          "components": [
            {
              "internalType": "string",
              "name": "fileName",
              "type": "string"
            },
            {
              "internalType": "string",
              "name": "filePath",
              "type": "string"
            },
            {
              "internalType": "uint256",
              "name": "userId",
              "type": "uint256"
            }
          ],
          "internalType": "struct Uploads.Upload[]",
          "name": "",
          "type": "tuple[]"
        }
      ],
      "stateMutability": "view",
      "type": "function"
    },
    {
      "inputs": [
        {
          "internalType": "string",
          "name": "fileName",
          "type": "string"
        },
        {
          "internalType": "string",
          "name": "filePath",
          "type": "string"
        },
        {
          "internalType": "uint256",
          "name": "userId",
          "type": "uint256"
        }
      ],
      "name": "insertUpload",
      "outputs": [
        {
          "internalType": "uint256",
          "name": "",
          "type": "uint256"
        }
      ],
      "stateMutability": "nonpayable",
      "type": "function"
    },
    {
      "inputs": [],
      "name": "owner",
      "outputs": [
        {
          "internalType": "address",
          "name": "",
          "type": "address"
        }
      ],
      "stateMutability": "view",
      "type": "function"
    },
    {
      "inputs": [],
      "name": "renounceOwnership",
      "outputs": [],
      "stateMutability": "nonpayable",
      "type": "function"
    },
    {
      "inputs": [
        {
          "internalType": "address",
          "name": "newOwner",
          "type": "address"
        }
      ],
      "name": "transferOwnership",
      "outputs": [],
      "stateMutability": "nonpayable",
      "type": "function"
    },
    {
      "inputs": [
        {
          "internalType": "uint256",
          "name": "",
          "type": "uint256"
        }
      ],
      "name": "uploads",
      "outputs": [
        {
          "internalType": "string",
          "name": "fileName",
          "type": "string"
        },
        {
          "internalType": "string",
          "name": "filePath",
          "type": "string"
        },
        {
          "internalType": "uint256",
          "name": "userId",
          "type": "uint256"
        }
      ],
      "stateMutability": "view",
      "type": "function"
    }
  ],
  "bytecode": "0x608060405234801561001057600080fd5b5033600073ffffffffffffffffffffffffffffffffffffffff168173ffffffffffffffffffffffffffffffffffffffff16036100845760006040517f1e4fbdf700000000000000000000000000000000000000000000000000000000815260040161007b919061019e565b60405180910390fd5b6100938161009960201b60201c565b506101b9565b60008060009054906101000a900473ffffffffffffffffffffffffffffffffffffffff169050816000806101000a81548173ffffffffffffffffffffffffffffffffffffffff021916908373ffffffffffffffffffffffffffffffffffffffff1602179055508173ffffffffffffffffffffffffffffffffffffffff168173ffffffffffffffffffffffffffffffffffffffff167f8be0079c531659141344cd1fd0a4f28419497f9722a3daafe3b4186f6b6457e060405160405180910390a35050565b600073ffffffffffffffffffffffffffffffffffffffff82169050919050565b60006101888261015d565b9050919050565b6101988161017d565b82525050565b60006020820190506101b3600083018461018f565b92915050565b611626806101c86000396000f3fe608060405234801561001057600080fd5b50600436106100885760003560e01c806396f6cc5c1161005b57806396f6cc5c14610115578063f2fde38b14610133578063f31ccff41461014f578063fbfecaa31461017f57610088565b80635f7e9bc71461008d5780636e8e1b42146100bd578063715018a6146100ed5780638da5cb5b146100f7575b600080fd5b6100a760048036038101906100a29190610c1e565b6101b1565b6040516100b49190610e03565b60405180910390f35b6100d760048036038101906100d29190610c1e565b610422565b6040516100e49190610e7c565b60405180910390f35b6100f56105ce565b005b6100ff6105e2565b60405161010c9190610edf565b60405180910390f35b61011d61060b565b60405161012a9190610e03565b60405180910390f35b61014d60048036038101906101489190610f26565b610805565b005b61016960048036038101906101649190611088565b61088b565b6040516101769190611122565b60405180910390f35b61019960048036038101906101949190610c1e565b610926565b6040516101a893929190611187565b60405180910390f35b6060600080600190505b600154811161020357836002600083815260200190815260200160002060020154036101f05781806101ec906111fb565b9250505b80806101fb906111fb565b9150506101bb565b5060008167ffffffffffffffff8111156102205761021f610f5d565b5b60405190808252806020026020018201604052801561025957816020015b610246610bb3565b81526020019060019003908161023e5790505b509050600080600190505b6001548111610416578560026000838152602001908152602001600020600201540361040357600260008281526020019081526020016000206040518060600160405290816000820180546102b890611272565b80601f01602080910402602001604051908101604052809291908181526020018280546102e490611272565b80156103315780601f1061030657610100808354040283529160200191610331565b820191906000526020600020905b81548152906001019060200180831161031457829003601f168201915b5050505050815260200160018201805461034a90611272565b80601f016020809104026020016040519081016040528092919081815260200182805461037690611272565b80156103c35780601f10610398576101008083540402835291602001916103c3565b820191906000526020600020905b8154815290600101906020018083116103a657829003601f168201915b505050505081526020016002820154815250508383815181106103e9576103e86112a3565b5b602002602001018190525081806103ff906111fb565b9250505b808061040e906111fb565b915050610264565b50819350505050919050565b61042a610bb3565b60008211801561043c57506001548211155b61047b576040517f08c379a00000000000000000000000000000000000000000000000000000000081526004016104729061131e565b60405180910390fd5b600260008381526020019081526020016000206040518060600160405290816000820180546104a990611272565b80601f01602080910402602001604051908101604052809291908181526020018280546104d590611272565b80156105225780601f106104f757610100808354040283529160200191610522565b820191906000526020600020905b81548152906001019060200180831161050557829003601f168201915b5050505050815260200160018201805461053b90611272565b80601f016020809104026020016040519081016040528092919081815260200182805461056790611272565b80156105b45780601f10610589576101008083540402835291602001916105b4565b820191906000526020600020905b81548152906001019060200180831161059757829003601f168201915b505050505081526020016002820154815250509050919050565b6105d6610a60565b6105e06000610ae7565b565b60008060009054906101000a900473ffffffffffffffffffffffffffffffffffffffff16905090565b6060600060015467ffffffffffffffff81111561062b5761062a610f5d565b5b60405190808252806020026020018201604052801561066457816020015b610651610bb3565b8152602001906001900390816106495790505b50905060005b6001548110156107fd57600060026000600184610687919061133e565b81526020019081526020016000209050806040518060600160405290816000820180546106b390611272565b80601f01602080910402602001604051908101604052809291908181526020018280546106df90611272565b801561072c5780601f106107015761010080835404028352916020019161072c565b820191906000526020600020905b81548152906001019060200180831161070f57829003601f168201915b5050505050815260200160018201805461074590611272565b80601f016020809104026020016040519081016040528092919081815260200182805461077190611272565b80156107be5780601f10610793576101008083540402835291602001916107be565b820191906000526020600020905b8154815290600101906020018083116107a157829003601f168201915b505050505081526020016002820154815250508383815181106107e4576107e36112a3565b5b602002602001018190525050808060010191505061066a565b508091505090565b61080d610a60565b600073ffffffffffffffffffffffffffffffffffffffff168173ffffffffffffffffffffffffffffffffffffffff160361087f5760006040517f1e4fbdf70000000000000000000000000000000000000000000000000000000081526004016108769190610edf565b60405180910390fd5b61088881610ae7565b50565b6000610895610a60565b600160008154809291906108a8906111fb565b9190505550600060015490506040518060600160405280868152602001858152602001848152506002600083815260200190815260200160002060008201518160000190816108f7919061151e565b50602082015181600101908161090d919061151e565b5060408201518160020155905050809150509392505050565b600260205280600052604060002060009150905080600001805461094990611272565b80601f016020809104026020016040519081016040528092919081815260200182805461097590611272565b80156109c25780601f10610997576101008083540402835291602001916109c2565b820191906000526020600020905b8154815290600101906020018083116109a557829003601f168201915b5050505050908060010180546109d790611272565b80601f0160208091040260200160405190810160405280929190818152602001828054610a0390611272565b8015610a505780601f10610a2557610100808354040283529160200191610a50565b820191906000526020600020905b815481529060010190602001808311610a3357829003601f168201915b5050505050908060020154905083565b610a68610bab565b73ffffffffffffffffffffffffffffffffffffffff16610a866105e2565b73ffffffffffffffffffffffffffffffffffffffff1614610ae557610aa9610bab565b6040517f118cdaa7000000000000000000000000000000000000000000000000000000008152600401610adc9190610edf565b60405180910390fd5b565b60008060009054906101000a900473ffffffffffffffffffffffffffffffffffffffff169050816000806101000a81548173ffffffffffffffffffffffffffffffffffffffff021916908373ffffffffffffffffffffffffffffffffffffffff1602179055508173ffffffffffffffffffffffffffffffffffffffff168173ffffffffffffffffffffffffffffffffffffffff167f8be0079c531659141344cd1fd0a4f28419497f9722a3daafe3b4186f6b6457e060405160405180910390a35050565b600033905090565b60405180606001604052806060815260200160608152602001600081525090565b6000604051905090565b600080fd5b600080fd5b6000819050919050565b610bfb81610be8565b8114610c0657600080fd5b50565b600081359050610c1881610bf2565b92915050565b600060208284031215610c3457610c33610bde565b5b6000610c4284828501610c09565b91505092915050565b600081519050919050565b600082825260208201905092915050565b6000819050602082019050919050565b600081519050919050565b600082825260208201905092915050565b60005b83811015610cb1578082015181840152602081019050610c96565b60008484015250505050565b6000601f19601f8301169050919050565b6000610cd982610c77565b610ce38185610c82565b9350610cf3818560208601610c93565b610cfc81610cbd565b840191505092915050565b610d1081610be8565b82525050565b60006060830160008301518482036000860152610d338282610cce565b91505060208301518482036020860152610d4d8282610cce565b9150506040830151610d626040860182610d07565b508091505092915050565b6000610d798383610d16565b905092915050565b6000602082019050919050565b6000610d9982610c4b565b610da38185610c56565b935083602082028501610db585610c67565b8060005b85811015610df15784840389528151610dd28582610d6d565b9450610ddd83610d81565b925060208a01995050600181019050610db9565b50829750879550505050505092915050565b60006020820190508181036000830152610e1d8184610d8e565b905092915050565b60006060830160008301518482036000860152610e428282610cce565b91505060208301518482036020860152610e5c8282610cce565b9150506040830151610e716040860182610d07565b508091505092915050565b60006020820190508181036000830152610e968184610e25565b905092915050565b600073ffffffffffffffffffffffffffffffffffffffff82169050919050565b6000610ec982610e9e565b9050919050565b610ed981610ebe565b82525050565b6000602082019050610ef46000830184610ed0565b92915050565b610f0381610ebe565b8114610f0e57600080fd5b50565b600081359050610f2081610efa565b92915050565b600060208284031215610f3c57610f3b610bde565b5b6000610f4a84828501610f11565b91505092915050565b600080fd5b600080fd5b7f4e487b7100000000000000000000000000000000000000000000000000000000600052604160045260246000fd5b610f9582610cbd565b810181811067ffffffffffffffff82111715610fb457610fb3610f5d565b5b80604052505050565b6000610fc7610bd4565b9050610fd38282610f8c565b919050565b600067ffffffffffffffff821115610ff357610ff2610f5d565b5b610ffc82610cbd565b9050602081019050919050565b82818337600083830152505050565b600061102b61102684610fd8565b610fbd565b90508281526020810184848401111561104757611046610f58565b5b611052848285611009565b509392505050565b600082601f83011261106f5761106e610f53565b5b813561107f848260208601611018565b91505092915050565b6000806000606084860312156110a1576110a0610bde565b5b600084013567ffffffffffffffff8111156110bf576110be610be3565b5b6110cb8682870161105a565b935050602084013567ffffffffffffffff8111156110ec576110eb610be3565b5b6110f88682870161105a565b925050604061110986828701610c09565b9150509250925092565b61111c81610be8565b82525050565b60006020820190506111376000830184611113565b92915050565b600082825260208201905092915050565b600061115982610c77565b611163818561113d565b9350611173818560208601610c93565b61117c81610cbd565b840191505092915050565b600060608201905081810360008301526111a1818661114e565b905081810360208301526111b5818561114e565b90506111c46040830184611113565b949350505050565b7f4e487b7100000000000000000000000000000000000000000000000000000000600052601160045260246000fd5b600061120682610be8565b91507fffffffffffffffffffffffffffffffffffffffffffffffffffffffffffffffff8203611238576112376111cc565b5b600182019050919050565b7f4e487b7100000000000000000000000000000000000000000000000000000000600052602260045260246000fd5b6000600282049050600182168061128a57607f821691505b60208210810361129d5761129c611243565b5b50919050565b7f4e487b7100000000000000000000000000000000000000000000000000000000600052603260045260246000fd5b7f55706c6f616420646f6573206e6f742065786973740000000000000000000000600082015250565b600061130860158361113d565b9150611313826112d2565b602082019050919050565b60006020820190508181036000830152611337816112fb565b9050919050565b600061134982610be8565b915061135483610be8565b925082820190508082111561136c5761136b6111cc565b5b92915050565b60008190508160005260206000209050919050565b60006020601f8301049050919050565b600082821b905092915050565b6000600883026113d47fffffffffffffffffffffffffffffffffffffffffffffffffffffffffffffffff82611397565b6113de8683611397565b95508019841693508086168417925050509392505050565b6000819050919050565b600061141b61141661141184610be8565b6113f6565b610be8565b9050919050565b6000819050919050565b61143583611400565b61144961144182611422565b8484546113a4565b825550505050565b600090565b61145e611451565b61146981848461142c565b505050565b5b8181101561148d57611482600082611456565b60018101905061146f565b5050565b601f8211156114d2576114a381611372565b6114ac84611387565b810160208510156114bb578190505b6114cf6114c785611387565b83018261146e565b50505b505050565b600082821c905092915050565b60006114f5600019846008026114d7565b1980831691505092915050565b600061150e83836114e4565b9150826002028217905092915050565b61152782610c77565b67ffffffffffffffff8111156115405761153f610f5d565b5b61154a8254611272565b611555828285611491565b600060209050601f8311600181146115885760008415611576578287015190505b6115808582611502565b8655506115e8565b601f19841661159686611372565b60005b828110156115be57848901518255600182019150602085019450602081019050611599565b868310156115db57848901516115d7601f8916826114e4565b8355505b6001600288020188555050505b50505050505056fea264697066735822122072b8a2f43176894d93e3677a38e5da0c5ab0b5da8d6a0474f7f3a2294b2f2e0764736f6c634300081b0033",
  "linkReferences": {},
  "deployedLinkReferences": {}
}